{
  "_format": "hh-sol-artifact-1",
  "contractName": "MarketPride",
  "sourceName": "contracts/MarketPride.sol",
  "abi": [
    {
      "inputs": [],
      "stateMutability": "nonpayable",
      "type": "constructor"
    },
    {
      "anonymous": false,
      "inputs": [
        {
          "indexed": true,
          "internalType": "address",
          "name": "_from",
          "type": "address"
        },
        {
          "indexed": true,
          "internalType": "address",
          "name": "_to",
          "type": "address"
        },
        {
          "indexed": false,
          "internalType": "uint256",
          "name": "_price",
          "type": "uint256"
        }
      ],
      "name": "payment",
      "type": "event"
    },
    {
      "inputs": [
        {
          "internalType": "address",
          "name": "pubkey",
          "type": "address"
        }
      ],
      "name": "checkUserExists",
      "outputs": [
        {
          "internalType": "bool",
          "name": "",
          "type": "bool"
        }
      ],
      "stateMutability": "view",
      "type": "function"
    },
    {
      "inputs": [
        {
          "internalType": "string",
          "name": "name",
          "type": "string"
        }
      ],
      "name": "createAccount",
      "outputs": [],
      "stateMutability": "nonpayable",
      "type": "function"
    },
    {
      "inputs": [
        {
          "internalType": "string",
          "name": "_name",
          "type": "string"
        },
        {
          "internalType": "string",
          "name": "_desc",
          "type": "string"
        },
        {
          "internalType": "string",
          "name": "_imageUrl",
          "type": "string"
        },
        {
          "internalType": "string",
          "name": "_coverImage",
          "type": "string"
        }
      ],
      "name": "createStore",
      "outputs": [
        {
          "internalType": "bool",
          "name": "",
          "type": "bool"
        }
      ],
      "stateMutability": "nonpayable",
      "type": "function"
    },
    {
      "inputs": [
        {
          "internalType": "address",
          "name": "_seller",
          "type": "address"
        }
      ],
      "name": "fetchSellerProducts",
      "outputs": [
        {
          "components": [
            {
              "internalType": "address",
              "name": "buyer",
              "type": "address"
            },
            {
              "internalType": "address",
              "name": "seller",
              "type": "address"
            },
            {
              "internalType": "uint256",
              "name": "id",
              "type": "uint256"
            },
            {
              "internalType": "uint256",
              "name": "price",
              "type": "uint256"
            },
            {
              "internalType": "uint256",
              "name": "rating",
              "type": "uint256"
            },
            {
              "internalType": "string",
              "name": "name",
              "type": "string"
            },
            {
              "internalType": "string",
              "name": "description",
              "type": "string"
            },
            {
              "internalType": "string",
              "name": "category",
              "type": "string"
            },
            {
              "internalType": "string",
              "name": "imgUrl",
              "type": "string"
            }
          ],
          "internalType": "struct MarketPride.Product[]",
          "name": "",
          "type": "tuple[]"
        }
      ],
      "stateMutability": "view",
      "type": "function"
    },
    {
      "inputs": [
        {
          "internalType": "address",
          "name": "_creator",
          "type": "address"
        }
      ],
      "name": "fetchSellerStore",
      "outputs": [
        {
          "components": [
            {
              "internalType": "string",
              "name": "name",
              "type": "string"
            },
            {
              "internalType": "string",
              "name": "description",
              "type": "string"
            },
            {
              "internalType": "uint256",
              "name": "id",
              "type": "uint256"
            },
            {
              "internalType": "address",
              "name": "creator",
              "type": "address"
            },
            {
              "internalType": "string",
              "name": "imageUrl",
              "type": "string"
            },
            {
              "internalType": "string",
              "name": "coverImage",
              "type": "string"
            }
          ],
          "internalType": "struct MarketPride.Store[]",
          "name": "",
          "type": "tuple[]"
        }
      ],
      "stateMutability": "view",
      "type": "function"
    },
    {
      "inputs": [],
      "name": "getAllProduct",
      "outputs": [
        {
          "components": [
            {
              "internalType": "address",
              "name": "buyer",
              "type": "address"
            },
            {
              "internalType": "address",
              "name": "seller",
              "type": "address"
            },
            {
              "internalType": "uint256",
              "name": "id",
              "type": "uint256"
            },
            {
              "internalType": "uint256",
              "name": "price",
              "type": "uint256"
            },
            {
              "internalType": "uint256",
              "name": "rating",
              "type": "uint256"
            },
            {
              "internalType": "string",
              "name": "name",
              "type": "string"
            },
            {
              "internalType": "string",
              "name": "description",
              "type": "string"
            },
            {
              "internalType": "string",
              "name": "category",
              "type": "string"
            },
            {
              "internalType": "string",
              "name": "imgUrl",
              "type": "string"
            }
          ],
          "internalType": "struct MarketPride.Product[]",
          "name": "",
          "type": "tuple[]"
        }
      ],
      "stateMutability": "view",
      "type": "function"
    },
    {
      "inputs": [],
      "name": "getAllStore",
      "outputs": [
        {
          "components": [
            {
              "internalType": "string",
              "name": "name",
              "type": "string"
            },
            {
              "internalType": "string",
              "name": "description",
              "type": "string"
            },
            {
              "internalType": "uint256",
              "name": "id",
              "type": "uint256"
            },
            {
              "internalType": "address",
              "name": "creator",
              "type": "address"
            },
            {
              "internalType": "string",
              "name": "imageUrl",
              "type": "string"
            },
            {
              "internalType": "string",
              "name": "coverImage",
              "type": "string"
            }
          ],
          "internalType": "struct MarketPride.Store[]",
          "name": "",
          "type": "tuple[]"
        }
      ],
      "stateMutability": "view",
      "type": "function"
    },
    {
      "inputs": [
        {
          "internalType": "address",
          "name": "_pubkey",
          "type": "address"
        }
      ],
      "name": "getAllUserStoreAndProducts",
      "outputs": [
        {
          "components": [
            {
              "internalType": "address",
              "name": "buyer",
              "type": "address"
            },
            {
              "internalType": "address",
              "name": "seller",
              "type": "address"
            },
            {
              "internalType": "uint256",
              "name": "id",
              "type": "uint256"
            },
            {
              "internalType": "uint256",
              "name": "price",
              "type": "uint256"
            },
            {
              "internalType": "uint256",
              "name": "rating",
              "type": "uint256"
            },
            {
              "internalType": "string",
              "name": "name",
              "type": "string"
            },
            {
              "internalType": "string",
              "name": "description",
              "type": "string"
            },
            {
              "internalType": "string",
              "name": "category",
              "type": "string"
            },
            {
              "internalType": "string",
              "name": "imgUrl",
              "type": "string"
            }
          ],
          "internalType": "struct MarketPride.Product[]",
          "name": "",
          "type": "tuple[]"
        },
        {
          "components": [
            {
              "internalType": "string",
              "name": "name",
              "type": "string"
            },
            {
              "internalType": "string",
              "name": "description",
              "type": "string"
            },
            {
              "internalType": "uint256",
              "name": "id",
              "type": "uint256"
            },
            {
              "internalType": "address",
              "name": "creator",
              "type": "address"
            },
            {
              "internalType": "string",
              "name": "imageUrl",
              "type": "string"
            },
            {
              "internalType": "string",
              "name": "coverImage",
              "type": "string"
            }
          ],
          "internalType": "struct MarketPride.Store[]",
          "name": "",
          "type": "tuple[]"
        }
      ],
      "stateMutability": "view",
      "type": "function"
    },
    {
      "inputs": [],
      "name": "getIfStoreExist",
      "outputs": [
        {
          "internalType": "bool",
          "name": "",
          "type": "bool"
        }
      ],
      "stateMutability": "view",
      "type": "function"
    },
    {
      "inputs": [],
      "name": "getNumberOfProducts",
      "outputs": [
        {
          "internalType": "uint256",
          "name": "",
          "type": "uint256"
        }
      ],
      "stateMutability": "view",
      "type": "function"
    },
    {
      "inputs": [],
      "name": "getNumberOfStore",
      "outputs": [
        {
          "internalType": "uint256",
          "name": "",
          "type": "uint256"
        }
      ],
      "stateMutability": "view",
      "type": "function"
    },
    {
      "inputs": [
        {
          "internalType": "address",
          "name": "pubkey",
          "type": "address"
        }
      ],
      "name": "getUsername",
      "outputs": [
        {
          "internalType": "string",
          "name": "",
          "type": "string"
        }
      ],
      "stateMutability": "view",
      "type": "function"
    },
    {
      "inputs": [
        {
          "internalType": "address",
          "name": "_seller",
          "type": "address"
        },
        {
          "internalType": "uint256",
          "name": "_price",
          "type": "uint256"
        },
        {
          "internalType": "uint256",
          "name": "_rating",
          "type": "uint256"
        },
        {
          "internalType": "string",
          "name": "_name",
          "type": "string"
        },
        {
          "internalType": "string",
          "name": "_description",
          "type": "string"
        },
        {
          "internalType": "string",
          "name": "_category",
          "type": "string"
        },
        {
          "internalType": "string",
          "name": "_imgUrl",
          "type": "string"
        }
      ],
      "name": "listNewProduct",
      "outputs": [],
      "stateMutability": "nonpayable",
      "type": "function"
    },
    {
      "inputs": [
        {
          "internalType": "uint256",
          "name": "_id",
          "type": "uint256"
        }
      ],
      "name": "payForProducts",
      "outputs": [],
      "stateMutability": "payable",
      "type": "function"
    },
    {
      "inputs": [
        {
          "internalType": "uint256",
          "name": "",
          "type": "uint256"
        }
      ],
      "name": "product",
      "outputs": [
        {
          "internalType": "address",
          "name": "buyer",
          "type": "address"
        },
        {
          "internalType": "address",
          "name": "seller",
          "type": "address"
        },
        {
          "internalType": "uint256",
          "name": "id",
          "type": "uint256"
        },
        {
          "internalType": "uint256",
          "name": "price",
          "type": "uint256"
        },
        {
          "internalType": "uint256",
          "name": "rating",
          "type": "uint256"
        },
        {
          "internalType": "string",
          "name": "name",
          "type": "string"
        },
        {
          "internalType": "string",
          "name": "description",
          "type": "string"
        },
        {
          "internalType": "string",
          "name": "category",
          "type": "string"
        },
        {
          "internalType": "string",
          "name": "imgUrl",
          "type": "string"
        }
      ],
      "stateMutability": "view",
      "type": "function"
    },
    {
      "inputs": [
        {
          "internalType": "uint256",
          "name": "",
          "type": "uint256"
        }
      ],
      "name": "products",
      "outputs": [
        {
          "internalType": "address",
          "name": "buyer",
          "type": "address"
        },
        {
          "internalType": "address",
          "name": "seller",
          "type": "address"
        },
        {
          "internalType": "uint256",
          "name": "id",
          "type": "uint256"
        },
        {
          "internalType": "uint256",
          "name": "price",
          "type": "uint256"
        },
        {
          "internalType": "uint256",
          "name": "rating",
          "type": "uint256"
        },
        {
          "internalType": "string",
          "name": "name",
          "type": "string"
        },
        {
          "internalType": "string",
          "name": "description",
          "type": "string"
        },
        {
          "internalType": "string",
          "name": "category",
          "type": "string"
        },
        {
          "internalType": "string",
          "name": "imgUrl",
          "type": "string"
        }
      ],
      "stateMutability": "view",
      "type": "function"
    },
    {
      "inputs": [
        {
          "internalType": "uint256",
          "name": "",
          "type": "uint256"
        }
      ],
      "name": "store",
      "outputs": [
        {
          "internalType": "string",
          "name": "name",
          "type": "string"
        },
        {
          "internalType": "string",
          "name": "description",
          "type": "string"
        },
        {
          "internalType": "uint256",
          "name": "id",
          "type": "uint256"
        },
        {
          "internalType": "address",
          "name": "creator",
          "type": "address"
        },
        {
          "internalType": "string",
          "name": "imageUrl",
          "type": "string"
        },
        {
          "internalType": "string",
          "name": "coverImage",
          "type": "string"
        }
      ],
      "stateMutability": "view",
      "type": "function"
    },
    {
      "inputs": [
        {
          "internalType": "uint256",
          "name": "",
          "type": "uint256"
        }
      ],
      "name": "stores",
      "outputs": [
        {
          "internalType": "string",
          "name": "name",
          "type": "string"
        },
        {
          "internalType": "string",
          "name": "description",
          "type": "string"
        },
        {
          "internalType": "uint256",
          "name": "id",
          "type": "uint256"
        },
        {
          "internalType": "address",
          "name": "creator",
          "type": "address"
        },
        {
          "internalType": "string",
          "name": "imageUrl",
          "type": "string"
        },
        {
          "internalType": "string",
          "name": "coverImage",
          "type": "string"
        }
      ],
      "stateMutability": "view",
      "type": "function"
    }
  ],
  "bytecode": "0x608060405234801561001057600080fd5b5060001515600260149054906101000a905050506149df806100336000396000f3fe6080604052600436106101095760003560e01c8063780bd3f111610095578063ce43c03211610064578063ce43c032146103be578063d055a75f146103fb578063d121716014610426578063e8a59cd814610451578063ebe6ac421461049357610109565b8063780bd3f1146102e05780637acc0b201461032557806390de61141461036a578063af857e441461039557610109565b8063508b019e116100dc578063508b019e146101dc578063578dc2d1146102195780636057361d146102575780636592f99a146102995780636e7ea446146102c457610109565b806310d91cff1461010e578063133f50f51461014b578063298daf5b146101885780633ffd81fb146101b1575b600080fd5b34801561011a57600080fd5b50610135600480360381019061013091906135ab565b6104d0565b604051610142919061382c565b60405180910390f35b34801561015757600080fd5b50610172600480360381019061016d91906135ab565b61090e565b60405161017f9190613869565b60405180910390f35b34801561019457600080fd5b506101af60048036038101906101aa91906138e9565b610968565b005b3480156101bd57600080fd5b506101c6610b4c565b6040516101d39190613945565b60405180910390f35b3480156101e857600080fd5b5061020360048036038101906101fe9190613a90565b610b55565b6040516102109190613869565b60405180910390f35b34801561022557600080fd5b50610240600480360381019061023b91906135ab565b610e97565b60405161024e929190613ccf565b60405180910390f35b34801561026357600080fd5b5061027e60048036038101906102799190613d32565b6116c1565b60405161029096959493929190613db8565b60405180910390f35b3480156102a557600080fd5b506102ae61194d565b6040516102bb9190613e35565b60405180910390f35b6102de60048036038101906102d99190613d32565b611c54565b005b3480156102ec57600080fd5b5061030760048036038101906103029190613d32565b611ee5565b60405161031c99989796959493929190613e57565b60405180910390f35b34801561033157600080fd5b5061034c60048036038101906103479190613d32565b612193565b60405161036199989796959493929190613e57565b60405180910390f35b34801561037657600080fd5b5061037f612451565b60405161038c9190613869565b60405180910390f35b3480156103a157600080fd5b506103bc60048036038101906103b79190613f00565b612468565b005b3480156103ca57600080fd5b506103e560048036038101906103e091906135ab565b61296f565b6040516103f29190614012565b60405180910390f35b34801561040757600080fd5b50610410612a8b565b60405161041d919061382c565b60405180910390f35b34801561043257600080fd5b5061043b612dfd565b6040516104489190613945565b60405180910390f35b34801561045d57600080fd5b5061047860048036038101906104739190613d32565b612e07565b60405161048a96959493929190613db8565b60405180910390f35b34801561049f57600080fd5b506104ba60048036038101906104b591906135ab565b613083565b6040516104c79190613e35565b60405180910390f35b60606000805467ffffffffffffffff8111156104ef576104ee613965565b5b60405190808252806020026020018201604052801561052857816020015b610515613475565b81526020019060019003908161050d5790505b50905060005b600054811015610904578373ffffffffffffffffffffffffffffffffffffffff166007600083815260200190815260200160002060010160009054906101000a900473ffffffffffffffffffffffffffffffffffffffff1673ffffffffffffffffffffffffffffffffffffffff16036108f15760076000828152602001908152602001600020604051806101200160405290816000820160009054906101000a900473ffffffffffffffffffffffffffffffffffffffff1673ffffffffffffffffffffffffffffffffffffffff1673ffffffffffffffffffffffffffffffffffffffff1681526020016001820160009054906101000a900473ffffffffffffffffffffffffffffffffffffffff1673ffffffffffffffffffffffffffffffffffffffff1673ffffffffffffffffffffffffffffffffffffffff16815260200160028201548152602001600382015481526020016004820154815260200160058201805461069a90614063565b80601f01602080910402602001604051908101604052809291908181526020018280546106c690614063565b80156107135780601f106106e857610100808354040283529160200191610713565b820191906000526020600020905b8154815290600101906020018083116106f657829003601f168201915b5050505050815260200160068201805461072c90614063565b80601f016020809104026020016040519081016040528092919081815260200182805461075890614063565b80156107a55780601f1061077a576101008083540402835291602001916107a5565b820191906000526020600020905b81548152906001019060200180831161078857829003601f168201915b505050505081526020016007820180546107be90614063565b80601f01602080910402602001604051908101604052809291908181526020018280546107ea90614063565b80156108375780601f1061080c57610100808354040283529160200191610837565b820191906000526020600020905b81548152906001019060200180831161081a57829003601f168201915b5050505050815260200160088201805461085090614063565b80601f016020809104026020016040519081016040528092919081815260200182805461087c90614063565b80156108c95780601f1061089e576101008083540402835291602001916108c9565b820191906000526020600020905b8154815290600101906020018083116108ac57829003601f168201915b5050505050815250508282815181106108e5576108e4614094565b5b60200260200101819052505b80806108fc906140f2565b91505061052e565b5080915050919050565b600080600660008473ffffffffffffffffffffffffffffffffffffffff1673ffffffffffffffffffffffffffffffffffffffff168152602001908152602001600020600001805461095e90614063565b9050119050919050565b600015156109753361090e565b1515146109b7576040517f08c379a00000000000000000000000000000000000000000000000000000000081526004016109ae90614186565b60405180910390fd5b600082829050116109fd576040517f08c379a00000000000000000000000000000000000000000000000000000000081526004016109f4906141f2565b60405180910390fd5b8181600660003373ffffffffffffffffffffffffffffffffffffffff1673ffffffffffffffffffffffffffffffffffffffff1681526020019081526020016000206000019182610a4e9291906143c9565b506003604051806040016040528084848080601f016020809104026020016040519081016040528093929190818152602001838380828437600081840152601f19601f8201169050808301925050505050505081526020013373ffffffffffffffffffffffffffffffffffffffff1681525090806001815401808255809150506001900390600052602060002090600202016000909190919091506000820151816000019081610afe9190614499565b5060208201518160010160006101000a81548173ffffffffffffffffffffffffffffffffffffffff021916908373ffffffffffffffffffffffffffffffffffffffff16021790555050505050565b60008054905090565b600060011515610b643361090e565b151514610ba6576040517f08c379a0000000000000000000000000000000000000000000000000000000008152600401610b9d906145b7565b60405180910390fd5b600160058054905010610bee576040517f08c379a0000000000000000000000000000000000000000000000000000000008152600401610be590614623565b60405180910390fd5b60006040518060c0016040528089898080601f016020809104026020016040519081016040528093929190818152602001838380828437600081840152601f19601f82011690508083019250505050505050815260200187878080601f016020809104026020016040519081016040528093929190818152602001838380828437600081840152601f19601f82011690508083019250505050505050815260200160015481526020013373ffffffffffffffffffffffffffffffffffffffff168152602001858152602001848152509050806008600060015481526020019081526020016000206000820151816000019081610cea9190614499565b506020820151816001019081610d009190614499565b506040820151816002015560608201518160030160006101000a81548173ffffffffffffffffffffffffffffffffffffffff021916908373ffffffffffffffffffffffffffffffffffffffff1602179055506080820151816004019081610d679190614499565b5060a0820151816005019081610d7d9190614499565b5090505060016000815480929190610d94906140f2565b919050555060058190806001815401808255809150506001900390600052602060002090600602016000909190919091506000820151816000019081610dda9190614499565b506020820151816001019081610df09190614499565b506040820151816002015560608201518160030160006101000a81548173ffffffffffffffffffffffffffffffffffffffff021916908373ffffffffffffffffffffffffffffffffffffffff1602179055506080820151816004019081610e579190614499565b5060a0820151816005019081610e6d9190614499565b5050506001600260146101000a81548160ff02191690831515021790559150509695505050505050565b6060806000805467ffffffffffffffff811115610eb757610eb6613965565b5b604051908082528060200260200182016040528015610ef057816020015b610edd613475565b815260200190600190039081610ed55790505b50905060005b6000548110156112cc578473ffffffffffffffffffffffffffffffffffffffff166007600083815260200190815260200160002060010160009054906101000a900473ffffffffffffffffffffffffffffffffffffffff1673ffffffffffffffffffffffffffffffffffffffff16036112b95760076000828152602001908152602001600020604051806101200160405290816000820160009054906101000a900473ffffffffffffffffffffffffffffffffffffffff1673ffffffffffffffffffffffffffffffffffffffff1673ffffffffffffffffffffffffffffffffffffffff1681526020016001820160009054906101000a900473ffffffffffffffffffffffffffffffffffffffff1673ffffffffffffffffffffffffffffffffffffffff1673ffffffffffffffffffffffffffffffffffffffff16815260200160028201548152602001600382015481526020016004820154815260200160058201805461106290614063565b80601f016020809104026020016040519081016040528092919081815260200182805461108e90614063565b80156110db5780601f106110b0576101008083540402835291602001916110db565b820191906000526020600020905b8154815290600101906020018083116110be57829003601f168201915b505050505081526020016006820180546110f490614063565b80601f016020809104026020016040519081016040528092919081815260200182805461112090614063565b801561116d5780601f106111425761010080835404028352916020019161116d565b820191906000526020600020905b81548152906001019060200180831161115057829003601f168201915b5050505050815260200160078201805461118690614063565b80601f01602080910402602001604051908101604052809291908181526020018280546111b290614063565b80156111ff5780601f106111d4576101008083540402835291602001916111ff565b820191906000526020600020905b8154815290600101906020018083116111e257829003601f168201915b5050505050815260200160088201805461121890614063565b80601f016020809104026020016040519081016040528092919081815260200182805461124490614063565b80156112915780601f1061126657610100808354040283529160200191611291565b820191906000526020600020905b81548152906001019060200180831161127457829003601f168201915b5050505050815250508282815181106112ad576112ac614094565b5b60200260200101819052505b80806112c4906140f2565b915050610ef6565b50600060015467ffffffffffffffff8111156112eb576112ea613965565b5b60405190808252806020026020018201604052801561132457816020015b6113116134ed565b8152602001906001900390816113095790505b50905060005b6001548110156116b3578573ffffffffffffffffffffffffffffffffffffffff166005828154811061135f5761135e614094565b5b906000526020600020906006020160030160009054906101000a900473ffffffffffffffffffffffffffffffffffffffff1673ffffffffffffffffffffffffffffffffffffffff16036116a057600581815481106113c0576113bf614094565b5b90600052602060002090600602016040518060c00160405290816000820180546113e990614063565b80601f016020809104026020016040519081016040528092919081815260200182805461141590614063565b80156114625780601f1061143757610100808354040283529160200191611462565b820191906000526020600020905b81548152906001019060200180831161144557829003601f168201915b5050505050815260200160018201805461147b90614063565b80601f01602080910402602001604051908101604052809291908181526020018280546114a790614063565b80156114f45780601f106114c9576101008083540402835291602001916114f4565b820191906000526020600020905b8154815290600101906020018083116114d757829003601f168201915b50505050508152602001600282015481526020016003820160009054906101000a900473ffffffffffffffffffffffffffffffffffffffff1673ffffffffffffffffffffffffffffffffffffffff1673ffffffffffffffffffffffffffffffffffffffff16815260200160048201805461156d90614063565b80601f016020809104026020016040519081016040528092919081815260200182805461159990614063565b80156115e65780601f106115bb576101008083540402835291602001916115e6565b820191906000526020600020905b8154815290600101906020018083116115c957829003601f168201915b505050505081526020016005820180546115ff90614063565b80601f016020809104026020016040519081016040528092919081815260200182805461162b90614063565b80156116785780601f1061164d57610100808354040283529160200191611678565b820191906000526020600020905b81548152906001019060200180831161165b57829003601f168201915b50505050508152505082828151811061169457611693614094565b5b60200260200101819052505b80806116ab906140f2565b91505061132a565b508181935093505050915091565b600581815481106116d157600080fd5b90600052602060002090600602016000915090508060000180546116f490614063565b80601f016020809104026020016040519081016040528092919081815260200182805461172090614063565b801561176d5780601f106117425761010080835404028352916020019161176d565b820191906000526020600020905b81548152906001019060200180831161175057829003601f168201915b50505050509080600101805461178290614063565b80601f01602080910402602001604051908101604052809291908181526020018280546117ae90614063565b80156117fb5780601f106117d0576101008083540402835291602001916117fb565b820191906000526020600020905b8154815290600101906020018083116117de57829003601f168201915b5050505050908060020154908060030160009054906101000a900473ffffffffffffffffffffffffffffffffffffffff169080600401805461183c90614063565b80601f016020809104026020016040519081016040528092919081815260200182805461186890614063565b80156118b55780601f1061188a576101008083540402835291602001916118b5565b820191906000526020600020905b81548152906001019060200180831161189857829003601f168201915b5050505050908060050180546118ca90614063565b80601f01602080910402602001604051908101604052809291908181526020018280546118f690614063565b80156119435780601f1061191857610100808354040283529160200191611943565b820191906000526020600020905b81548152906001019060200180831161192657829003601f168201915b5050505050905086565b60606005805480602002602001604051908101604052809291908181526020016000905b82821015611c4b57838290600052602060002090600602016040518060c00160405290816000820180546119a490614063565b80601f01602080910402602001604051908101604052809291908181526020018280546119d090614063565b8015611a1d5780601f106119f257610100808354040283529160200191611a1d565b820191906000526020600020905b815481529060010190602001808311611a0057829003601f168201915b50505050508152602001600182018054611a3690614063565b80601f0160208091040260200160405190810160405280929190818152602001828054611a6290614063565b8015611aaf5780601f10611a8457610100808354040283529160200191611aaf565b820191906000526020600020905b815481529060010190602001808311611a9257829003601f168201915b50505050508152602001600282015481526020016003820160009054906101000a900473ffffffffffffffffffffffffffffffffffffffff1673ffffffffffffffffffffffffffffffffffffffff1673ffffffffffffffffffffffffffffffffffffffff168152602001600482018054611b2890614063565b80601f0160208091040260200160405190810160405280929190818152602001828054611b5490614063565b8015611ba15780601f10611b7657610100808354040283529160200191611ba1565b820191906000526020600020905b815481529060010190602001808311611b8457829003601f168201915b50505050508152602001600582018054611bba90614063565b80601f0160208091040260200160405190810160405280929190818152602001828054611be690614063565b8015611c335780601f10611c0857610100808354040283529160200191611c33565b820191906000526020600020905b815481529060010190602001808311611c1657829003601f168201915b50505050508152505081526020019060010190611971565b50505050905090565b600060076000838152602001908152602001600020905080600301543414611cb1576040517f08c379a0000000000000000000000000000000000000000000000000000000008152600401611ca8906146b5565b60405180910390fd5b600073ffffffffffffffffffffffffffffffffffffffff168160010160009054906101000a900473ffffffffffffffffffffffffffffffffffffffff1673ffffffffffffffffffffffffffffffffffffffff1603611d0e57600080fd5b600073ffffffffffffffffffffffffffffffffffffffff168160000160009054906101000a900473ffffffffffffffffffffffffffffffffffffffff1673ffffffffffffffffffffffffffffffffffffffff1614611da1576040517f08c379a0000000000000000000000000000000000000000000000000000000008152600401611d9890614721565b60405180910390fd5b8060010160009054906101000a900473ffffffffffffffffffffffffffffffffffffffff1673ffffffffffffffffffffffffffffffffffffffff163373ffffffffffffffffffffffffffffffffffffffff1603611e33576040517f08c379a0000000000000000000000000000000000000000000000000000000008152600401611e2a906147b3565b60405180910390fd5b338160000160006101000a81548173ffffffffffffffffffffffffffffffffffffffff021916908373ffffffffffffffffffffffffffffffffffffffff1602179055508060010160009054906101000a900473ffffffffffffffffffffffffffffffffffffffff1673ffffffffffffffffffffffffffffffffffffffff166108fc349081150290604051600060405180830381858888f19350505050158015611ee0573d6000803e3d6000fd5b505050565b60076020528060005260406000206000915090508060000160009054906101000a900473ffffffffffffffffffffffffffffffffffffffff16908060010160009054906101000a900473ffffffffffffffffffffffffffffffffffffffff1690806002015490806003015490806004015490806005018054611f6690614063565b80601f0160208091040260200160405190810160405280929190818152602001828054611f9290614063565b8015611fdf5780601f10611fb457610100808354040283529160200191611fdf565b820191906000526020600020905b815481529060010190602001808311611fc257829003601f168201915b505050505090806006018054611ff490614063565b80601f016020809104026020016040519081016040528092919081815260200182805461202090614063565b801561206d5780601f106120425761010080835404028352916020019161206d565b820191906000526020600020905b81548152906001019060200180831161205057829003601f168201915b50505050509080600701805461208290614063565b80601f01602080910402602001604051908101604052809291908181526020018280546120ae90614063565b80156120fb5780601f106120d0576101008083540402835291602001916120fb565b820191906000526020600020905b8154815290600101906020018083116120de57829003601f168201915b50505050509080600801805461211090614063565b80601f016020809104026020016040519081016040528092919081815260200182805461213c90614063565b80156121895780601f1061215e57610100808354040283529160200191612189565b820191906000526020600020905b81548152906001019060200180831161216c57829003601f168201915b5050505050905089565b600481815481106121a357600080fd5b90600052602060002090600902016000915090508060000160009054906101000a900473ffffffffffffffffffffffffffffffffffffffff16908060010160009054906101000a900473ffffffffffffffffffffffffffffffffffffffff169080600201549080600301549080600401549080600501805461222490614063565b80601f016020809104026020016040519081016040528092919081815260200182805461225090614063565b801561229d5780601f106122725761010080835404028352916020019161229d565b820191906000526020600020905b81548152906001019060200180831161228057829003601f168201915b5050505050908060060180546122b290614063565b80601f01602080910402602001604051908101604052809291908181526020018280546122de90614063565b801561232b5780601f106123005761010080835404028352916020019161232b565b820191906000526020600020905b81548152906001019060200180831161230e57829003601f168201915b50505050509080600701805461234090614063565b80601f016020809104026020016040519081016040528092919081815260200182805461236c90614063565b80156123b95780601f1061238e576101008083540402835291602001916123b9565b820191906000526020600020905b81548152906001019060200180831161239c57829003601f168201915b5050505050908060080180546123ce90614063565b80601f01602080910402602001604051908101604052809291908181526020018280546123fa90614063565b80156124475780601f1061241c57610100808354040283529160200191612447565b820191906000526020600020905b81548152906001019060200180831161242a57829003601f168201915b5050505050905089565b6000600260149054906101000a900460ff16905090565b600115156124753361090e565b1515146124b7576040517f08c379a00000000000000000000000000000000000000000000000000000000081526004016124ae9061481f565b60405180910390fd5b60011515600260149054906101000a900460ff1615151461250d576040517f08c379a0000000000000000000000000000000000000000000000000000000008152600401612504906148b1565b60405180910390fd5b6000845111612551576040517f08c379a0000000000000000000000000000000000000000000000000000000008152600401612548906141f2565b60405180910390fd5b6000835111612595576040517f08c379a000000000000000000000000000000000000000000000000000000000815260040161258c906141f2565b60405180910390fd5b60008151116125d9576040517f08c379a00000000000000000000000000000000000000000000000000000000081526004016125d0906141f2565b60405180910390fd5b8673ffffffffffffffffffffffffffffffffffffffff163373ffffffffffffffffffffffffffffffffffffffff1614612647576040517f08c379a000000000000000000000000000000000000000000000000000000000815260040161263e9061491d565b60405180910390fd5b600082511161268b576040517f08c379a0000000000000000000000000000000000000000000000000000000008152600401612682906141f2565b60405180910390fd5b6000604051806101200160405280600073ffffffffffffffffffffffffffffffffffffffff1681526020013373ffffffffffffffffffffffffffffffffffffffff168152602001600054815260200188815260200187815260200186815260200185815260200184815260200183815250905080600760008054815260200190815260200160002060008201518160000160006101000a81548173ffffffffffffffffffffffffffffffffffffffff021916908373ffffffffffffffffffffffffffffffffffffffff16021790555060208201518160010160006101000a81548173ffffffffffffffffffffffffffffffffffffffff021916908373ffffffffffffffffffffffffffffffffffffffff16021790555060408201518160020155606082015181600301556080820151816004015560a08201518160050190816127d49190614499565b5060c08201518160060190816127ea9190614499565b5060e08201518160070190816128009190614499565b506101008201518160080190816128179190614499565b5090505060008081548092919061282d906140f2565b9190505550600481908060018154018082558091505060019003906000526020600020906009020160009091909190915060008201518160000160006101000a81548173ffffffffffffffffffffffffffffffffffffffff021916908373ffffffffffffffffffffffffffffffffffffffff16021790555060208201518160010160006101000a81548173ffffffffffffffffffffffffffffffffffffffff021916908373ffffffffffffffffffffffffffffffffffffffff16021790555060408201518160020155606082015181600301556080820151816004015560a082015181600501908161291f9190614499565b5060c08201518160060190816129359190614499565b5060e082015181600701908161294b9190614499565b506101008201518160080190816129629190614499565b5050505050505050505050565b606061297a8261090e565b6129b9576040517f08c379a00000000000000000000000000000000000000000000000000000000081526004016129b090614989565b60405180910390fd5b600660008373ffffffffffffffffffffffffffffffffffffffff1673ffffffffffffffffffffffffffffffffffffffff1681526020019081526020016000206000018054612a0690614063565b80601f0160208091040260200160405190810160405280929190818152602001828054612a3290614063565b8015612a7f5780601f10612a5457610100808354040283529160200191612a7f565b820191906000526020600020905b815481529060010190602001808311612a6257829003601f168201915b50505050509050919050565b60606004805480602002602001604051908101604052809291908181526020016000905b82821015612df45783829060005260206000209060090201604051806101200160405290816000820160009054906101000a900473ffffffffffffffffffffffffffffffffffffffff1673ffffffffffffffffffffffffffffffffffffffff1673ffffffffffffffffffffffffffffffffffffffff1681526020016001820160009054906101000a900473ffffffffffffffffffffffffffffffffffffffff1673ffffffffffffffffffffffffffffffffffffffff1673ffffffffffffffffffffffffffffffffffffffff168152602001600282015481526020016003820154815260200160048201548152602001600582018054612bad90614063565b80601f0160208091040260200160405190810160405280929190818152602001828054612bd990614063565b8015612c265780601f10612bfb57610100808354040283529160200191612c26565b820191906000526020600020905b815481529060010190602001808311612c0957829003601f168201915b50505050508152602001600682018054612c3f90614063565b80601f0160208091040260200160405190810160405280929190818152602001828054612c6b90614063565b8015612cb85780601f10612c8d57610100808354040283529160200191612cb8565b820191906000526020600020905b815481529060010190602001808311612c9b57829003601f168201915b50505050508152602001600782018054612cd190614063565b80601f0160208091040260200160405190810160405280929190818152602001828054612cfd90614063565b8015612d4a5780601f10612d1f57610100808354040283529160200191612d4a565b820191906000526020600020905b815481529060010190602001808311612d2d57829003601f168201915b50505050508152602001600882018054612d6390614063565b80601f0160208091040260200160405190810160405280929190818152602001828054612d8f90614063565b8015612ddc5780601f10612db157610100808354040283529160200191612ddc565b820191906000526020600020905b815481529060010190602001808311612dbf57829003601f168201915b50505050508152505081526020019060010190612aaf565b50505050905090565b6000600154905090565b6008602052806000526040600020600091509050806000018054612e2a90614063565b80601f0160208091040260200160405190810160405280929190818152602001828054612e5690614063565b8015612ea35780601f10612e7857610100808354040283529160200191612ea3565b820191906000526020600020905b815481529060010190602001808311612e8657829003601f168201915b505050505090806001018054612eb890614063565b80601f0160208091040260200160405190810160405280929190818152602001828054612ee490614063565b8015612f315780601f10612f0657610100808354040283529160200191612f31565b820191906000526020600020905b815481529060010190602001808311612f1457829003601f168201915b5050505050908060020154908060030160009054906101000a900473ffffffffffffffffffffffffffffffffffffffff1690806004018054612f7290614063565b80601f0160208091040260200160405190810160405280929190818152602001828054612f9e90614063565b8015612feb5780601f10612fc057610100808354040283529160200191612feb565b820191906000526020600020905b815481529060010190602001808311612fce57829003601f168201915b50505050509080600501805461300090614063565b80601f016020809104026020016040519081016040528092919081815260200182805461302c90614063565b80156130795780601f1061304e57610100808354040283529160200191613079565b820191906000526020600020905b81548152906001019060200180831161305c57829003601f168201915b5050505050905086565b6060600060015467ffffffffffffffff8111156130a3576130a2613965565b5b6040519080825280602002602001820160405280156130dc57816020015b6130c96134ed565b8152602001906001900390816130c15790505b50905060005b60015481101561346b578373ffffffffffffffffffffffffffffffffffffffff166005828154811061311757613116614094565b5b906000526020600020906006020160030160009054906101000a900473ffffffffffffffffffffffffffffffffffffffff1673ffffffffffffffffffffffffffffffffffffffff1603613458576005818154811061317857613177614094565b5b90600052602060002090600602016040518060c00160405290816000820180546131a190614063565b80601f01602080910402602001604051908101604052809291908181526020018280546131cd90614063565b801561321a5780601f106131ef5761010080835404028352916020019161321a565b820191906000526020600020905b8154815290600101906020018083116131fd57829003601f168201915b5050505050815260200160018201805461323390614063565b80601f016020809104026020016040519081016040528092919081815260200182805461325f90614063565b80156132ac5780601f10613281576101008083540402835291602001916132ac565b820191906000526020600020905b81548152906001019060200180831161328f57829003601f168201915b50505050508152602001600282015481526020016003820160009054906101000a900473ffffffffffffffffffffffffffffffffffffffff1673ffffffffffffffffffffffffffffffffffffffff1673ffffffffffffffffffffffffffffffffffffffff16815260200160048201805461332590614063565b80601f016020809104026020016040519081016040528092919081815260200182805461335190614063565b801561339e5780601f106133735761010080835404028352916020019161339e565b820191906000526020600020905b81548152906001019060200180831161338157829003601f168201915b505050505081526020016005820180546133b790614063565b80601f01602080910402602001604051908101604052809291908181526020018280546133e390614063565b80156134305780601f1061340557610100808354040283529160200191613430565b820191906000526020600020905b81548152906001019060200180831161341357829003601f168201915b50505050508152505082828151811061344c5761344b614094565b5b60200260200101819052505b8080613463906140f2565b9150506130e2565b5080915050919050565b604051806101200160405280600073ffffffffffffffffffffffffffffffffffffffff168152602001600073ffffffffffffffffffffffffffffffffffffffff168152602001600081526020016000815260200160008152602001606081526020016060815260200160608152602001606081525090565b6040518060c00160405280606081526020016060815260200160008152602001600073ffffffffffffffffffffffffffffffffffffffff16815260200160608152602001606081525090565b6000604051905090565b600080fd5b600080fd5b600073ffffffffffffffffffffffffffffffffffffffff82169050919050565b60006135788261354d565b9050919050565b6135888161356d565b811461359357600080fd5b50565b6000813590506135a58161357f565b92915050565b6000602082840312156135c1576135c0613543565b5b60006135cf84828501613596565b91505092915050565b600081519050919050565b600082825260208201905092915050565b6000819050602082019050919050565b61360d8161356d565b82525050565b6000819050919050565b61362681613613565b82525050565b600081519050919050565b600082825260208201905092915050565b60005b8381101561366657808201518184015260208101905061364b565b60008484015250505050565b6000601f19601f8301169050919050565b600061368e8261362c565b6136988185613637565b93506136a8818560208601613648565b6136b181613672565b840191505092915050565b6000610120830160008301516136d56000860182613604565b5060208301516136e86020860182613604565b5060408301516136fb604086018261361d565b50606083015161370e606086018261361d565b506080830151613721608086018261361d565b5060a083015184820360a08601526137398282613683565b91505060c083015184820360c08601526137538282613683565b91505060e083015184820360e086015261376d8282613683565b9150506101008301518482036101008601526137898282613683565b9150508091505092915050565b60006137a283836136bc565b905092915050565b6000602082019050919050565b60006137c2826135d8565b6137cc81856135e3565b9350836020820285016137de856135f4565b8060005b8581101561381a57848403895281516137fb8582613796565b9450613806836137aa565b925060208a019950506001810190506137e2565b50829750879550505050505092915050565b6000602082019050818103600083015261384681846137b7565b905092915050565b60008115159050919050565b6138638161384e565b82525050565b600060208201905061387e600083018461385a565b92915050565b600080fd5b600080fd5b600080fd5b60008083601f8401126138a9576138a8613884565b5b8235905067ffffffffffffffff8111156138c6576138c5613889565b5b6020830191508360018202830111156138e2576138e161388e565b5b9250929050565b60008060208385031215613900576138ff613543565b5b600083013567ffffffffffffffff81111561391e5761391d613548565b5b61392a85828601613893565b92509250509250929050565b61393f81613613565b82525050565b600060208201905061395a6000830184613936565b92915050565b600080fd5b7f4e487b7100000000000000000000000000000000000000000000000000000000600052604160045260246000fd5b61399d82613672565b810181811067ffffffffffffffff821117156139bc576139bb613965565b5b80604052505050565b60006139cf613539565b90506139db8282613994565b919050565b600067ffffffffffffffff8211156139fb576139fa613965565b5b613a0482613672565b9050602081019050919050565b82818337600083830152505050565b6000613a33613a2e846139e0565b6139c5565b905082815260208101848484011115613a4f57613a4e613960565b5b613a5a848285613a11565b509392505050565b600082601f830112613a7757613a76613884565b5b8135613a87848260208601613a20565b91505092915050565b60008060008060008060808789031215613aad57613aac613543565b5b600087013567ffffffffffffffff811115613acb57613aca613548565b5b613ad789828a01613893565b9650965050602087013567ffffffffffffffff811115613afa57613af9613548565b5b613b0689828a01613893565b9450945050604087013567ffffffffffffffff811115613b2957613b28613548565b5b613b3589828a01613a62565b925050606087013567ffffffffffffffff811115613b5657613b55613548565b5b613b6289828a01613a62565b9150509295509295509295565b600081519050919050565b600082825260208201905092915050565b6000819050602082019050919050565b600060c0830160008301518482036000860152613bb88282613683565b91505060208301518482036020860152613bd28282613683565b9150506040830151613be7604086018261361d565b506060830151613bfa6060860182613604565b5060808301518482036080860152613c128282613683565b91505060a083015184820360a0860152613c2c8282613683565b9150508091505092915050565b6000613c458383613b9b565b905092915050565b6000602082019050919050565b6000613c6582613b6f565b613c6f8185613b7a565b935083602082028501613c8185613b8b565b8060005b85811015613cbd5784840389528151613c9e8582613c39565b9450613ca983613c4d565b925060208a01995050600181019050613c85565b50829750879550505050505092915050565b60006040820190508181036000830152613ce981856137b7565b90508181036020830152613cfd8184613c5a565b90509392505050565b613d0f81613613565b8114613d1a57600080fd5b50565b600081359050613d2c81613d06565b92915050565b600060208284031215613d4857613d47613543565b5b6000613d5684828501613d1d565b91505092915050565b600082825260208201905092915050565b6000613d7b8261362c565b613d858185613d5f565b9350613d95818560208601613648565b613d9e81613672565b840191505092915050565b613db28161356d565b82525050565b600060c0820190508181036000830152613dd28189613d70565b90508181036020830152613de68188613d70565b9050613df56040830187613936565b613e026060830186613da9565b8181036080830152613e148185613d70565b905081810360a0830152613e288184613d70565b9050979650505050505050565b60006020820190508181036000830152613e4f8184613c5a565b905092915050565b600061012082019050613e6d600083018c613da9565b613e7a602083018b613da9565b613e87604083018a613936565b613e946060830189613936565b613ea16080830188613936565b81810360a0830152613eb38187613d70565b905081810360c0830152613ec78186613d70565b905081810360e0830152613edb8185613d70565b9050818103610100830152613ef08184613d70565b90509a9950505050505050505050565b600080600080600080600060e0888a031215613f1f57613f1e613543565b5b6000613f2d8a828b01613596565b9750506020613f3e8a828b01613d1d565b9650506040613f4f8a828b01613d1d565b955050606088013567ffffffffffffffff811115613f7057613f6f613548565b5b613f7c8a828b01613a62565b945050608088013567ffffffffffffffff811115613f9d57613f9c613548565b5b613fa98a828b01613a62565b93505060a088013567ffffffffffffffff811115613fca57613fc9613548565b5b613fd68a828b01613a62565b92505060c088013567ffffffffffffffff811115613ff757613ff6613548565b5b6140038a828b01613a62565b91505092959891949750929550565b6000602082019050818103600083015261402c8184613d70565b905092915050565b7f4e487b7100000000000000000000000000000000000000000000000000000000600052602260045260246000fd5b6000600282049050600182168061407b57607f821691505b60208210810361408e5761408d614034565b5b50919050565b7f4e487b7100000000000000000000000000000000000000000000000000000000600052603260045260246000fd5b7f4e487b7100000000000000000000000000000000000000000000000000000000600052601160045260246000fd5b60006140fd82613613565b91507fffffffffffffffffffffffffffffffffffffffffffffffffffffffffffffffff820361412f5761412e6140c3565b5b600182019050919050565b7f5573657220616c72656164792065786973747300000000000000000000000000600082015250565b6000614170601383613d5f565b915061417b8261413a565b602082019050919050565b6000602082019050818103600083015261419f81614163565b9050919050565b7f557365726e616d652063616e6e6f7420626520656d7074790000000000000000600082015250565b60006141dc601883613d5f565b91506141e7826141a6565b602082019050919050565b6000602082019050818103600083015261420b816141cf565b9050919050565b600082905092915050565b60008190508160005260206000209050919050565b60006020601f8301049050919050565b600082821b905092915050565b60006008830261427f7fffffffffffffffffffffffffffffffffffffffffffffffffffffffffffffffff82614242565b6142898683614242565b95508019841693508086168417925050509392505050565b6000819050919050565b60006142c66142c16142bc84613613565b6142a1565b613613565b9050919050565b6000819050919050565b6142e0836142ab565b6142f46142ec826142cd565b84845461424f565b825550505050565b600090565b6143096142fc565b6143148184846142d7565b505050565b5b818110156143385761432d600082614301565b60018101905061431a565b5050565b601f82111561437d5761434e8161421d565b61435784614232565b81016020851015614366578190505b61437a61437285614232565b830182614319565b50505b505050565b600082821c905092915050565b60006143a060001984600802614382565b1980831691505092915050565b60006143b9838361438f565b9150826002028217905092915050565b6143d38383614212565b67ffffffffffffffff8111156143ec576143eb613965565b5b6143f68254614063565b61440182828561433c565b6000601f831160018114614430576000841561441e578287013590505b61442885826143ad565b865550614490565b601f19841661443e8661421d565b60005b8281101561446657848901358255600182019150602085019450602081019050614441565b86831015614483578489013561447f601f89168261438f565b8355505b6001600288020188555050505b50505050505050565b6144a28261362c565b67ffffffffffffffff8111156144bb576144ba613965565b5b6144c58254614063565b6144d082828561433c565b600060209050601f83116001811461450357600084156144f1578287015190505b6144fb85826143ad565b865550614563565b601f1984166145118661421d565b60005b8281101561453957848901518255600182019150602085019450602081019050614514565b868310156145565784890151614552601f89168261438f565b8355505b6001600288020188555050505b505050505050565b7f4163636f756e7473206e65656420746f20622063726561746564000000000000600082015250565b60006145a1601a83613d5f565b91506145ac8261456b565b602082019050919050565b600060208201905081810360008301526145d081614594565b9050919050565b7f596f752063616e7420637265617465206d756c7469706c652073746f72650000600082015250565b600061460d601e83613d5f565b9150614618826145d7565b602082019050919050565b6000602082019050818103600083015261463c81614600565b9050919050565b7f496e76616c696420616d6f756e742073656e7420666f722070726f647563746960008201527f6400000000000000000000000000000000000000000000000000000000000000602082015250565b600061469f602183613d5f565b91506146aa82614643565b604082019050919050565b600060208201905081810360008301526146ce81614692565b9050919050565b7f4974656d20686173206265656e20626f75676874000000000000000000000000600082015250565b600061470b601483613d5f565b9150614716826146d5565b602082019050919050565b6000602082019050818103600083015261473a816146fe565b9050919050565b7f53656c6c65722063616e6e6f7420627579207468656972206f776e2070726f6460008201527f7563746964000000000000000000000000000000000000000000000000000000602082015250565b600061479d602583613d5f565b91506147a882614741565b604082019050919050565b600060208201905081810360008301526147cc81614790565b9050919050565b7f4163636f756e7473206e65656420746f20626520637265617465640000000000600082015250565b6000614809601b83613d5f565b9150614814826147d3565b602082019050919050565b60006020820190508181036000830152614838816147fc565b9050919050565b7f796f75206e65656420746f206f776e20612073746f726520746f206c6973742060008201527f70726f6475637473000000000000000000000000000000000000000000000000602082015250565b600061489b602883613d5f565b91506148a68261483f565b604082019050919050565b600060208201905081810360008301526148ca8161488e565b9050919050565b7f796f75206e65656420746f20626520612073656c6c6572000000000000000000600082015250565b6000614907601783613d5f565b9150614912826148d1565b602082019050919050565b60006020820190508181036000830152614936816148fa565b9050919050565b7f55736572206973206e6f74207265676973746572656400000000000000000000600082015250565b6000614973601683613d5f565b915061497e8261493d565b602082019050919050565b600060208201905081810360008301526149a281614966565b905091905056fea264697066735822122001c77b1ee78e9d253e2a9c70d965950b6237f21b2048876728b8831a36f4ef3364736f6c63430008110033",
  "linkReferences": {},
  "deployedLinkReferences": {}
}