{
  "_format": "hh-sol-artifact-1",
  "contractName": "MarketPride",
  "sourceName": "contracts/MarketPride.sol",
  "abi": [
    {
      "inputs": [],
      "stateMutability": "nonpayable",
      "type": "constructor"
    },
    {
      "anonymous": false,
      "inputs": [
        {
          "indexed": true,
          "internalType": "address",
          "name": "_from",
          "type": "address"
        },
        {
          "indexed": true,
          "internalType": "address",
          "name": "_to",
          "type": "address"
        },
        {
          "indexed": false,
          "internalType": "uint256",
          "name": "_price",
          "type": "uint256"
        }
      ],
      "name": "payment",
      "type": "event"
    },
    {
      "inputs": [
        {
          "internalType": "address",
          "name": "pubkey",
          "type": "address"
        }
      ],
      "name": "checkUserExists",
      "outputs": [
        {
          "internalType": "bool",
          "name": "",
          "type": "bool"
        }
      ],
      "stateMutability": "view",
      "type": "function"
    },
    {
      "inputs": [
        {
          "internalType": "string",
          "name": "name",
          "type": "string"
        }
      ],
      "name": "createAccount",
      "outputs": [],
      "stateMutability": "nonpayable",
      "type": "function"
    },
    {
      "inputs": [
        {
          "internalType": "string",
          "name": "_name",
          "type": "string"
        },
        {
          "internalType": "string",
          "name": "_desc",
          "type": "string"
        },
        {
          "internalType": "string",
          "name": "_imageUrl",
          "type": "string"
        },
        {
          "internalType": "string",
          "name": "_coverImage",
          "type": "string"
        },
        {
          "internalType": "uint256",
          "name": "_id",
          "type": "uint256"
        }
      ],
      "name": "createStore",
      "outputs": [
        {
          "internalType": "bool",
          "name": "",
          "type": "bool"
        }
      ],
      "stateMutability": "nonpayable",
      "type": "function"
    },
    {
      "inputs": [
        {
          "internalType": "address",
          "name": "_seller",
          "type": "address"
        }
      ],
      "name": "fetchSellerProducts",
      "outputs": [
        {
          "components": [
            {
              "internalType": "address",
              "name": "buyer",
              "type": "address"
            },
            {
              "internalType": "address",
              "name": "seller",
              "type": "address"
            },
            {
              "internalType": "uint256",
              "name": "id",
              "type": "uint256"
            },
            {
              "internalType": "uint256",
              "name": "price",
              "type": "uint256"
            },
            {
              "internalType": "uint256",
              "name": "rating",
              "type": "uint256"
            },
            {
              "internalType": "string",
              "name": "name",
              "type": "string"
            },
            {
              "internalType": "string",
              "name": "description",
              "type": "string"
            },
            {
              "internalType": "string",
              "name": "category",
              "type": "string"
            },
            {
              "internalType": "string",
              "name": "imgUrl",
              "type": "string"
            }
          ],
          "internalType": "struct MarketPride.Product[]",
          "name": "",
          "type": "tuple[]"
        }
      ],
      "stateMutability": "view",
      "type": "function"
    },
    {
      "inputs": [
        {
          "internalType": "address",
          "name": "_creator",
          "type": "address"
        }
      ],
      "name": "fetchSellerStore",
      "outputs": [
        {
          "components": [
            {
              "internalType": "string",
              "name": "name",
              "type": "string"
            },
            {
              "internalType": "string",
              "name": "description",
              "type": "string"
            },
            {
              "internalType": "uint256",
              "name": "id",
              "type": "uint256"
            },
            {
              "internalType": "address",
              "name": "creator",
              "type": "address"
            },
            {
              "internalType": "string",
              "name": "imageUrl",
              "type": "string"
            },
            {
              "internalType": "string",
              "name": "coverImage",
              "type": "string"
            }
          ],
          "internalType": "struct MarketPride.Store[]",
          "name": "",
          "type": "tuple[]"
        }
      ],
      "stateMutability": "view",
      "type": "function"
    },
    {
      "inputs": [],
      "name": "getAllProduct",
      "outputs": [
        {
          "components": [
            {
              "internalType": "address",
              "name": "buyer",
              "type": "address"
            },
            {
              "internalType": "address",
              "name": "seller",
              "type": "address"
            },
            {
              "internalType": "uint256",
              "name": "id",
              "type": "uint256"
            },
            {
              "internalType": "uint256",
              "name": "price",
              "type": "uint256"
            },
            {
              "internalType": "uint256",
              "name": "rating",
              "type": "uint256"
            },
            {
              "internalType": "string",
              "name": "name",
              "type": "string"
            },
            {
              "internalType": "string",
              "name": "description",
              "type": "string"
            },
            {
              "internalType": "string",
              "name": "category",
              "type": "string"
            },
            {
              "internalType": "string",
              "name": "imgUrl",
              "type": "string"
            }
          ],
          "internalType": "struct MarketPride.Product[]",
          "name": "",
          "type": "tuple[]"
        }
      ],
      "stateMutability": "view",
      "type": "function"
    },
    {
      "inputs": [],
      "name": "getAllStore",
      "outputs": [
        {
          "components": [
            {
              "internalType": "string",
              "name": "name",
              "type": "string"
            },
            {
              "internalType": "string",
              "name": "description",
              "type": "string"
            },
            {
              "internalType": "uint256",
              "name": "id",
              "type": "uint256"
            },
            {
              "internalType": "address",
              "name": "creator",
              "type": "address"
            },
            {
              "internalType": "string",
              "name": "imageUrl",
              "type": "string"
            },
            {
              "internalType": "string",
              "name": "coverImage",
              "type": "string"
            }
          ],
          "internalType": "struct MarketPride.Store[]",
          "name": "",
          "type": "tuple[]"
        }
      ],
      "stateMutability": "view",
      "type": "function"
    },
    {
      "inputs": [
        {
          "internalType": "address",
          "name": "_pubkey",
          "type": "address"
        }
      ],
      "name": "getAllUserStoreAndProducts",
      "outputs": [
        {
          "components": [
            {
              "internalType": "address",
              "name": "buyer",
              "type": "address"
            },
            {
              "internalType": "address",
              "name": "seller",
              "type": "address"
            },
            {
              "internalType": "uint256",
              "name": "id",
              "type": "uint256"
            },
            {
              "internalType": "uint256",
              "name": "price",
              "type": "uint256"
            },
            {
              "internalType": "uint256",
              "name": "rating",
              "type": "uint256"
            },
            {
              "internalType": "string",
              "name": "name",
              "type": "string"
            },
            {
              "internalType": "string",
              "name": "description",
              "type": "string"
            },
            {
              "internalType": "string",
              "name": "category",
              "type": "string"
            },
            {
              "internalType": "string",
              "name": "imgUrl",
              "type": "string"
            }
          ],
          "internalType": "struct MarketPride.Product[]",
          "name": "",
          "type": "tuple[]"
        },
        {
          "components": [
            {
              "internalType": "string",
              "name": "name",
              "type": "string"
            },
            {
              "internalType": "string",
              "name": "description",
              "type": "string"
            },
            {
              "internalType": "uint256",
              "name": "id",
              "type": "uint256"
            },
            {
              "internalType": "address",
              "name": "creator",
              "type": "address"
            },
            {
              "internalType": "string",
              "name": "imageUrl",
              "type": "string"
            },
            {
              "internalType": "string",
              "name": "coverImage",
              "type": "string"
            }
          ],
          "internalType": "struct MarketPride.Store[]",
          "name": "",
          "type": "tuple[]"
        }
      ],
      "stateMutability": "view",
      "type": "function"
    },
    {
      "inputs": [],
      "name": "getIfStoreExist",
      "outputs": [
        {
          "internalType": "bool",
          "name": "",
          "type": "bool"
        }
      ],
      "stateMutability": "view",
      "type": "function"
    },
    {
      "inputs": [],
      "name": "getNumberOfProducts",
      "outputs": [
        {
          "internalType": "uint256",
          "name": "",
          "type": "uint256"
        }
      ],
      "stateMutability": "view",
      "type": "function"
    },
    {
      "inputs": [],
      "name": "getNumberOfStore",
      "outputs": [
        {
          "internalType": "uint256",
          "name": "",
          "type": "uint256"
        }
      ],
      "stateMutability": "view",
      "type": "function"
    },
    {
      "inputs": [
        {
          "internalType": "address",
          "name": "pubkey",
          "type": "address"
        }
      ],
      "name": "getUsername",
      "outputs": [
        {
          "internalType": "string",
          "name": "",
          "type": "string"
        }
      ],
      "stateMutability": "view",
      "type": "function"
    },
    {
      "inputs": [
        {
          "internalType": "address",
          "name": "_seller",
          "type": "address"
        },
        {
          "internalType": "uint256",
          "name": "_price",
          "type": "uint256"
        },
        {
          "internalType": "uint256",
          "name": "_rating",
          "type": "uint256"
        },
        {
          "internalType": "string",
          "name": "_name",
          "type": "string"
        },
        {
          "internalType": "string",
          "name": "_description",
          "type": "string"
        },
        {
          "internalType": "string",
          "name": "_category",
          "type": "string"
        },
        {
          "internalType": "string",
          "name": "_imgUrl",
          "type": "string"
        }
      ],
      "name": "listNewProduct",
      "outputs": [],
      "stateMutability": "nonpayable",
      "type": "function"
    },
    {
      "inputs": [
        {
          "internalType": "uint256",
          "name": "_id",
          "type": "uint256"
        }
      ],
      "name": "payForProducts",
      "outputs": [],
      "stateMutability": "payable",
      "type": "function"
    },
    {
      "inputs": [
        {
          "internalType": "uint256",
          "name": "",
          "type": "uint256"
        }
      ],
      "name": "product",
      "outputs": [
        {
          "internalType": "address",
          "name": "buyer",
          "type": "address"
        },
        {
          "internalType": "address",
          "name": "seller",
          "type": "address"
        },
        {
          "internalType": "uint256",
          "name": "id",
          "type": "uint256"
        },
        {
          "internalType": "uint256",
          "name": "price",
          "type": "uint256"
        },
        {
          "internalType": "uint256",
          "name": "rating",
          "type": "uint256"
        },
        {
          "internalType": "string",
          "name": "name",
          "type": "string"
        },
        {
          "internalType": "string",
          "name": "description",
          "type": "string"
        },
        {
          "internalType": "string",
          "name": "category",
          "type": "string"
        },
        {
          "internalType": "string",
          "name": "imgUrl",
          "type": "string"
        }
      ],
      "stateMutability": "view",
      "type": "function"
    },
    {
      "inputs": [
        {
          "internalType": "uint256",
          "name": "",
          "type": "uint256"
        }
      ],
      "name": "products",
      "outputs": [
        {
          "internalType": "address",
          "name": "buyer",
          "type": "address"
        },
        {
          "internalType": "address",
          "name": "seller",
          "type": "address"
        },
        {
          "internalType": "uint256",
          "name": "id",
          "type": "uint256"
        },
        {
          "internalType": "uint256",
          "name": "price",
          "type": "uint256"
        },
        {
          "internalType": "uint256",
          "name": "rating",
          "type": "uint256"
        },
        {
          "internalType": "string",
          "name": "name",
          "type": "string"
        },
        {
          "internalType": "string",
          "name": "description",
          "type": "string"
        },
        {
          "internalType": "string",
          "name": "category",
          "type": "string"
        },
        {
          "internalType": "string",
          "name": "imgUrl",
          "type": "string"
        }
      ],
      "stateMutability": "view",
      "type": "function"
    },
    {
      "inputs": [
        {
          "internalType": "uint256",
          "name": "",
          "type": "uint256"
        }
      ],
      "name": "store",
      "outputs": [
        {
          "internalType": "string",
          "name": "name",
          "type": "string"
        },
        {
          "internalType": "string",
          "name": "description",
          "type": "string"
        },
        {
          "internalType": "uint256",
          "name": "id",
          "type": "uint256"
        },
        {
          "internalType": "address",
          "name": "creator",
          "type": "address"
        },
        {
          "internalType": "string",
          "name": "imageUrl",
          "type": "string"
        },
        {
          "internalType": "string",
          "name": "coverImage",
          "type": "string"
        }
      ],
      "stateMutability": "view",
      "type": "function"
    },
    {
      "inputs": [
        {
          "internalType": "uint256",
          "name": "",
          "type": "uint256"
        }
      ],
      "name": "stores",
      "outputs": [
        {
          "internalType": "string",
          "name": "name",
          "type": "string"
        },
        {
          "internalType": "string",
          "name": "description",
          "type": "string"
        },
        {
          "internalType": "uint256",
          "name": "id",
          "type": "uint256"
        },
        {
          "internalType": "address",
          "name": "creator",
          "type": "address"
        },
        {
          "internalType": "string",
          "name": "imageUrl",
          "type": "string"
        },
        {
          "internalType": "string",
          "name": "coverImage",
          "type": "string"
        }
      ],
      "stateMutability": "view",
      "type": "function"
    }
  ],
  "bytecode": "0x608060405234801561001057600080fd5b5060001515600260149054906101000a905050506149f3806100336000396000f3fe6080604052600436106101095760003560e01c80637acc0b2011610095578063d055a75f11610064578063d055a75f146103be578063d1217160146103e9578063e8a59cd814610414578063ebe6ac4214610456578063f83ec8031461049357610109565b80637acc0b20146102e857806390de61141461032d578063af857e4414610358578063ce43c0321461038157610109565b8063578dc2d1116100dc578063578dc2d1146101dc5780636057361d1461021a5780636592f99a1461025c5780636e7ea44614610287578063780bd3f1146102a357610109565b806310d91cff1461010e578063133f50f51461014b578063298daf5b146101885780633ffd81fb146101b1575b600080fd5b34801561011a57600080fd5b50610135600480360381019061013091906135aa565b6104d0565b604051610142919061382b565b60405180910390f35b34801561015757600080fd5b50610172600480360381019061016d91906135aa565b61090e565b60405161017f9190613868565b60405180910390f35b34801561019457600080fd5b506101af60048036038101906101aa91906138e8565b610968565b005b3480156101bd57600080fd5b506101c6610b4c565b6040516101d39190613944565b60405180910390f35b3480156101e857600080fd5b5061020360048036038101906101fe91906135aa565b610b55565b604051610211929190613abf565b60405180910390f35b34801561022657600080fd5b50610241600480360381019061023c9190613b22565b61137f565b60405161025396959493929190613ba8565b60405180910390f35b34801561026857600080fd5b5061027161160b565b60405161027e9190613c25565b60405180910390f35b6102a1600480360381019061029c9190613b22565b611912565b005b3480156102af57600080fd5b506102ca60048036038101906102c59190613b22565b611ba3565b6040516102df99989796959493929190613c47565b60405180910390f35b3480156102f457600080fd5b5061030f600480360381019061030a9190613b22565b611e51565b60405161032499989796959493929190613c47565b60405180910390f35b34801561033957600080fd5b5061034261210f565b60405161034f9190613868565b60405180910390f35b34801561036457600080fd5b5061037f600480360381019061037a9190613e20565b612126565b005b34801561038d57600080fd5b506103a860048036038101906103a391906135aa565b61262d565b6040516103b59190613f32565b60405180910390f35b3480156103ca57600080fd5b506103d3612749565b6040516103e0919061382b565b60405180910390f35b3480156103f557600080fd5b506103fe612abb565b60405161040b9190613944565b60405180910390f35b34801561042057600080fd5b5061043b60048036038101906104369190613b22565b612ac5565b60405161044d96959493929190613ba8565b60405180910390f35b34801561046257600080fd5b5061047d600480360381019061047891906135aa565b612d41565b60405161048a9190613c25565b60405180910390f35b34801561049f57600080fd5b506104ba60048036038101906104b59190613f54565b613133565b6040516104c79190613868565b60405180910390f35b60606000805467ffffffffffffffff8111156104ef576104ee613cf5565b5b60405190808252806020026020018201604052801561052857816020015b610515613474565b81526020019060019003908161050d5790505b50905060005b600054811015610904578373ffffffffffffffffffffffffffffffffffffffff166007600083815260200190815260200160002060010160009054906101000a900473ffffffffffffffffffffffffffffffffffffffff1673ffffffffffffffffffffffffffffffffffffffff16036108f15760076000828152602001908152602001600020604051806101200160405290816000820160009054906101000a900473ffffffffffffffffffffffffffffffffffffffff1673ffffffffffffffffffffffffffffffffffffffff1673ffffffffffffffffffffffffffffffffffffffff1681526020016001820160009054906101000a900473ffffffffffffffffffffffffffffffffffffffff1673ffffffffffffffffffffffffffffffffffffffff1673ffffffffffffffffffffffffffffffffffffffff16815260200160028201548152602001600382015481526020016004820154815260200160058201805461069a90614077565b80601f01602080910402602001604051908101604052809291908181526020018280546106c690614077565b80156107135780601f106106e857610100808354040283529160200191610713565b820191906000526020600020905b8154815290600101906020018083116106f657829003601f168201915b5050505050815260200160068201805461072c90614077565b80601f016020809104026020016040519081016040528092919081815260200182805461075890614077565b80156107a55780601f1061077a576101008083540402835291602001916107a5565b820191906000526020600020905b81548152906001019060200180831161078857829003601f168201915b505050505081526020016007820180546107be90614077565b80601f01602080910402602001604051908101604052809291908181526020018280546107ea90614077565b80156108375780601f1061080c57610100808354040283529160200191610837565b820191906000526020600020905b81548152906001019060200180831161081a57829003601f168201915b5050505050815260200160088201805461085090614077565b80601f016020809104026020016040519081016040528092919081815260200182805461087c90614077565b80156108c95780601f1061089e576101008083540402835291602001916108c9565b820191906000526020600020905b8154815290600101906020018083116108ac57829003601f168201915b5050505050815250508282815181106108e5576108e46140a8565b5b60200260200101819052505b80806108fc90614106565b91505061052e565b5080915050919050565b600080600660008473ffffffffffffffffffffffffffffffffffffffff1673ffffffffffffffffffffffffffffffffffffffff168152602001908152602001600020600001805461095e90614077565b9050119050919050565b600015156109753361090e565b1515146109b7576040517f08c379a00000000000000000000000000000000000000000000000000000000081526004016109ae9061419a565b60405180910390fd5b600082829050116109fd576040517f08c379a00000000000000000000000000000000000000000000000000000000081526004016109f490614206565b60405180910390fd5b8181600660003373ffffffffffffffffffffffffffffffffffffffff1673ffffffffffffffffffffffffffffffffffffffff1681526020019081526020016000206000019182610a4e9291906143dd565b506003604051806040016040528084848080601f016020809104026020016040519081016040528093929190818152602001838380828437600081840152601f19601f8201169050808301925050505050505081526020013373ffffffffffffffffffffffffffffffffffffffff1681525090806001815401808255809150506001900390600052602060002090600202016000909190919091506000820151816000019081610afe91906144ad565b5060208201518160010160006101000a81548173ffffffffffffffffffffffffffffffffffffffff021916908373ffffffffffffffffffffffffffffffffffffffff16021790555050505050565b60008054905090565b6060806000805467ffffffffffffffff811115610b7557610b74613cf5565b5b604051908082528060200260200182016040528015610bae57816020015b610b9b613474565b815260200190600190039081610b935790505b50905060005b600054811015610f8a578473ffffffffffffffffffffffffffffffffffffffff166007600083815260200190815260200160002060010160009054906101000a900473ffffffffffffffffffffffffffffffffffffffff1673ffffffffffffffffffffffffffffffffffffffff1603610f775760076000828152602001908152602001600020604051806101200160405290816000820160009054906101000a900473ffffffffffffffffffffffffffffffffffffffff1673ffffffffffffffffffffffffffffffffffffffff1673ffffffffffffffffffffffffffffffffffffffff1681526020016001820160009054906101000a900473ffffffffffffffffffffffffffffffffffffffff1673ffffffffffffffffffffffffffffffffffffffff1673ffffffffffffffffffffffffffffffffffffffff168152602001600282015481526020016003820154815260200160048201548152602001600582018054610d2090614077565b80601f0160208091040260200160405190810160405280929190818152602001828054610d4c90614077565b8015610d995780601f10610d6e57610100808354040283529160200191610d99565b820191906000526020600020905b815481529060010190602001808311610d7c57829003601f168201915b50505050508152602001600682018054610db290614077565b80601f0160208091040260200160405190810160405280929190818152602001828054610dde90614077565b8015610e2b5780601f10610e0057610100808354040283529160200191610e2b565b820191906000526020600020905b815481529060010190602001808311610e0e57829003601f168201915b50505050508152602001600782018054610e4490614077565b80601f0160208091040260200160405190810160405280929190818152602001828054610e7090614077565b8015610ebd5780601f10610e9257610100808354040283529160200191610ebd565b820191906000526020600020905b815481529060010190602001808311610ea057829003601f168201915b50505050508152602001600882018054610ed690614077565b80601f0160208091040260200160405190810160405280929190818152602001828054610f0290614077565b8015610f4f5780601f10610f2457610100808354040283529160200191610f4f565b820191906000526020600020905b815481529060010190602001808311610f3257829003601f168201915b505050505081525050828281518110610f6b57610f6a6140a8565b5b60200260200101819052505b8080610f8290614106565b915050610bb4565b50600060015467ffffffffffffffff811115610fa957610fa8613cf5565b5b604051908082528060200260200182016040528015610fe257816020015b610fcf6134ec565b815260200190600190039081610fc75790505b50905060005b600154811015611371578573ffffffffffffffffffffffffffffffffffffffff166005828154811061101d5761101c6140a8565b5b906000526020600020906006020160030160009054906101000a900473ffffffffffffffffffffffffffffffffffffffff1673ffffffffffffffffffffffffffffffffffffffff160361135e576005818154811061107e5761107d6140a8565b5b90600052602060002090600602016040518060c00160405290816000820180546110a790614077565b80601f01602080910402602001604051908101604052809291908181526020018280546110d390614077565b80156111205780601f106110f557610100808354040283529160200191611120565b820191906000526020600020905b81548152906001019060200180831161110357829003601f168201915b5050505050815260200160018201805461113990614077565b80601f016020809104026020016040519081016040528092919081815260200182805461116590614077565b80156111b25780601f10611187576101008083540402835291602001916111b2565b820191906000526020600020905b81548152906001019060200180831161119557829003601f168201915b50505050508152602001600282015481526020016003820160009054906101000a900473ffffffffffffffffffffffffffffffffffffffff1673ffffffffffffffffffffffffffffffffffffffff1673ffffffffffffffffffffffffffffffffffffffff16815260200160048201805461122b90614077565b80601f016020809104026020016040519081016040528092919081815260200182805461125790614077565b80156112a45780601f10611279576101008083540402835291602001916112a4565b820191906000526020600020905b81548152906001019060200180831161128757829003601f168201915b505050505081526020016005820180546112bd90614077565b80601f01602080910402602001604051908101604052809291908181526020018280546112e990614077565b80156113365780601f1061130b57610100808354040283529160200191611336565b820191906000526020600020905b81548152906001019060200180831161131957829003601f168201915b505050505081525050828281518110611352576113516140a8565b5b60200260200101819052505b808061136990614106565b915050610fe8565b508181935093505050915091565b6005818154811061138f57600080fd5b90600052602060002090600602016000915090508060000180546113b290614077565b80601f01602080910402602001604051908101604052809291908181526020018280546113de90614077565b801561142b5780601f106114005761010080835404028352916020019161142b565b820191906000526020600020905b81548152906001019060200180831161140e57829003601f168201915b50505050509080600101805461144090614077565b80601f016020809104026020016040519081016040528092919081815260200182805461146c90614077565b80156114b95780601f1061148e576101008083540402835291602001916114b9565b820191906000526020600020905b81548152906001019060200180831161149c57829003601f168201915b5050505050908060020154908060030160009054906101000a900473ffffffffffffffffffffffffffffffffffffffff16908060040180546114fa90614077565b80601f016020809104026020016040519081016040528092919081815260200182805461152690614077565b80156115735780601f1061154857610100808354040283529160200191611573565b820191906000526020600020905b81548152906001019060200180831161155657829003601f168201915b50505050509080600501805461158890614077565b80601f01602080910402602001604051908101604052809291908181526020018280546115b490614077565b80156116015780601f106115d657610100808354040283529160200191611601565b820191906000526020600020905b8154815290600101906020018083116115e457829003601f168201915b5050505050905086565b60606005805480602002602001604051908101604052809291908181526020016000905b8282101561190957838290600052602060002090600602016040518060c001604052908160008201805461166290614077565b80601f016020809104026020016040519081016040528092919081815260200182805461168e90614077565b80156116db5780601f106116b0576101008083540402835291602001916116db565b820191906000526020600020905b8154815290600101906020018083116116be57829003601f168201915b505050505081526020016001820180546116f490614077565b80601f016020809104026020016040519081016040528092919081815260200182805461172090614077565b801561176d5780601f106117425761010080835404028352916020019161176d565b820191906000526020600020905b81548152906001019060200180831161175057829003601f168201915b50505050508152602001600282015481526020016003820160009054906101000a900473ffffffffffffffffffffffffffffffffffffffff1673ffffffffffffffffffffffffffffffffffffffff1673ffffffffffffffffffffffffffffffffffffffff1681526020016004820180546117e690614077565b80601f016020809104026020016040519081016040528092919081815260200182805461181290614077565b801561185f5780601f106118345761010080835404028352916020019161185f565b820191906000526020600020905b81548152906001019060200180831161184257829003601f168201915b5050505050815260200160058201805461187890614077565b80601f01602080910402602001604051908101604052809291908181526020018280546118a490614077565b80156118f15780601f106118c6576101008083540402835291602001916118f1565b820191906000526020600020905b8154815290600101906020018083116118d457829003601f168201915b5050505050815250508152602001906001019061162f565b50505050905090565b60006007600083815260200190815260200160002090508060030154341461196f576040517f08c379a0000000000000000000000000000000000000000000000000000000008152600401611966906145f1565b60405180910390fd5b600073ffffffffffffffffffffffffffffffffffffffff168160010160009054906101000a900473ffffffffffffffffffffffffffffffffffffffff1673ffffffffffffffffffffffffffffffffffffffff16036119cc57600080fd5b600073ffffffffffffffffffffffffffffffffffffffff168160000160009054906101000a900473ffffffffffffffffffffffffffffffffffffffff1673ffffffffffffffffffffffffffffffffffffffff1614611a5f576040517f08c379a0000000000000000000000000000000000000000000000000000000008152600401611a569061465d565b60405180910390fd5b8060010160009054906101000a900473ffffffffffffffffffffffffffffffffffffffff1673ffffffffffffffffffffffffffffffffffffffff163373ffffffffffffffffffffffffffffffffffffffff1603611af1576040517f08c379a0000000000000000000000000000000000000000000000000000000008152600401611ae8906146ef565b60405180910390fd5b338160000160006101000a81548173ffffffffffffffffffffffffffffffffffffffff021916908373ffffffffffffffffffffffffffffffffffffffff1602179055508060010160009054906101000a900473ffffffffffffffffffffffffffffffffffffffff1673ffffffffffffffffffffffffffffffffffffffff166108fc349081150290604051600060405180830381858888f19350505050158015611b9e573d6000803e3d6000fd5b505050565b60076020528060005260406000206000915090508060000160009054906101000a900473ffffffffffffffffffffffffffffffffffffffff16908060010160009054906101000a900473ffffffffffffffffffffffffffffffffffffffff1690806002015490806003015490806004015490806005018054611c2490614077565b80601f0160208091040260200160405190810160405280929190818152602001828054611c5090614077565b8015611c9d5780601f10611c7257610100808354040283529160200191611c9d565b820191906000526020600020905b815481529060010190602001808311611c8057829003601f168201915b505050505090806006018054611cb290614077565b80601f0160208091040260200160405190810160405280929190818152602001828054611cde90614077565b8015611d2b5780601f10611d0057610100808354040283529160200191611d2b565b820191906000526020600020905b815481529060010190602001808311611d0e57829003601f168201915b505050505090806007018054611d4090614077565b80601f0160208091040260200160405190810160405280929190818152602001828054611d6c90614077565b8015611db95780601f10611d8e57610100808354040283529160200191611db9565b820191906000526020600020905b815481529060010190602001808311611d9c57829003601f168201915b505050505090806008018054611dce90614077565b80601f0160208091040260200160405190810160405280929190818152602001828054611dfa90614077565b8015611e475780601f10611e1c57610100808354040283529160200191611e47565b820191906000526020600020905b815481529060010190602001808311611e2a57829003601f168201915b5050505050905089565b60048181548110611e6157600080fd5b90600052602060002090600902016000915090508060000160009054906101000a900473ffffffffffffffffffffffffffffffffffffffff16908060010160009054906101000a900473ffffffffffffffffffffffffffffffffffffffff1690806002015490806003015490806004015490806005018054611ee290614077565b80601f0160208091040260200160405190810160405280929190818152602001828054611f0e90614077565b8015611f5b5780601f10611f3057610100808354040283529160200191611f5b565b820191906000526020600020905b815481529060010190602001808311611f3e57829003601f168201915b505050505090806006018054611f7090614077565b80601f0160208091040260200160405190810160405280929190818152602001828054611f9c90614077565b8015611fe95780601f10611fbe57610100808354040283529160200191611fe9565b820191906000526020600020905b815481529060010190602001808311611fcc57829003601f168201915b505050505090806007018054611ffe90614077565b80601f016020809104026020016040519081016040528092919081815260200182805461202a90614077565b80156120775780601f1061204c57610100808354040283529160200191612077565b820191906000526020600020905b81548152906001019060200180831161205a57829003601f168201915b50505050509080600801805461208c90614077565b80601f01602080910402602001604051908101604052809291908181526020018280546120b890614077565b80156121055780601f106120da57610100808354040283529160200191612105565b820191906000526020600020905b8154815290600101906020018083116120e857829003601f168201915b5050505050905089565b6000600260149054906101000a900460ff16905090565b600115156121333361090e565b151514612175576040517f08c379a000000000000000000000000000000000000000000000000000000000815260040161216c9061475b565b60405180910390fd5b60011515600260149054906101000a900460ff161515146121cb576040517f08c379a00000000000000000000000000000000000000000000000000000000081526004016121c2906147ed565b60405180910390fd5b600084511161220f576040517f08c379a000000000000000000000000000000000000000000000000000000000815260040161220690614206565b60405180910390fd5b6000835111612253576040517f08c379a000000000000000000000000000000000000000000000000000000000815260040161224a90614206565b60405180910390fd5b6000815111612297576040517f08c379a000000000000000000000000000000000000000000000000000000000815260040161228e90614206565b60405180910390fd5b8673ffffffffffffffffffffffffffffffffffffffff163373ffffffffffffffffffffffffffffffffffffffff1614612305576040517f08c379a00000000000000000000000000000000000000000000000000000000081526004016122fc90614859565b60405180910390fd5b6000825111612349576040517f08c379a000000000000000000000000000000000000000000000000000000000815260040161234090614206565b60405180910390fd5b6000604051806101200160405280600073ffffffffffffffffffffffffffffffffffffffff1681526020013373ffffffffffffffffffffffffffffffffffffffff168152602001600054815260200188815260200187815260200186815260200185815260200184815260200183815250905080600760008054815260200190815260200160002060008201518160000160006101000a81548173ffffffffffffffffffffffffffffffffffffffff021916908373ffffffffffffffffffffffffffffffffffffffff16021790555060208201518160010160006101000a81548173ffffffffffffffffffffffffffffffffffffffff021916908373ffffffffffffffffffffffffffffffffffffffff16021790555060408201518160020155606082015181600301556080820151816004015560a082015181600501908161249291906144ad565b5060c08201518160060190816124a891906144ad565b5060e08201518160070190816124be91906144ad565b506101008201518160080190816124d591906144ad565b509050506000808154809291906124eb90614106565b9190505550600481908060018154018082558091505060019003906000526020600020906009020160009091909190915060008201518160000160006101000a81548173ffffffffffffffffffffffffffffffffffffffff021916908373ffffffffffffffffffffffffffffffffffffffff16021790555060208201518160010160006101000a81548173ffffffffffffffffffffffffffffffffffffffff021916908373ffffffffffffffffffffffffffffffffffffffff16021790555060408201518160020155606082015181600301556080820151816004015560a08201518160050190816125dd91906144ad565b5060c08201518160060190816125f391906144ad565b5060e082015181600701908161260991906144ad565b5061010082015181600801908161262091906144ad565b5050505050505050505050565b60606126388261090e565b612677576040517f08c379a000000000000000000000000000000000000000000000000000000000815260040161266e906148c5565b60405180910390fd5b600660008373ffffffffffffffffffffffffffffffffffffffff1673ffffffffffffffffffffffffffffffffffffffff16815260200190815260200160002060000180546126c490614077565b80601f01602080910402602001604051908101604052809291908181526020018280546126f090614077565b801561273d5780601f106127125761010080835404028352916020019161273d565b820191906000526020600020905b81548152906001019060200180831161272057829003601f168201915b50505050509050919050565b60606004805480602002602001604051908101604052809291908181526020016000905b82821015612ab25783829060005260206000209060090201604051806101200160405290816000820160009054906101000a900473ffffffffffffffffffffffffffffffffffffffff1673ffffffffffffffffffffffffffffffffffffffff1673ffffffffffffffffffffffffffffffffffffffff1681526020016001820160009054906101000a900473ffffffffffffffffffffffffffffffffffffffff1673ffffffffffffffffffffffffffffffffffffffff1673ffffffffffffffffffffffffffffffffffffffff16815260200160028201548152602001600382015481526020016004820154815260200160058201805461286b90614077565b80601f016020809104026020016040519081016040528092919081815260200182805461289790614077565b80156128e45780601f106128b9576101008083540402835291602001916128e4565b820191906000526020600020905b8154815290600101906020018083116128c757829003601f168201915b505050505081526020016006820180546128fd90614077565b80601f016020809104026020016040519081016040528092919081815260200182805461292990614077565b80156129765780601f1061294b57610100808354040283529160200191612976565b820191906000526020600020905b81548152906001019060200180831161295957829003601f168201915b5050505050815260200160078201805461298f90614077565b80601f01602080910402602001604051908101604052809291908181526020018280546129bb90614077565b8015612a085780601f106129dd57610100808354040283529160200191612a08565b820191906000526020600020905b8154815290600101906020018083116129eb57829003601f168201915b50505050508152602001600882018054612a2190614077565b80601f0160208091040260200160405190810160405280929190818152602001828054612a4d90614077565b8015612a9a5780601f10612a6f57610100808354040283529160200191612a9a565b820191906000526020600020905b815481529060010190602001808311612a7d57829003601f168201915b5050505050815250508152602001906001019061276d565b50505050905090565b6000600154905090565b6008602052806000526040600020600091509050806000018054612ae890614077565b80601f0160208091040260200160405190810160405280929190818152602001828054612b1490614077565b8015612b615780601f10612b3657610100808354040283529160200191612b61565b820191906000526020600020905b815481529060010190602001808311612b4457829003601f168201915b505050505090806001018054612b7690614077565b80601f0160208091040260200160405190810160405280929190818152602001828054612ba290614077565b8015612bef5780601f10612bc457610100808354040283529160200191612bef565b820191906000526020600020905b815481529060010190602001808311612bd257829003601f168201915b5050505050908060020154908060030160009054906101000a900473ffffffffffffffffffffffffffffffffffffffff1690806004018054612c3090614077565b80601f0160208091040260200160405190810160405280929190818152602001828054612c5c90614077565b8015612ca95780601f10612c7e57610100808354040283529160200191612ca9565b820191906000526020600020905b815481529060010190602001808311612c8c57829003601f168201915b505050505090806005018054612cbe90614077565b80601f0160208091040260200160405190810160405280929190818152602001828054612cea90614077565b8015612d375780601f10612d0c57610100808354040283529160200191612d37565b820191906000526020600020905b815481529060010190602001808311612d1a57829003601f168201915b5050505050905086565b6060600060015467ffffffffffffffff811115612d6157612d60613cf5565b5b604051908082528060200260200182016040528015612d9a57816020015b612d876134ec565b815260200190600190039081612d7f5790505b50905060005b600154811015613129578373ffffffffffffffffffffffffffffffffffffffff1660058281548110612dd557612dd46140a8565b5b906000526020600020906006020160030160009054906101000a900473ffffffffffffffffffffffffffffffffffffffff1673ffffffffffffffffffffffffffffffffffffffff16036131165760058181548110612e3657612e356140a8565b5b90600052602060002090600602016040518060c0016040529081600082018054612e5f90614077565b80601f0160208091040260200160405190810160405280929190818152602001828054612e8b90614077565b8015612ed85780601f10612ead57610100808354040283529160200191612ed8565b820191906000526020600020905b815481529060010190602001808311612ebb57829003601f168201915b50505050508152602001600182018054612ef190614077565b80601f0160208091040260200160405190810160405280929190818152602001828054612f1d90614077565b8015612f6a5780601f10612f3f57610100808354040283529160200191612f6a565b820191906000526020600020905b815481529060010190602001808311612f4d57829003601f168201915b50505050508152602001600282015481526020016003820160009054906101000a900473ffffffffffffffffffffffffffffffffffffffff1673ffffffffffffffffffffffffffffffffffffffff1673ffffffffffffffffffffffffffffffffffffffff168152602001600482018054612fe390614077565b80601f016020809104026020016040519081016040528092919081815260200182805461300f90614077565b801561305c5780601f106130315761010080835404028352916020019161305c565b820191906000526020600020905b81548152906001019060200180831161303f57829003601f168201915b5050505050815260200160058201805461307590614077565b80601f01602080910402602001604051908101604052809291908181526020018280546130a190614077565b80156130ee5780601f106130c3576101008083540402835291602001916130ee565b820191906000526020600020905b8154815290600101906020018083116130d157829003601f168201915b50505050508152505082828151811061310a576131096140a8565b5b60200260200101819052505b808061312190614106565b915050612da0565b5080915050919050565b6000600115156131423361090e565b151514613184576040517f08c379a000000000000000000000000000000000000000000000000000000000815260040161317b90614931565b60405180910390fd5b6001600580549050106131cc576040517f08c379a00000000000000000000000000000000000000000000000000000000081526004016131c39061499d565b60405180910390fd5b60006040518060c001604052808a8a8080601f016020809104026020016040519081016040528093929190818152602001838380828437600081840152601f19601f82011690508083019250505050505050815260200188888080601f016020809104026020016040519081016040528093929190818152602001838380828437600081840152601f19601f8201169050808301925050505050505081526020018481526020013373ffffffffffffffffffffffffffffffffffffffff1681526020018681526020018581525090508060086000600154815260200190815260200160002060008201518160000190816132c691906144ad565b5060208201518160010190816132dc91906144ad565b506040820151816002015560608201518160030160006101000a81548173ffffffffffffffffffffffffffffffffffffffff021916908373ffffffffffffffffffffffffffffffffffffffff160217905550608082015181600401908161334391906144ad565b5060a082015181600501908161335991906144ad565b509050506001600081548092919061337090614106565b9190505550600581908060018154018082558091505060019003906000526020600020906006020160009091909190915060008201518160000190816133b691906144ad565b5060208201518160010190816133cc91906144ad565b506040820151816002015560608201518160030160006101000a81548173ffffffffffffffffffffffffffffffffffffffff021916908373ffffffffffffffffffffffffffffffffffffffff160217905550608082015181600401908161343391906144ad565b5060a082015181600501908161344991906144ad565b5050506001600260146101000a81548160ff0219169083151502179055915050979650505050505050565b604051806101200160405280600073ffffffffffffffffffffffffffffffffffffffff168152602001600073ffffffffffffffffffffffffffffffffffffffff168152602001600081526020016000815260200160008152602001606081526020016060815260200160608152602001606081525090565b6040518060c00160405280606081526020016060815260200160008152602001600073ffffffffffffffffffffffffffffffffffffffff16815260200160608152602001606081525090565b6000604051905090565b600080fd5b600080fd5b600073ffffffffffffffffffffffffffffffffffffffff82169050919050565b60006135778261354c565b9050919050565b6135878161356c565b811461359257600080fd5b50565b6000813590506135a48161357e565b92915050565b6000602082840312156135c0576135bf613542565b5b60006135ce84828501613595565b91505092915050565b600081519050919050565b600082825260208201905092915050565b6000819050602082019050919050565b61360c8161356c565b82525050565b6000819050919050565b61362581613612565b82525050565b600081519050919050565b600082825260208201905092915050565b60005b8381101561366557808201518184015260208101905061364a565b60008484015250505050565b6000601f19601f8301169050919050565b600061368d8261362b565b6136978185613636565b93506136a7818560208601613647565b6136b081613671565b840191505092915050565b6000610120830160008301516136d46000860182613603565b5060208301516136e76020860182613603565b5060408301516136fa604086018261361c565b50606083015161370d606086018261361c565b506080830151613720608086018261361c565b5060a083015184820360a08601526137388282613682565b91505060c083015184820360c08601526137528282613682565b91505060e083015184820360e086015261376c8282613682565b9150506101008301518482036101008601526137888282613682565b9150508091505092915050565b60006137a183836136bb565b905092915050565b6000602082019050919050565b60006137c1826135d7565b6137cb81856135e2565b9350836020820285016137dd856135f3565b8060005b8581101561381957848403895281516137fa8582613795565b9450613805836137a9565b925060208a019950506001810190506137e1565b50829750879550505050505092915050565b6000602082019050818103600083015261384581846137b6565b905092915050565b60008115159050919050565b6138628161384d565b82525050565b600060208201905061387d6000830184613859565b92915050565b600080fd5b600080fd5b600080fd5b60008083601f8401126138a8576138a7613883565b5b8235905067ffffffffffffffff8111156138c5576138c4613888565b5b6020830191508360018202830111156138e1576138e061388d565b5b9250929050565b600080602083850312156138ff576138fe613542565b5b600083013567ffffffffffffffff81111561391d5761391c613547565b5b61392985828601613892565b92509250509250929050565b61393e81613612565b82525050565b60006020820190506139596000830184613935565b92915050565b600081519050919050565b600082825260208201905092915050565b6000819050602082019050919050565b600060c08301600083015184820360008601526139a88282613682565b915050602083015184820360208601526139c28282613682565b91505060408301516139d7604086018261361c565b5060608301516139ea6060860182613603565b5060808301518482036080860152613a028282613682565b91505060a083015184820360a0860152613a1c8282613682565b9150508091505092915050565b6000613a35838361398b565b905092915050565b6000602082019050919050565b6000613a558261395f565b613a5f818561396a565b935083602082028501613a718561397b565b8060005b85811015613aad5784840389528151613a8e8582613a29565b9450613a9983613a3d565b925060208a01995050600181019050613a75565b50829750879550505050505092915050565b60006040820190508181036000830152613ad981856137b6565b90508181036020830152613aed8184613a4a565b90509392505050565b613aff81613612565b8114613b0a57600080fd5b50565b600081359050613b1c81613af6565b92915050565b600060208284031215613b3857613b37613542565b5b6000613b4684828501613b0d565b91505092915050565b600082825260208201905092915050565b6000613b6b8261362b565b613b758185613b4f565b9350613b85818560208601613647565b613b8e81613671565b840191505092915050565b613ba28161356c565b82525050565b600060c0820190508181036000830152613bc28189613b60565b90508181036020830152613bd68188613b60565b9050613be56040830187613935565b613bf26060830186613b99565b8181036080830152613c048185613b60565b905081810360a0830152613c188184613b60565b9050979650505050505050565b60006020820190508181036000830152613c3f8184613a4a565b905092915050565b600061012082019050613c5d600083018c613b99565b613c6a602083018b613b99565b613c77604083018a613935565b613c846060830189613935565b613c916080830188613935565b81810360a0830152613ca38187613b60565b905081810360c0830152613cb78186613b60565b905081810360e0830152613ccb8185613b60565b9050818103610100830152613ce08184613b60565b90509a9950505050505050505050565b600080fd5b7f4e487b7100000000000000000000000000000000000000000000000000000000600052604160045260246000fd5b613d2d82613671565b810181811067ffffffffffffffff82111715613d4c57613d4b613cf5565b5b80604052505050565b6000613d5f613538565b9050613d6b8282613d24565b919050565b600067ffffffffffffffff821115613d8b57613d8a613cf5565b5b613d9482613671565b9050602081019050919050565b82818337600083830152505050565b6000613dc3613dbe84613d70565b613d55565b905082815260208101848484011115613ddf57613dde613cf0565b5b613dea848285613da1565b509392505050565b600082601f830112613e0757613e06613883565b5b8135613e17848260208601613db0565b91505092915050565b600080600080600080600060e0888a031215613e3f57613e3e613542565b5b6000613e4d8a828b01613595565b9750506020613e5e8a828b01613b0d565b9650506040613e6f8a828b01613b0d565b955050606088013567ffffffffffffffff811115613e9057613e8f613547565b5b613e9c8a828b01613df2565b945050608088013567ffffffffffffffff811115613ebd57613ebc613547565b5b613ec98a828b01613df2565b93505060a088013567ffffffffffffffff811115613eea57613ee9613547565b5b613ef68a828b01613df2565b92505060c088013567ffffffffffffffff811115613f1757613f16613547565b5b613f238a828b01613df2565b91505092959891949750929550565b60006020820190508181036000830152613f4c8184613b60565b905092915050565b600080600080600080600060a0888a031215613f7357613f72613542565b5b600088013567ffffffffffffffff811115613f9157613f90613547565b5b613f9d8a828b01613892565b9750975050602088013567ffffffffffffffff811115613fc057613fbf613547565b5b613fcc8a828b01613892565b9550955050604088013567ffffffffffffffff811115613fef57613fee613547565b5b613ffb8a828b01613df2565b935050606088013567ffffffffffffffff81111561401c5761401b613547565b5b6140288a828b01613df2565b92505060806140398a828b01613b0d565b91505092959891949750929550565b7f4e487b7100000000000000000000000000000000000000000000000000000000600052602260045260246000fd5b6000600282049050600182168061408f57607f821691505b6020821081036140a2576140a1614048565b5b50919050565b7f4e487b7100000000000000000000000000000000000000000000000000000000600052603260045260246000fd5b7f4e487b7100000000000000000000000000000000000000000000000000000000600052601160045260246000fd5b600061411182613612565b91507fffffffffffffffffffffffffffffffffffffffffffffffffffffffffffffffff8203614143576141426140d7565b5b600182019050919050565b7f5573657220616c72656164792065786973747300000000000000000000000000600082015250565b6000614184601383613b4f565b915061418f8261414e565b602082019050919050565b600060208201905081810360008301526141b381614177565b9050919050565b7f557365726e616d652063616e6e6f7420626520656d7074790000000000000000600082015250565b60006141f0601883613b4f565b91506141fb826141ba565b602082019050919050565b6000602082019050818103600083015261421f816141e3565b9050919050565b600082905092915050565b60008190508160005260206000209050919050565b60006020601f8301049050919050565b600082821b905092915050565b6000600883026142937fffffffffffffffffffffffffffffffffffffffffffffffffffffffffffffffff82614256565b61429d8683614256565b95508019841693508086168417925050509392505050565b6000819050919050565b60006142da6142d56142d084613612565b6142b5565b613612565b9050919050565b6000819050919050565b6142f4836142bf565b614308614300826142e1565b848454614263565b825550505050565b600090565b61431d614310565b6143288184846142eb565b505050565b5b8181101561434c57614341600082614315565b60018101905061432e565b5050565b601f8211156143915761436281614231565b61436b84614246565b8101602085101561437a578190505b61438e61438685614246565b83018261432d565b50505b505050565b600082821c905092915050565b60006143b460001984600802614396565b1980831691505092915050565b60006143cd83836143a3565b9150826002028217905092915050565b6143e78383614226565b67ffffffffffffffff811115614400576143ff613cf5565b5b61440a8254614077565b614415828285614350565b6000601f8311600181146144445760008415614432578287013590505b61443c85826143c1565b8655506144a4565b601f19841661445286614231565b60005b8281101561447a57848901358255600182019150602085019450602081019050614455565b868310156144975784890135614493601f8916826143a3565b8355505b6001600288020188555050505b50505050505050565b6144b68261362b565b67ffffffffffffffff8111156144cf576144ce613cf5565b5b6144d98254614077565b6144e4828285614350565b600060209050601f8311600181146145175760008415614505578287015190505b61450f85826143c1565b865550614577565b601f19841661452586614231565b60005b8281101561454d57848901518255600182019150602085019450602081019050614528565b8683101561456a5784890151614566601f8916826143a3565b8355505b6001600288020188555050505b505050505050565b7f496e76616c696420616d6f756e742073656e7420666f722070726f647563746960008201527f6400000000000000000000000000000000000000000000000000000000000000602082015250565b60006145db602183613b4f565b91506145e68261457f565b604082019050919050565b6000602082019050818103600083015261460a816145ce565b9050919050565b7f4974656d20686173206265656e20626f75676874000000000000000000000000600082015250565b6000614647601483613b4f565b915061465282614611565b602082019050919050565b600060208201905081810360008301526146768161463a565b9050919050565b7f53656c6c65722063616e6e6f7420627579207468656972206f776e2070726f6460008201527f7563746964000000000000000000000000000000000000000000000000000000602082015250565b60006146d9602583613b4f565b91506146e48261467d565b604082019050919050565b60006020820190508181036000830152614708816146cc565b9050919050565b7f4163636f756e7473206e65656420746f20626520637265617465640000000000600082015250565b6000614745601b83613b4f565b91506147508261470f565b602082019050919050565b6000602082019050818103600083015261477481614738565b9050919050565b7f796f75206e65656420746f206f776e20612073746f726520746f206c6973742060008201527f70726f6475637473000000000000000000000000000000000000000000000000602082015250565b60006147d7602883613b4f565b91506147e28261477b565b604082019050919050565b60006020820190508181036000830152614806816147ca565b9050919050565b7f796f75206e65656420746f20626520612073656c6c6572000000000000000000600082015250565b6000614843601783613b4f565b915061484e8261480d565b602082019050919050565b6000602082019050818103600083015261487281614836565b9050919050565b7f55736572206973206e6f74207265676973746572656400000000000000000000600082015250565b60006148af601683613b4f565b91506148ba82614879565b602082019050919050565b600060208201905081810360008301526148de816148a2565b9050919050565b7f4163636f756e7473206e65656420746f20622063726561746564000000000000600082015250565b600061491b601a83613b4f565b9150614926826148e5565b602082019050919050565b6000602082019050818103600083015261494a8161490e565b9050919050565b7f596f752063616e7420637265617465206d756c7469706c652073746f72650000600082015250565b6000614987601e83613b4f565b915061499282614951565b602082019050919050565b600060208201905081810360008301526149b68161497a565b905091905056fea2646970667358221220fc4690ddf45b585921409cf43a225918775e056b8d896f8f5ec45e1d16c71a9e64736f6c63430008110033",
  "linkReferences": {},
  "deployedLinkReferences": {}
}