{
  "_format": "hh-sol-artifact-1",
  "contractName": "MarketPride",
  "sourceName": "contracts/MarketPride.sol",
  "abi": [
    {
      "inputs": [],
      "stateMutability": "nonpayable",
      "type": "constructor"
    },
    {
      "anonymous": false,
      "inputs": [
        {
          "indexed": true,
          "internalType": "address",
          "name": "_from",
          "type": "address"
        },
        {
          "indexed": true,
          "internalType": "address",
          "name": "_to",
          "type": "address"
        },
        {
          "indexed": false,
          "internalType": "uint256",
          "name": "_price",
          "type": "uint256"
        }
      ],
      "name": "payment",
      "type": "event"
    },
    {
      "inputs": [
        {
          "internalType": "address",
          "name": "pubkey",
          "type": "address"
        }
      ],
      "name": "checkUserExists",
      "outputs": [
        {
          "internalType": "bool",
          "name": "",
          "type": "bool"
        }
      ],
      "stateMutability": "view",
      "type": "function"
    },
    {
      "inputs": [
        {
          "internalType": "string",
          "name": "name",
          "type": "string"
        }
      ],
      "name": "createAccount",
      "outputs": [],
      "stateMutability": "nonpayable",
      "type": "function"
    },
    {
      "inputs": [
        {
          "internalType": "string",
          "name": "_name",
          "type": "string"
        },
        {
          "internalType": "string",
          "name": "_desc",
          "type": "string"
        },
        {
          "internalType": "string",
          "name": "_imageUrl",
          "type": "string"
        },
        {
          "internalType": "string",
          "name": "_coverImage",
          "type": "string"
        },
        {
          "internalType": "uint256",
          "name": "_id",
          "type": "uint256"
        }
      ],
      "name": "createStore",
      "outputs": [
        {
          "internalType": "bool",
          "name": "",
          "type": "bool"
        }
      ],
      "stateMutability": "nonpayable",
      "type": "function"
    },
    {
      "inputs": [
        {
          "internalType": "address",
          "name": "_seller",
          "type": "address"
        }
      ],
      "name": "fetchSellerProducts",
      "outputs": [
        {
          "components": [
            {
              "internalType": "address",
              "name": "buyer",
              "type": "address"
            },
            {
              "internalType": "address",
              "name": "seller",
              "type": "address"
            },
            {
              "internalType": "uint256",
              "name": "id",
              "type": "uint256"
            },
            {
              "internalType": "uint256",
              "name": "price",
              "type": "uint256"
            },
            {
              "internalType": "uint256",
              "name": "rating",
              "type": "uint256"
            },
            {
              "internalType": "string",
              "name": "name",
              "type": "string"
            },
            {
              "internalType": "string",
              "name": "description",
              "type": "string"
            },
            {
              "internalType": "string",
              "name": "category",
              "type": "string"
            },
            {
              "internalType": "string",
              "name": "imgUrl",
              "type": "string"
            }
          ],
          "internalType": "struct MarketPride.Product[]",
          "name": "",
          "type": "tuple[]"
        }
      ],
      "stateMutability": "view",
      "type": "function"
    },
    {
      "inputs": [
        {
          "internalType": "address",
          "name": "_creator",
          "type": "address"
        }
      ],
      "name": "fetchSellerStore",
      "outputs": [
        {
          "components": [
            {
              "internalType": "string",
              "name": "name",
              "type": "string"
            },
            {
              "internalType": "string",
              "name": "description",
              "type": "string"
            },
            {
              "internalType": "uint256",
              "name": "id",
              "type": "uint256"
            },
            {
              "internalType": "address",
              "name": "creator",
              "type": "address"
            },
            {
              "internalType": "string",
              "name": "imageUrl",
              "type": "string"
            },
            {
              "internalType": "string",
              "name": "coverImage",
              "type": "string"
            }
          ],
          "internalType": "struct MarketPride.Store[]",
          "name": "",
          "type": "tuple[]"
        }
      ],
      "stateMutability": "view",
      "type": "function"
    },
    {
      "inputs": [],
      "name": "getAllProduct",
      "outputs": [
        {
          "components": [
            {
              "internalType": "address",
              "name": "buyer",
              "type": "address"
            },
            {
              "internalType": "address",
              "name": "seller",
              "type": "address"
            },
            {
              "internalType": "uint256",
              "name": "id",
              "type": "uint256"
            },
            {
              "internalType": "uint256",
              "name": "price",
              "type": "uint256"
            },
            {
              "internalType": "uint256",
              "name": "rating",
              "type": "uint256"
            },
            {
              "internalType": "string",
              "name": "name",
              "type": "string"
            },
            {
              "internalType": "string",
              "name": "description",
              "type": "string"
            },
            {
              "internalType": "string",
              "name": "category",
              "type": "string"
            },
            {
              "internalType": "string",
              "name": "imgUrl",
              "type": "string"
            }
          ],
          "internalType": "struct MarketPride.Product[]",
          "name": "",
          "type": "tuple[]"
        }
      ],
      "stateMutability": "view",
      "type": "function"
    },
    {
      "inputs": [],
      "name": "getAllStore",
      "outputs": [
        {
          "components": [
            {
              "internalType": "string",
              "name": "name",
              "type": "string"
            },
            {
              "internalType": "string",
              "name": "description",
              "type": "string"
            },
            {
              "internalType": "uint256",
              "name": "id",
              "type": "uint256"
            },
            {
              "internalType": "address",
              "name": "creator",
              "type": "address"
            },
            {
              "internalType": "string",
              "name": "imageUrl",
              "type": "string"
            },
            {
              "internalType": "string",
              "name": "coverImage",
              "type": "string"
            }
          ],
          "internalType": "struct MarketPride.Store[]",
          "name": "",
          "type": "tuple[]"
        }
      ],
      "stateMutability": "view",
      "type": "function"
    },
    {
      "inputs": [
        {
          "internalType": "address",
          "name": "_pubkey",
          "type": "address"
        }
      ],
      "name": "getAllUserStoreAndProducts",
      "outputs": [
        {
          "components": [
            {
              "internalType": "address",
              "name": "buyer",
              "type": "address"
            },
            {
              "internalType": "address",
              "name": "seller",
              "type": "address"
            },
            {
              "internalType": "uint256",
              "name": "id",
              "type": "uint256"
            },
            {
              "internalType": "uint256",
              "name": "price",
              "type": "uint256"
            },
            {
              "internalType": "uint256",
              "name": "rating",
              "type": "uint256"
            },
            {
              "internalType": "string",
              "name": "name",
              "type": "string"
            },
            {
              "internalType": "string",
              "name": "description",
              "type": "string"
            },
            {
              "internalType": "string",
              "name": "category",
              "type": "string"
            },
            {
              "internalType": "string",
              "name": "imgUrl",
              "type": "string"
            }
          ],
          "internalType": "struct MarketPride.Product[]",
          "name": "",
          "type": "tuple[]"
        },
        {
          "components": [
            {
              "internalType": "string",
              "name": "name",
              "type": "string"
            },
            {
              "internalType": "string",
              "name": "description",
              "type": "string"
            },
            {
              "internalType": "uint256",
              "name": "id",
              "type": "uint256"
            },
            {
              "internalType": "address",
              "name": "creator",
              "type": "address"
            },
            {
              "internalType": "string",
              "name": "imageUrl",
              "type": "string"
            },
            {
              "internalType": "string",
              "name": "coverImage",
              "type": "string"
            }
          ],
          "internalType": "struct MarketPride.Store[]",
          "name": "",
          "type": "tuple[]"
        }
      ],
      "stateMutability": "view",
      "type": "function"
    },
    {
      "inputs": [],
      "name": "getIfStoreExist",
      "outputs": [
        {
          "internalType": "bool",
          "name": "",
          "type": "bool"
        }
      ],
      "stateMutability": "view",
      "type": "function"
    },
    {
      "inputs": [],
      "name": "getNumberOfProducts",
      "outputs": [
        {
          "internalType": "uint256",
          "name": "",
          "type": "uint256"
        }
      ],
      "stateMutability": "view",
      "type": "function"
    },
    {
      "inputs": [],
      "name": "getNumberOfStore",
      "outputs": [
        {
          "internalType": "uint256",
          "name": "",
          "type": "uint256"
        }
      ],
      "stateMutability": "view",
      "type": "function"
    },
    {
      "inputs": [
        {
          "internalType": "address",
          "name": "pubkey",
          "type": "address"
        }
      ],
      "name": "getUsername",
      "outputs": [
        {
          "internalType": "string",
          "name": "",
          "type": "string"
        }
      ],
      "stateMutability": "view",
      "type": "function"
    },
    {
      "inputs": [
        {
          "internalType": "address",
          "name": "_seller",
          "type": "address"
        },
        {
          "internalType": "uint256",
          "name": "_price",
          "type": "uint256"
        },
        {
          "internalType": "uint256",
          "name": "_rating",
          "type": "uint256"
        },
        {
          "internalType": "string",
          "name": "_name",
          "type": "string"
        },
        {
          "internalType": "string",
          "name": "_description",
          "type": "string"
        },
        {
          "internalType": "string",
          "name": "_category",
          "type": "string"
        },
        {
          "internalType": "string",
          "name": "_imgUrl",
          "type": "string"
        }
      ],
      "name": "listNewProduct",
      "outputs": [],
      "stateMutability": "nonpayable",
      "type": "function"
    },
    {
      "inputs": [
        {
          "internalType": "uint256",
          "name": "_id",
          "type": "uint256"
        }
      ],
      "name": "payForProducts",
      "outputs": [],
      "stateMutability": "payable",
      "type": "function"
    },
    {
      "inputs": [
        {
          "internalType": "uint256",
          "name": "",
          "type": "uint256"
        }
      ],
      "name": "product",
      "outputs": [
        {
          "internalType": "address",
          "name": "buyer",
          "type": "address"
        },
        {
          "internalType": "address",
          "name": "seller",
          "type": "address"
        },
        {
          "internalType": "uint256",
          "name": "id",
          "type": "uint256"
        },
        {
          "internalType": "uint256",
          "name": "price",
          "type": "uint256"
        },
        {
          "internalType": "uint256",
          "name": "rating",
          "type": "uint256"
        },
        {
          "internalType": "string",
          "name": "name",
          "type": "string"
        },
        {
          "internalType": "string",
          "name": "description",
          "type": "string"
        },
        {
          "internalType": "string",
          "name": "category",
          "type": "string"
        },
        {
          "internalType": "string",
          "name": "imgUrl",
          "type": "string"
        }
      ],
      "stateMutability": "view",
      "type": "function"
    },
    {
      "inputs": [
        {
          "internalType": "uint256",
          "name": "",
          "type": "uint256"
        }
      ],
      "name": "products",
      "outputs": [
        {
          "internalType": "address",
          "name": "buyer",
          "type": "address"
        },
        {
          "internalType": "address",
          "name": "seller",
          "type": "address"
        },
        {
          "internalType": "uint256",
          "name": "id",
          "type": "uint256"
        },
        {
          "internalType": "uint256",
          "name": "price",
          "type": "uint256"
        },
        {
          "internalType": "uint256",
          "name": "rating",
          "type": "uint256"
        },
        {
          "internalType": "string",
          "name": "name",
          "type": "string"
        },
        {
          "internalType": "string",
          "name": "description",
          "type": "string"
        },
        {
          "internalType": "string",
          "name": "category",
          "type": "string"
        },
        {
          "internalType": "string",
          "name": "imgUrl",
          "type": "string"
        }
      ],
      "stateMutability": "view",
      "type": "function"
    },
    {
      "inputs": [
        {
          "internalType": "uint256",
          "name": "",
          "type": "uint256"
        }
      ],
      "name": "store",
      "outputs": [
        {
          "internalType": "string",
          "name": "name",
          "type": "string"
        },
        {
          "internalType": "string",
          "name": "description",
          "type": "string"
        },
        {
          "internalType": "uint256",
          "name": "id",
          "type": "uint256"
        },
        {
          "internalType": "address",
          "name": "creator",
          "type": "address"
        },
        {
          "internalType": "string",
          "name": "imageUrl",
          "type": "string"
        },
        {
          "internalType": "string",
          "name": "coverImage",
          "type": "string"
        }
      ],
      "stateMutability": "view",
      "type": "function"
    },
    {
      "inputs": [
        {
          "internalType": "uint256",
          "name": "",
          "type": "uint256"
        }
      ],
      "name": "stores",
      "outputs": [
        {
          "internalType": "string",
          "name": "name",
          "type": "string"
        },
        {
          "internalType": "string",
          "name": "description",
          "type": "string"
        },
        {
          "internalType": "uint256",
          "name": "id",
          "type": "uint256"
        },
        {
          "internalType": "address",
          "name": "creator",
          "type": "address"
        },
        {
          "internalType": "string",
          "name": "imageUrl",
          "type": "string"
        },
        {
          "internalType": "string",
          "name": "coverImage",
          "type": "string"
        }
      ],
      "stateMutability": "view",
      "type": "function"
    }
  ],
  "bytecode": "0x608060405234801561001057600080fd5b5060001515600260149054906101000a90505050614b07806100336000396000f3fe6080604052600436106101095760003560e01c80637acc0b2011610095578063d055a75f11610064578063d055a75f146103be578063d1217160146103e9578063e8a59cd814610414578063ebe6ac4214610456578063f83ec8031461049357610109565b80637acc0b20146102e857806390de61141461032d578063af857e4414610358578063ce43c0321461038157610109565b8063578dc2d1116100dc578063578dc2d1146101dc5780636057361d1461021a5780636592f99a1461025c5780636e7ea44614610287578063780bd3f1146102a357610109565b806310d91cff1461010e578063133f50f51461014b578063298daf5b146101885780633ffd81fb146101b1575b600080fd5b34801561011a57600080fd5b50610135600480360381019061013091906136be565b6104d0565b604051610142919061393f565b60405180910390f35b34801561015757600080fd5b50610172600480360381019061016d91906136be565b61090e565b60405161017f919061397c565b60405180910390f35b34801561019457600080fd5b506101af60048036038101906101aa91906139fc565b610968565b005b3480156101bd57600080fd5b506101c6610b4c565b6040516101d39190613a58565b60405180910390f35b3480156101e857600080fd5b5061020360048036038101906101fe91906136be565b610b55565b604051610211929190613bd3565b60405180910390f35b34801561022657600080fd5b50610241600480360381019061023c9190613c36565b61137f565b60405161025396959493929190613cbc565b60405180910390f35b34801561026857600080fd5b5061027161160b565b60405161027e9190613d39565b60405180910390f35b6102a1600480360381019061029c9190613c36565b611912565b005b3480156102af57600080fd5b506102ca60048036038101906102c59190613c36565b611ba3565b6040516102df99989796959493929190613d5b565b60405180910390f35b3480156102f457600080fd5b5061030f600480360381019061030a9190613c36565b611e51565b60405161032499989796959493929190613d5b565b60405180910390f35b34801561033957600080fd5b5061034261210f565b60405161034f919061397c565b60405180910390f35b34801561036457600080fd5b5061037f600480360381019061037a9190613f34565b612126565b005b34801561038d57600080fd5b506103a860048036038101906103a391906136be565b61262d565b6040516103b59190614046565b60405180910390f35b3480156103ca57600080fd5b506103d3612749565b6040516103e0919061393f565b60405180910390f35b3480156103f557600080fd5b506103fe612abb565b60405161040b9190613a58565b60405180910390f35b34801561042057600080fd5b5061043b60048036038101906104369190613c36565b612ac5565b60405161044d96959493929190613cbc565b60405180910390f35b34801561046257600080fd5b5061047d600480360381019061047891906136be565b612d41565b60405161048a9190613d39565b60405180910390f35b34801561049f57600080fd5b506104ba60048036038101906104b59190614068565b613133565b6040516104c7919061397c565b60405180910390f35b60606000805467ffffffffffffffff8111156104ef576104ee613e09565b5b60405190808252806020026020018201604052801561052857816020015b610515613588565b81526020019060019003908161050d5790505b50905060005b600054811015610904578373ffffffffffffffffffffffffffffffffffffffff166007600083815260200190815260200160002060010160009054906101000a900473ffffffffffffffffffffffffffffffffffffffff1673ffffffffffffffffffffffffffffffffffffffff16036108f15760076000828152602001908152602001600020604051806101200160405290816000820160009054906101000a900473ffffffffffffffffffffffffffffffffffffffff1673ffffffffffffffffffffffffffffffffffffffff1673ffffffffffffffffffffffffffffffffffffffff1681526020016001820160009054906101000a900473ffffffffffffffffffffffffffffffffffffffff1673ffffffffffffffffffffffffffffffffffffffff1673ffffffffffffffffffffffffffffffffffffffff16815260200160028201548152602001600382015481526020016004820154815260200160058201805461069a9061418b565b80601f01602080910402602001604051908101604052809291908181526020018280546106c69061418b565b80156107135780601f106106e857610100808354040283529160200191610713565b820191906000526020600020905b8154815290600101906020018083116106f657829003601f168201915b5050505050815260200160068201805461072c9061418b565b80601f01602080910402602001604051908101604052809291908181526020018280546107589061418b565b80156107a55780601f1061077a576101008083540402835291602001916107a5565b820191906000526020600020905b81548152906001019060200180831161078857829003601f168201915b505050505081526020016007820180546107be9061418b565b80601f01602080910402602001604051908101604052809291908181526020018280546107ea9061418b565b80156108375780601f1061080c57610100808354040283529160200191610837565b820191906000526020600020905b81548152906001019060200180831161081a57829003601f168201915b505050505081526020016008820180546108509061418b565b80601f016020809104026020016040519081016040528092919081815260200182805461087c9061418b565b80156108c95780601f1061089e576101008083540402835291602001916108c9565b820191906000526020600020905b8154815290600101906020018083116108ac57829003601f168201915b5050505050815250508282815181106108e5576108e46141bc565b5b60200260200101819052505b80806108fc9061421a565b91505061052e565b5080915050919050565b600080600660008473ffffffffffffffffffffffffffffffffffffffff1673ffffffffffffffffffffffffffffffffffffffff168152602001908152602001600020600001805461095e9061418b565b9050119050919050565b600015156109753361090e565b1515146109b7576040517f08c379a00000000000000000000000000000000000000000000000000000000081526004016109ae906142ae565b60405180910390fd5b600082829050116109fd576040517f08c379a00000000000000000000000000000000000000000000000000000000081526004016109f49061431a565b60405180910390fd5b8181600660003373ffffffffffffffffffffffffffffffffffffffff1673ffffffffffffffffffffffffffffffffffffffff1681526020019081526020016000206000019182610a4e9291906144f1565b506003604051806040016040528084848080601f016020809104026020016040519081016040528093929190818152602001838380828437600081840152601f19601f8201169050808301925050505050505081526020013373ffffffffffffffffffffffffffffffffffffffff1681525090806001815401808255809150506001900390600052602060002090600202016000909190919091506000820151816000019081610afe91906145c1565b5060208201518160010160006101000a81548173ffffffffffffffffffffffffffffffffffffffff021916908373ffffffffffffffffffffffffffffffffffffffff16021790555050505050565b60008054905090565b6060806000805467ffffffffffffffff811115610b7557610b74613e09565b5b604051908082528060200260200182016040528015610bae57816020015b610b9b613588565b815260200190600190039081610b935790505b50905060005b600054811015610f8a578473ffffffffffffffffffffffffffffffffffffffff166007600083815260200190815260200160002060010160009054906101000a900473ffffffffffffffffffffffffffffffffffffffff1673ffffffffffffffffffffffffffffffffffffffff1603610f775760076000828152602001908152602001600020604051806101200160405290816000820160009054906101000a900473ffffffffffffffffffffffffffffffffffffffff1673ffffffffffffffffffffffffffffffffffffffff1673ffffffffffffffffffffffffffffffffffffffff1681526020016001820160009054906101000a900473ffffffffffffffffffffffffffffffffffffffff1673ffffffffffffffffffffffffffffffffffffffff1673ffffffffffffffffffffffffffffffffffffffff168152602001600282015481526020016003820154815260200160048201548152602001600582018054610d209061418b565b80601f0160208091040260200160405190810160405280929190818152602001828054610d4c9061418b565b8015610d995780601f10610d6e57610100808354040283529160200191610d99565b820191906000526020600020905b815481529060010190602001808311610d7c57829003601f168201915b50505050508152602001600682018054610db29061418b565b80601f0160208091040260200160405190810160405280929190818152602001828054610dde9061418b565b8015610e2b5780601f10610e0057610100808354040283529160200191610e2b565b820191906000526020600020905b815481529060010190602001808311610e0e57829003601f168201915b50505050508152602001600782018054610e449061418b565b80601f0160208091040260200160405190810160405280929190818152602001828054610e709061418b565b8015610ebd5780601f10610e9257610100808354040283529160200191610ebd565b820191906000526020600020905b815481529060010190602001808311610ea057829003601f168201915b50505050508152602001600882018054610ed69061418b565b80601f0160208091040260200160405190810160405280929190818152602001828054610f029061418b565b8015610f4f5780601f10610f2457610100808354040283529160200191610f4f565b820191906000526020600020905b815481529060010190602001808311610f3257829003601f168201915b505050505081525050828281518110610f6b57610f6a6141bc565b5b60200260200101819052505b8080610f829061421a565b915050610bb4565b50600060015467ffffffffffffffff811115610fa957610fa8613e09565b5b604051908082528060200260200182016040528015610fe257816020015b610fcf613600565b815260200190600190039081610fc75790505b50905060005b600154811015611371578573ffffffffffffffffffffffffffffffffffffffff166005828154811061101d5761101c6141bc565b5b906000526020600020906006020160030160009054906101000a900473ffffffffffffffffffffffffffffffffffffffff1673ffffffffffffffffffffffffffffffffffffffff160361135e576005818154811061107e5761107d6141bc565b5b90600052602060002090600602016040518060c00160405290816000820180546110a79061418b565b80601f01602080910402602001604051908101604052809291908181526020018280546110d39061418b565b80156111205780601f106110f557610100808354040283529160200191611120565b820191906000526020600020905b81548152906001019060200180831161110357829003601f168201915b505050505081526020016001820180546111399061418b565b80601f01602080910402602001604051908101604052809291908181526020018280546111659061418b565b80156111b25780601f10611187576101008083540402835291602001916111b2565b820191906000526020600020905b81548152906001019060200180831161119557829003601f168201915b50505050508152602001600282015481526020016003820160009054906101000a900473ffffffffffffffffffffffffffffffffffffffff1673ffffffffffffffffffffffffffffffffffffffff1673ffffffffffffffffffffffffffffffffffffffff16815260200160048201805461122b9061418b565b80601f01602080910402602001604051908101604052809291908181526020018280546112579061418b565b80156112a45780601f10611279576101008083540402835291602001916112a4565b820191906000526020600020905b81548152906001019060200180831161128757829003601f168201915b505050505081526020016005820180546112bd9061418b565b80601f01602080910402602001604051908101604052809291908181526020018280546112e99061418b565b80156113365780601f1061130b57610100808354040283529160200191611336565b820191906000526020600020905b81548152906001019060200180831161131957829003601f168201915b505050505081525050828281518110611352576113516141bc565b5b60200260200101819052505b80806113699061421a565b915050610fe8565b508181935093505050915091565b6005818154811061138f57600080fd5b90600052602060002090600602016000915090508060000180546113b29061418b565b80601f01602080910402602001604051908101604052809291908181526020018280546113de9061418b565b801561142b5780601f106114005761010080835404028352916020019161142b565b820191906000526020600020905b81548152906001019060200180831161140e57829003601f168201915b5050505050908060010180546114409061418b565b80601f016020809104026020016040519081016040528092919081815260200182805461146c9061418b565b80156114b95780601f1061148e576101008083540402835291602001916114b9565b820191906000526020600020905b81548152906001019060200180831161149c57829003601f168201915b5050505050908060020154908060030160009054906101000a900473ffffffffffffffffffffffffffffffffffffffff16908060040180546114fa9061418b565b80601f01602080910402602001604051908101604052809291908181526020018280546115269061418b565b80156115735780601f1061154857610100808354040283529160200191611573565b820191906000526020600020905b81548152906001019060200180831161155657829003601f168201915b5050505050908060050180546115889061418b565b80601f01602080910402602001604051908101604052809291908181526020018280546115b49061418b565b80156116015780601f106115d657610100808354040283529160200191611601565b820191906000526020600020905b8154815290600101906020018083116115e457829003601f168201915b5050505050905086565b60606005805480602002602001604051908101604052809291908181526020016000905b8282101561190957838290600052602060002090600602016040518060c00160405290816000820180546116629061418b565b80601f016020809104026020016040519081016040528092919081815260200182805461168e9061418b565b80156116db5780601f106116b0576101008083540402835291602001916116db565b820191906000526020600020905b8154815290600101906020018083116116be57829003601f168201915b505050505081526020016001820180546116f49061418b565b80601f01602080910402602001604051908101604052809291908181526020018280546117209061418b565b801561176d5780601f106117425761010080835404028352916020019161176d565b820191906000526020600020905b81548152906001019060200180831161175057829003601f168201915b50505050508152602001600282015481526020016003820160009054906101000a900473ffffffffffffffffffffffffffffffffffffffff1673ffffffffffffffffffffffffffffffffffffffff1673ffffffffffffffffffffffffffffffffffffffff1681526020016004820180546117e69061418b565b80601f01602080910402602001604051908101604052809291908181526020018280546118129061418b565b801561185f5780601f106118345761010080835404028352916020019161185f565b820191906000526020600020905b81548152906001019060200180831161184257829003601f168201915b505050505081526020016005820180546118789061418b565b80601f01602080910402602001604051908101604052809291908181526020018280546118a49061418b565b80156118f15780601f106118c6576101008083540402835291602001916118f1565b820191906000526020600020905b8154815290600101906020018083116118d457829003601f168201915b5050505050815250508152602001906001019061162f565b50505050905090565b60006007600083815260200190815260200160002090508060030154341461196f576040517f08c379a000000000000000000000000000000000000000000000000000000000815260040161196690614705565b60405180910390fd5b600073ffffffffffffffffffffffffffffffffffffffff168160010160009054906101000a900473ffffffffffffffffffffffffffffffffffffffff1673ffffffffffffffffffffffffffffffffffffffff16036119cc57600080fd5b600073ffffffffffffffffffffffffffffffffffffffff168160000160009054906101000a900473ffffffffffffffffffffffffffffffffffffffff1673ffffffffffffffffffffffffffffffffffffffff1614611a5f576040517f08c379a0000000000000000000000000000000000000000000000000000000008152600401611a5690614771565b60405180910390fd5b8060010160009054906101000a900473ffffffffffffffffffffffffffffffffffffffff1673ffffffffffffffffffffffffffffffffffffffff163373ffffffffffffffffffffffffffffffffffffffff1603611af1576040517f08c379a0000000000000000000000000000000000000000000000000000000008152600401611ae890614803565b60405180910390fd5b338160000160006101000a81548173ffffffffffffffffffffffffffffffffffffffff021916908373ffffffffffffffffffffffffffffffffffffffff1602179055508060010160009054906101000a900473ffffffffffffffffffffffffffffffffffffffff1673ffffffffffffffffffffffffffffffffffffffff166108fc349081150290604051600060405180830381858888f19350505050158015611b9e573d6000803e3d6000fd5b505050565b60076020528060005260406000206000915090508060000160009054906101000a900473ffffffffffffffffffffffffffffffffffffffff16908060010160009054906101000a900473ffffffffffffffffffffffffffffffffffffffff1690806002015490806003015490806004015490806005018054611c249061418b565b80601f0160208091040260200160405190810160405280929190818152602001828054611c509061418b565b8015611c9d5780601f10611c7257610100808354040283529160200191611c9d565b820191906000526020600020905b815481529060010190602001808311611c8057829003601f168201915b505050505090806006018054611cb29061418b565b80601f0160208091040260200160405190810160405280929190818152602001828054611cde9061418b565b8015611d2b5780601f10611d0057610100808354040283529160200191611d2b565b820191906000526020600020905b815481529060010190602001808311611d0e57829003601f168201915b505050505090806007018054611d409061418b565b80601f0160208091040260200160405190810160405280929190818152602001828054611d6c9061418b565b8015611db95780601f10611d8e57610100808354040283529160200191611db9565b820191906000526020600020905b815481529060010190602001808311611d9c57829003601f168201915b505050505090806008018054611dce9061418b565b80601f0160208091040260200160405190810160405280929190818152602001828054611dfa9061418b565b8015611e475780601f10611e1c57610100808354040283529160200191611e47565b820191906000526020600020905b815481529060010190602001808311611e2a57829003601f168201915b5050505050905089565b60048181548110611e6157600080fd5b90600052602060002090600902016000915090508060000160009054906101000a900473ffffffffffffffffffffffffffffffffffffffff16908060010160009054906101000a900473ffffffffffffffffffffffffffffffffffffffff1690806002015490806003015490806004015490806005018054611ee29061418b565b80601f0160208091040260200160405190810160405280929190818152602001828054611f0e9061418b565b8015611f5b5780601f10611f3057610100808354040283529160200191611f5b565b820191906000526020600020905b815481529060010190602001808311611f3e57829003601f168201915b505050505090806006018054611f709061418b565b80601f0160208091040260200160405190810160405280929190818152602001828054611f9c9061418b565b8015611fe95780601f10611fbe57610100808354040283529160200191611fe9565b820191906000526020600020905b815481529060010190602001808311611fcc57829003601f168201915b505050505090806007018054611ffe9061418b565b80601f016020809104026020016040519081016040528092919081815260200182805461202a9061418b565b80156120775780601f1061204c57610100808354040283529160200191612077565b820191906000526020600020905b81548152906001019060200180831161205a57829003601f168201915b50505050509080600801805461208c9061418b565b80601f01602080910402602001604051908101604052809291908181526020018280546120b89061418b565b80156121055780601f106120da57610100808354040283529160200191612105565b820191906000526020600020905b8154815290600101906020018083116120e857829003601f168201915b5050505050905089565b6000600260149054906101000a900460ff16905090565b600115156121333361090e565b151514612175576040517f08c379a000000000000000000000000000000000000000000000000000000000815260040161216c9061486f565b60405180910390fd5b60011515600260149054906101000a900460ff161515146121cb576040517f08c379a00000000000000000000000000000000000000000000000000000000081526004016121c290614901565b60405180910390fd5b600084511161220f576040517f08c379a00000000000000000000000000000000000000000000000000000000081526004016122069061431a565b60405180910390fd5b6000835111612253576040517f08c379a000000000000000000000000000000000000000000000000000000000815260040161224a9061431a565b60405180910390fd5b6000815111612297576040517f08c379a000000000000000000000000000000000000000000000000000000000815260040161228e9061431a565b60405180910390fd5b8673ffffffffffffffffffffffffffffffffffffffff163373ffffffffffffffffffffffffffffffffffffffff1614612305576040517f08c379a00000000000000000000000000000000000000000000000000000000081526004016122fc9061496d565b60405180910390fd5b6000825111612349576040517f08c379a00000000000000000000000000000000000000000000000000000000081526004016123409061431a565b60405180910390fd5b6000604051806101200160405280600073ffffffffffffffffffffffffffffffffffffffff1681526020013373ffffffffffffffffffffffffffffffffffffffff168152602001600054815260200188815260200187815260200186815260200185815260200184815260200183815250905080600760008054815260200190815260200160002060008201518160000160006101000a81548173ffffffffffffffffffffffffffffffffffffffff021916908373ffffffffffffffffffffffffffffffffffffffff16021790555060208201518160010160006101000a81548173ffffffffffffffffffffffffffffffffffffffff021916908373ffffffffffffffffffffffffffffffffffffffff16021790555060408201518160020155606082015181600301556080820151816004015560a082015181600501908161249291906145c1565b5060c08201518160060190816124a891906145c1565b5060e08201518160070190816124be91906145c1565b506101008201518160080190816124d591906145c1565b509050506000808154809291906124eb9061421a565b9190505550600481908060018154018082558091505060019003906000526020600020906009020160009091909190915060008201518160000160006101000a81548173ffffffffffffffffffffffffffffffffffffffff021916908373ffffffffffffffffffffffffffffffffffffffff16021790555060208201518160010160006101000a81548173ffffffffffffffffffffffffffffffffffffffff021916908373ffffffffffffffffffffffffffffffffffffffff16021790555060408201518160020155606082015181600301556080820151816004015560a08201518160050190816125dd91906145c1565b5060c08201518160060190816125f391906145c1565b5060e082015181600701908161260991906145c1565b5061010082015181600801908161262091906145c1565b5050505050505050505050565b60606126388261090e565b612677576040517f08c379a000000000000000000000000000000000000000000000000000000000815260040161266e906149d9565b60405180910390fd5b600660008373ffffffffffffffffffffffffffffffffffffffff1673ffffffffffffffffffffffffffffffffffffffff16815260200190815260200160002060000180546126c49061418b565b80601f01602080910402602001604051908101604052809291908181526020018280546126f09061418b565b801561273d5780601f106127125761010080835404028352916020019161273d565b820191906000526020600020905b81548152906001019060200180831161272057829003601f168201915b50505050509050919050565b60606004805480602002602001604051908101604052809291908181526020016000905b82821015612ab25783829060005260206000209060090201604051806101200160405290816000820160009054906101000a900473ffffffffffffffffffffffffffffffffffffffff1673ffffffffffffffffffffffffffffffffffffffff1673ffffffffffffffffffffffffffffffffffffffff1681526020016001820160009054906101000a900473ffffffffffffffffffffffffffffffffffffffff1673ffffffffffffffffffffffffffffffffffffffff1673ffffffffffffffffffffffffffffffffffffffff16815260200160028201548152602001600382015481526020016004820154815260200160058201805461286b9061418b565b80601f01602080910402602001604051908101604052809291908181526020018280546128979061418b565b80156128e45780601f106128b9576101008083540402835291602001916128e4565b820191906000526020600020905b8154815290600101906020018083116128c757829003601f168201915b505050505081526020016006820180546128fd9061418b565b80601f01602080910402602001604051908101604052809291908181526020018280546129299061418b565b80156129765780601f1061294b57610100808354040283529160200191612976565b820191906000526020600020905b81548152906001019060200180831161295957829003601f168201915b5050505050815260200160078201805461298f9061418b565b80601f01602080910402602001604051908101604052809291908181526020018280546129bb9061418b565b8015612a085780601f106129dd57610100808354040283529160200191612a08565b820191906000526020600020905b8154815290600101906020018083116129eb57829003601f168201915b50505050508152602001600882018054612a219061418b565b80601f0160208091040260200160405190810160405280929190818152602001828054612a4d9061418b565b8015612a9a5780601f10612a6f57610100808354040283529160200191612a9a565b820191906000526020600020905b815481529060010190602001808311612a7d57829003601f168201915b5050505050815250508152602001906001019061276d565b50505050905090565b6000600154905090565b6008602052806000526040600020600091509050806000018054612ae89061418b565b80601f0160208091040260200160405190810160405280929190818152602001828054612b149061418b565b8015612b615780601f10612b3657610100808354040283529160200191612b61565b820191906000526020600020905b815481529060010190602001808311612b4457829003601f168201915b505050505090806001018054612b769061418b565b80601f0160208091040260200160405190810160405280929190818152602001828054612ba29061418b565b8015612bef5780601f10612bc457610100808354040283529160200191612bef565b820191906000526020600020905b815481529060010190602001808311612bd257829003601f168201915b5050505050908060020154908060030160009054906101000a900473ffffffffffffffffffffffffffffffffffffffff1690806004018054612c309061418b565b80601f0160208091040260200160405190810160405280929190818152602001828054612c5c9061418b565b8015612ca95780601f10612c7e57610100808354040283529160200191612ca9565b820191906000526020600020905b815481529060010190602001808311612c8c57829003601f168201915b505050505090806005018054612cbe9061418b565b80601f0160208091040260200160405190810160405280929190818152602001828054612cea9061418b565b8015612d375780601f10612d0c57610100808354040283529160200191612d37565b820191906000526020600020905b815481529060010190602001808311612d1a57829003601f168201915b5050505050905086565b6060600060015467ffffffffffffffff811115612d6157612d60613e09565b5b604051908082528060200260200182016040528015612d9a57816020015b612d87613600565b815260200190600190039081612d7f5790505b50905060005b600154811015613129578373ffffffffffffffffffffffffffffffffffffffff1660058281548110612dd557612dd46141bc565b5b906000526020600020906006020160030160009054906101000a900473ffffffffffffffffffffffffffffffffffffffff1673ffffffffffffffffffffffffffffffffffffffff16036131165760058181548110612e3657612e356141bc565b5b90600052602060002090600602016040518060c0016040529081600082018054612e5f9061418b565b80601f0160208091040260200160405190810160405280929190818152602001828054612e8b9061418b565b8015612ed85780601f10612ead57610100808354040283529160200191612ed8565b820191906000526020600020905b815481529060010190602001808311612ebb57829003601f168201915b50505050508152602001600182018054612ef19061418b565b80601f0160208091040260200160405190810160405280929190818152602001828054612f1d9061418b565b8015612f6a5780601f10612f3f57610100808354040283529160200191612f6a565b820191906000526020600020905b815481529060010190602001808311612f4d57829003601f168201915b50505050508152602001600282015481526020016003820160009054906101000a900473ffffffffffffffffffffffffffffffffffffffff1673ffffffffffffffffffffffffffffffffffffffff1673ffffffffffffffffffffffffffffffffffffffff168152602001600482018054612fe39061418b565b80601f016020809104026020016040519081016040528092919081815260200182805461300f9061418b565b801561305c5780601f106130315761010080835404028352916020019161305c565b820191906000526020600020905b81548152906001019060200180831161303f57829003601f168201915b505050505081526020016005820180546130759061418b565b80601f01602080910402602001604051908101604052809291908181526020018280546130a19061418b565b80156130ee5780601f106130c3576101008083540402835291602001916130ee565b820191906000526020600020905b8154815290600101906020018083116130d157829003601f168201915b50505050508152505082828151811061310a576131096141bc565b5b60200260200101819052505b80806131219061421a565b915050612da0565b5080915050919050565b6000600115156131423361090e565b151514613184576040517f08c379a000000000000000000000000000000000000000000000000000000000815260040161317b90614a45565b60405180910390fd5b600088889050116131ca576040517f08c379a00000000000000000000000000000000000000000000000000000000081526004016131c19061431a565b60405180910390fd5b60008686905011613210576040517f08c379a00000000000000000000000000000000000000000000000000000000081526004016132079061431a565b60405180910390fd5b6000845111613254576040517f08c379a000000000000000000000000000000000000000000000000000000000815260040161324b9061431a565b60405180910390fd5b6000835111613298576040517f08c379a000000000000000000000000000000000000000000000000000000000815260040161328f9061431a565b60405180910390fd5b6001600580549050106132e0576040517f08c379a00000000000000000000000000000000000000000000000000000000081526004016132d790614ab1565b60405180910390fd5b60006040518060c001604052808a8a8080601f016020809104026020016040519081016040528093929190818152602001838380828437600081840152601f19601f82011690508083019250505050505050815260200188888080601f016020809104026020016040519081016040528093929190818152602001838380828437600081840152601f19601f8201169050808301925050505050505081526020018481526020013373ffffffffffffffffffffffffffffffffffffffff1681526020018681526020018581525090508060086000600154815260200190815260200160002060008201518160000190816133da91906145c1565b5060208201518160010190816133f091906145c1565b506040820151816002015560608201518160030160006101000a81548173ffffffffffffffffffffffffffffffffffffffff021916908373ffffffffffffffffffffffffffffffffffffffff160217905550608082015181600401908161345791906145c1565b5060a082015181600501908161346d91906145c1565b50905050600160008154809291906134849061421a565b9190505550600581908060018154018082558091505060019003906000526020600020906006020160009091909190915060008201518160000190816134ca91906145c1565b5060208201518160010190816134e091906145c1565b506040820151816002015560608201518160030160006101000a81548173ffffffffffffffffffffffffffffffffffffffff021916908373ffffffffffffffffffffffffffffffffffffffff160217905550608082015181600401908161354791906145c1565b5060a082015181600501908161355d91906145c1565b5050506001600260146101000a81548160ff0219169083151502179055915050979650505050505050565b604051806101200160405280600073ffffffffffffffffffffffffffffffffffffffff168152602001600073ffffffffffffffffffffffffffffffffffffffff168152602001600081526020016000815260200160008152602001606081526020016060815260200160608152602001606081525090565b6040518060c00160405280606081526020016060815260200160008152602001600073ffffffffffffffffffffffffffffffffffffffff16815260200160608152602001606081525090565b6000604051905090565b600080fd5b600080fd5b600073ffffffffffffffffffffffffffffffffffffffff82169050919050565b600061368b82613660565b9050919050565b61369b81613680565b81146136a657600080fd5b50565b6000813590506136b881613692565b92915050565b6000602082840312156136d4576136d3613656565b5b60006136e2848285016136a9565b91505092915050565b600081519050919050565b600082825260208201905092915050565b6000819050602082019050919050565b61372081613680565b82525050565b6000819050919050565b61373981613726565b82525050565b600081519050919050565b600082825260208201905092915050565b60005b8381101561377957808201518184015260208101905061375e565b60008484015250505050565b6000601f19601f8301169050919050565b60006137a18261373f565b6137ab818561374a565b93506137bb81856020860161375b565b6137c481613785565b840191505092915050565b6000610120830160008301516137e86000860182613717565b5060208301516137fb6020860182613717565b50604083015161380e6040860182613730565b5060608301516138216060860182613730565b5060808301516138346080860182613730565b5060a083015184820360a086015261384c8282613796565b91505060c083015184820360c08601526138668282613796565b91505060e083015184820360e08601526138808282613796565b91505061010083015184820361010086015261389c8282613796565b9150508091505092915050565b60006138b583836137cf565b905092915050565b6000602082019050919050565b60006138d5826136eb565b6138df81856136f6565b9350836020820285016138f185613707565b8060005b8581101561392d578484038952815161390e85826138a9565b9450613919836138bd565b925060208a019950506001810190506138f5565b50829750879550505050505092915050565b6000602082019050818103600083015261395981846138ca565b905092915050565b60008115159050919050565b61397681613961565b82525050565b6000602082019050613991600083018461396d565b92915050565b600080fd5b600080fd5b600080fd5b60008083601f8401126139bc576139bb613997565b5b8235905067ffffffffffffffff8111156139d9576139d861399c565b5b6020830191508360018202830111156139f5576139f46139a1565b5b9250929050565b60008060208385031215613a1357613a12613656565b5b600083013567ffffffffffffffff811115613a3157613a3061365b565b5b613a3d858286016139a6565b92509250509250929050565b613a5281613726565b82525050565b6000602082019050613a6d6000830184613a49565b92915050565b600081519050919050565b600082825260208201905092915050565b6000819050602082019050919050565b600060c0830160008301518482036000860152613abc8282613796565b91505060208301518482036020860152613ad68282613796565b9150506040830151613aeb6040860182613730565b506060830151613afe6060860182613717565b5060808301518482036080860152613b168282613796565b91505060a083015184820360a0860152613b308282613796565b9150508091505092915050565b6000613b498383613a9f565b905092915050565b6000602082019050919050565b6000613b6982613a73565b613b738185613a7e565b935083602082028501613b8585613a8f565b8060005b85811015613bc15784840389528151613ba28582613b3d565b9450613bad83613b51565b925060208a01995050600181019050613b89565b50829750879550505050505092915050565b60006040820190508181036000830152613bed81856138ca565b90508181036020830152613c018184613b5e565b90509392505050565b613c1381613726565b8114613c1e57600080fd5b50565b600081359050613c3081613c0a565b92915050565b600060208284031215613c4c57613c4b613656565b5b6000613c5a84828501613c21565b91505092915050565b600082825260208201905092915050565b6000613c7f8261373f565b613c898185613c63565b9350613c9981856020860161375b565b613ca281613785565b840191505092915050565b613cb681613680565b82525050565b600060c0820190508181036000830152613cd68189613c74565b90508181036020830152613cea8188613c74565b9050613cf96040830187613a49565b613d066060830186613cad565b8181036080830152613d188185613c74565b905081810360a0830152613d2c8184613c74565b9050979650505050505050565b60006020820190508181036000830152613d538184613b5e565b905092915050565b600061012082019050613d71600083018c613cad565b613d7e602083018b613cad565b613d8b604083018a613a49565b613d986060830189613a49565b613da56080830188613a49565b81810360a0830152613db78187613c74565b905081810360c0830152613dcb8186613c74565b905081810360e0830152613ddf8185613c74565b9050818103610100830152613df48184613c74565b90509a9950505050505050505050565b600080fd5b7f4e487b7100000000000000000000000000000000000000000000000000000000600052604160045260246000fd5b613e4182613785565b810181811067ffffffffffffffff82111715613e6057613e5f613e09565b5b80604052505050565b6000613e7361364c565b9050613e7f8282613e38565b919050565b600067ffffffffffffffff821115613e9f57613e9e613e09565b5b613ea882613785565b9050602081019050919050565b82818337600083830152505050565b6000613ed7613ed284613e84565b613e69565b905082815260208101848484011115613ef357613ef2613e04565b5b613efe848285613eb5565b509392505050565b600082601f830112613f1b57613f1a613997565b5b8135613f2b848260208601613ec4565b91505092915050565b600080600080600080600060e0888a031215613f5357613f52613656565b5b6000613f618a828b016136a9565b9750506020613f728a828b01613c21565b9650506040613f838a828b01613c21565b955050606088013567ffffffffffffffff811115613fa457613fa361365b565b5b613fb08a828b01613f06565b945050608088013567ffffffffffffffff811115613fd157613fd061365b565b5b613fdd8a828b01613f06565b93505060a088013567ffffffffffffffff811115613ffe57613ffd61365b565b5b61400a8a828b01613f06565b92505060c088013567ffffffffffffffff81111561402b5761402a61365b565b5b6140378a828b01613f06565b91505092959891949750929550565b600060208201905081810360008301526140608184613c74565b905092915050565b600080600080600080600060a0888a03121561408757614086613656565b5b600088013567ffffffffffffffff8111156140a5576140a461365b565b5b6140b18a828b016139a6565b9750975050602088013567ffffffffffffffff8111156140d4576140d361365b565b5b6140e08a828b016139a6565b9550955050604088013567ffffffffffffffff8111156141035761410261365b565b5b61410f8a828b01613f06565b935050606088013567ffffffffffffffff8111156141305761412f61365b565b5b61413c8a828b01613f06565b925050608061414d8a828b01613c21565b91505092959891949750929550565b7f4e487b7100000000000000000000000000000000000000000000000000000000600052602260045260246000fd5b600060028204905060018216806141a357607f821691505b6020821081036141b6576141b561415c565b5b50919050565b7f4e487b7100000000000000000000000000000000000000000000000000000000600052603260045260246000fd5b7f4e487b7100000000000000000000000000000000000000000000000000000000600052601160045260246000fd5b600061422582613726565b91507fffffffffffffffffffffffffffffffffffffffffffffffffffffffffffffffff8203614257576142566141eb565b5b600182019050919050565b7f5573657220616c72656164792065786973747300000000000000000000000000600082015250565b6000614298601383613c63565b91506142a382614262565b602082019050919050565b600060208201905081810360008301526142c78161428b565b9050919050565b7f557365726e616d652063616e6e6f7420626520656d7074790000000000000000600082015250565b6000614304601883613c63565b915061430f826142ce565b602082019050919050565b60006020820190508181036000830152614333816142f7565b9050919050565b600082905092915050565b60008190508160005260206000209050919050565b60006020601f8301049050919050565b600082821b905092915050565b6000600883026143a77fffffffffffffffffffffffffffffffffffffffffffffffffffffffffffffffff8261436a565b6143b1868361436a565b95508019841693508086168417925050509392505050565b6000819050919050565b60006143ee6143e96143e484613726565b6143c9565b613726565b9050919050565b6000819050919050565b614408836143d3565b61441c614414826143f5565b848454614377565b825550505050565b600090565b614431614424565b61443c8184846143ff565b505050565b5b8181101561446057614455600082614429565b600181019050614442565b5050565b601f8211156144a55761447681614345565b61447f8461435a565b8101602085101561448e578190505b6144a261449a8561435a565b830182614441565b50505b505050565b600082821c905092915050565b60006144c8600019846008026144aa565b1980831691505092915050565b60006144e183836144b7565b9150826002028217905092915050565b6144fb838361433a565b67ffffffffffffffff81111561451457614513613e09565b5b61451e825461418b565b614529828285614464565b6000601f8311600181146145585760008415614546578287013590505b61455085826144d5565b8655506145b8565b601f19841661456686614345565b60005b8281101561458e57848901358255600182019150602085019450602081019050614569565b868310156145ab57848901356145a7601f8916826144b7565b8355505b6001600288020188555050505b50505050505050565b6145ca8261373f565b67ffffffffffffffff8111156145e3576145e2613e09565b5b6145ed825461418b565b6145f8828285614464565b600060209050601f83116001811461462b5760008415614619578287015190505b61462385826144d5565b86555061468b565b601f19841661463986614345565b60005b828110156146615784890151825560018201915060208501945060208101905061463c565b8683101561467e578489015161467a601f8916826144b7565b8355505b6001600288020188555050505b505050505050565b7f496e76616c696420616d6f756e742073656e7420666f722070726f647563746960008201527f6400000000000000000000000000000000000000000000000000000000000000602082015250565b60006146ef602183613c63565b91506146fa82614693565b604082019050919050565b6000602082019050818103600083015261471e816146e2565b9050919050565b7f4974656d20686173206265656e20626f75676874000000000000000000000000600082015250565b600061475b601483613c63565b915061476682614725565b602082019050919050565b6000602082019050818103600083015261478a8161474e565b9050919050565b7f53656c6c65722063616e6e6f7420627579207468656972206f776e2070726f6460008201527f7563746964000000000000000000000000000000000000000000000000000000602082015250565b60006147ed602583613c63565b91506147f882614791565b604082019050919050565b6000602082019050818103600083015261481c816147e0565b9050919050565b7f4163636f756e7473206e65656420746f20626520637265617465640000000000600082015250565b6000614859601b83613c63565b915061486482614823565b602082019050919050565b600060208201905081810360008301526148888161484c565b9050919050565b7f796f75206e65656420746f206f776e20612073746f726520746f206c6973742060008201527f70726f6475637473000000000000000000000000000000000000000000000000602082015250565b60006148eb602883613c63565b91506148f68261488f565b604082019050919050565b6000602082019050818103600083015261491a816148de565b9050919050565b7f796f75206e65656420746f20626520612073656c6c6572000000000000000000600082015250565b6000614957601783613c63565b915061496282614921565b602082019050919050565b600060208201905081810360008301526149868161494a565b9050919050565b7f55736572206973206e6f74207265676973746572656400000000000000000000600082015250565b60006149c3601683613c63565b91506149ce8261498d565b602082019050919050565b600060208201905081810360008301526149f2816149b6565b9050919050565b7f4163636f756e7473206e65656420746f20622063726561746564000000000000600082015250565b6000614a2f601a83613c63565b9150614a3a826149f9565b602082019050919050565b60006020820190508181036000830152614a5e81614a22565b9050919050565b7f596f752063616e7420637265617465206d756c7469706c652073746f72650000600082015250565b6000614a9b601e83613c63565b9150614aa682614a65565b602082019050919050565b60006020820190508181036000830152614aca81614a8e565b905091905056fea264697066735822122035a41b9384c05a24f257af1e428d2d06fca3a2e6e23ab95dc6a7e2934226db4464736f6c63430008110033",
  "linkReferences": {},
  "deployedLinkReferences": {}
}