{
  "_format": "hh-sol-artifact-1",
  "contractName": "MarketPride",
  "sourceName": "contracts/MarketPride.sol",
  "abi": [
    {
      "inputs": [],
      "stateMutability": "nonpayable",
      "type": "constructor"
    },
    {
      "anonymous": false,
      "inputs": [
        {
          "indexed": true,
          "internalType": "address",
          "name": "_from",
          "type": "address"
        },
        {
          "indexed": true,
          "internalType": "address",
          "name": "_to",
          "type": "address"
        },
        {
          "indexed": false,
          "internalType": "uint256",
          "name": "_price",
          "type": "uint256"
        }
      ],
      "name": "payment",
      "type": "event"
    },
    {
      "inputs": [
        {
          "internalType": "address",
          "name": "pubkey",
          "type": "address"
        }
      ],
      "name": "checkUserExists",
      "outputs": [
        {
          "internalType": "bool",
          "name": "",
          "type": "bool"
        }
      ],
      "stateMutability": "view",
      "type": "function"
    },
    {
      "inputs": [
        {
          "internalType": "string",
          "name": "name",
          "type": "string"
        }
      ],
      "name": "createAccount",
      "outputs": [],
      "stateMutability": "nonpayable",
      "type": "function"
    },
    {
      "inputs": [
        {
          "internalType": "string",
          "name": "_name",
          "type": "string"
        },
        {
          "internalType": "string",
          "name": "_desc",
          "type": "string"
        },
        {
          "internalType": "string",
          "name": "_imageUrl",
          "type": "string"
        },
        {
          "internalType": "string",
          "name": "_coverImage",
          "type": "string"
        }
      ],
      "name": "createStore",
      "outputs": [
        {
          "internalType": "bool",
          "name": "",
          "type": "bool"
        }
      ],
      "stateMutability": "nonpayable",
      "type": "function"
    },
    {
      "inputs": [
        {
          "internalType": "address",
          "name": "_seller",
          "type": "address"
        }
      ],
      "name": "fetchSellerProducts",
      "outputs": [
        {
          "components": [
            {
              "internalType": "address",
              "name": "buyer",
              "type": "address"
            },
            {
              "internalType": "address",
              "name": "seller",
              "type": "address"
            },
            {
              "internalType": "uint256",
              "name": "id",
              "type": "uint256"
            },
            {
              "internalType": "uint256",
              "name": "price",
              "type": "uint256"
            },
            {
              "internalType": "uint256",
              "name": "rating",
              "type": "uint256"
            },
            {
              "internalType": "string",
              "name": "name",
              "type": "string"
            },
            {
              "internalType": "string",
              "name": "description",
              "type": "string"
            },
            {
              "internalType": "string",
              "name": "category",
              "type": "string"
            },
            {
              "internalType": "string",
              "name": "imgUrl",
              "type": "string"
            }
          ],
          "internalType": "struct MarketPride.Product[]",
          "name": "",
          "type": "tuple[]"
        }
      ],
      "stateMutability": "view",
      "type": "function"
    },
    {
      "inputs": [
        {
          "internalType": "address",
          "name": "_creator",
          "type": "address"
        }
      ],
      "name": "fetchSellerStore",
      "outputs": [
        {
          "components": [
            {
              "internalType": "string",
              "name": "name",
              "type": "string"
            },
            {
              "internalType": "string",
              "name": "description",
              "type": "string"
            },
            {
              "internalType": "uint256",
              "name": "id",
              "type": "uint256"
            },
            {
              "internalType": "address",
              "name": "creator",
              "type": "address"
            },
            {
              "internalType": "string",
              "name": "imageUrl",
              "type": "string"
            },
            {
              "internalType": "string",
              "name": "coverImage",
              "type": "string"
            }
          ],
          "internalType": "struct MarketPride.Store[]",
          "name": "",
          "type": "tuple[]"
        }
      ],
      "stateMutability": "view",
      "type": "function"
    },
    {
      "inputs": [],
      "name": "getAllProduct",
      "outputs": [
        {
          "components": [
            {
              "internalType": "address",
              "name": "buyer",
              "type": "address"
            },
            {
              "internalType": "address",
              "name": "seller",
              "type": "address"
            },
            {
              "internalType": "uint256",
              "name": "id",
              "type": "uint256"
            },
            {
              "internalType": "uint256",
              "name": "price",
              "type": "uint256"
            },
            {
              "internalType": "uint256",
              "name": "rating",
              "type": "uint256"
            },
            {
              "internalType": "string",
              "name": "name",
              "type": "string"
            },
            {
              "internalType": "string",
              "name": "description",
              "type": "string"
            },
            {
              "internalType": "string",
              "name": "category",
              "type": "string"
            },
            {
              "internalType": "string",
              "name": "imgUrl",
              "type": "string"
            }
          ],
          "internalType": "struct MarketPride.Product[]",
          "name": "",
          "type": "tuple[]"
        }
      ],
      "stateMutability": "view",
      "type": "function"
    },
    {
      "inputs": [],
      "name": "getAllStore",
      "outputs": [
        {
          "components": [
            {
              "internalType": "string",
              "name": "name",
              "type": "string"
            },
            {
              "internalType": "string",
              "name": "description",
              "type": "string"
            },
            {
              "internalType": "uint256",
              "name": "id",
              "type": "uint256"
            },
            {
              "internalType": "address",
              "name": "creator",
              "type": "address"
            },
            {
              "internalType": "string",
              "name": "imageUrl",
              "type": "string"
            },
            {
              "internalType": "string",
              "name": "coverImage",
              "type": "string"
            }
          ],
          "internalType": "struct MarketPride.Store[]",
          "name": "",
          "type": "tuple[]"
        }
      ],
      "stateMutability": "view",
      "type": "function"
    },
    {
      "inputs": [
        {
          "internalType": "address",
          "name": "_pubkey",
          "type": "address"
        }
      ],
      "name": "getAllUserStoreAndProducts",
      "outputs": [
        {
          "components": [
            {
              "internalType": "address",
              "name": "buyer",
              "type": "address"
            },
            {
              "internalType": "address",
              "name": "seller",
              "type": "address"
            },
            {
              "internalType": "uint256",
              "name": "id",
              "type": "uint256"
            },
            {
              "internalType": "uint256",
              "name": "price",
              "type": "uint256"
            },
            {
              "internalType": "uint256",
              "name": "rating",
              "type": "uint256"
            },
            {
              "internalType": "string",
              "name": "name",
              "type": "string"
            },
            {
              "internalType": "string",
              "name": "description",
              "type": "string"
            },
            {
              "internalType": "string",
              "name": "category",
              "type": "string"
            },
            {
              "internalType": "string",
              "name": "imgUrl",
              "type": "string"
            }
          ],
          "internalType": "struct MarketPride.Product[]",
          "name": "",
          "type": "tuple[]"
        },
        {
          "components": [
            {
              "internalType": "string",
              "name": "name",
              "type": "string"
            },
            {
              "internalType": "string",
              "name": "description",
              "type": "string"
            },
            {
              "internalType": "uint256",
              "name": "id",
              "type": "uint256"
            },
            {
              "internalType": "address",
              "name": "creator",
              "type": "address"
            },
            {
              "internalType": "string",
              "name": "imageUrl",
              "type": "string"
            },
            {
              "internalType": "string",
              "name": "coverImage",
              "type": "string"
            }
          ],
          "internalType": "struct MarketPride.Store[]",
          "name": "",
          "type": "tuple[]"
        }
      ],
      "stateMutability": "view",
      "type": "function"
    },
    {
      "inputs": [],
      "name": "getIfStoreExist",
      "outputs": [
        {
          "internalType": "bool",
          "name": "",
          "type": "bool"
        }
      ],
      "stateMutability": "view",
      "type": "function"
    },
    {
      "inputs": [],
      "name": "getNumberOfProducts",
      "outputs": [
        {
          "internalType": "uint256",
          "name": "",
          "type": "uint256"
        }
      ],
      "stateMutability": "view",
      "type": "function"
    },
    {
      "inputs": [],
      "name": "getNumberOfStore",
      "outputs": [
        {
          "internalType": "uint256",
          "name": "",
          "type": "uint256"
        }
      ],
      "stateMutability": "view",
      "type": "function"
    },
    {
      "inputs": [
        {
          "internalType": "address",
          "name": "pubkey",
          "type": "address"
        }
      ],
      "name": "getUsername",
      "outputs": [
        {
          "internalType": "string",
          "name": "",
          "type": "string"
        }
      ],
      "stateMutability": "view",
      "type": "function"
    },
    {
      "inputs": [
        {
          "internalType": "address",
          "name": "_seller",
          "type": "address"
        },
        {
          "internalType": "uint256",
          "name": "_price",
          "type": "uint256"
        },
        {
          "internalType": "uint256",
          "name": "_rating",
          "type": "uint256"
        },
        {
          "internalType": "string",
          "name": "_name",
          "type": "string"
        },
        {
          "internalType": "string",
          "name": "_description",
          "type": "string"
        },
        {
          "internalType": "string",
          "name": "_category",
          "type": "string"
        },
        {
          "internalType": "string",
          "name": "_imgUrl",
          "type": "string"
        }
      ],
      "name": "listNewProduct",
      "outputs": [],
      "stateMutability": "nonpayable",
      "type": "function"
    },
    {
      "inputs": [
        {
          "internalType": "uint256",
          "name": "_id",
          "type": "uint256"
        }
      ],
      "name": "payForProducts",
      "outputs": [],
      "stateMutability": "payable",
      "type": "function"
    },
    {
      "inputs": [
        {
          "internalType": "uint256",
          "name": "",
          "type": "uint256"
        }
      ],
      "name": "product",
      "outputs": [
        {
          "internalType": "address",
          "name": "buyer",
          "type": "address"
        },
        {
          "internalType": "address",
          "name": "seller",
          "type": "address"
        },
        {
          "internalType": "uint256",
          "name": "id",
          "type": "uint256"
        },
        {
          "internalType": "uint256",
          "name": "price",
          "type": "uint256"
        },
        {
          "internalType": "uint256",
          "name": "rating",
          "type": "uint256"
        },
        {
          "internalType": "string",
          "name": "name",
          "type": "string"
        },
        {
          "internalType": "string",
          "name": "description",
          "type": "string"
        },
        {
          "internalType": "string",
          "name": "category",
          "type": "string"
        },
        {
          "internalType": "string",
          "name": "imgUrl",
          "type": "string"
        }
      ],
      "stateMutability": "view",
      "type": "function"
    },
    {
      "inputs": [
        {
          "internalType": "uint256",
          "name": "",
          "type": "uint256"
        }
      ],
      "name": "products",
      "outputs": [
        {
          "internalType": "address",
          "name": "buyer",
          "type": "address"
        },
        {
          "internalType": "address",
          "name": "seller",
          "type": "address"
        },
        {
          "internalType": "uint256",
          "name": "id",
          "type": "uint256"
        },
        {
          "internalType": "uint256",
          "name": "price",
          "type": "uint256"
        },
        {
          "internalType": "uint256",
          "name": "rating",
          "type": "uint256"
        },
        {
          "internalType": "string",
          "name": "name",
          "type": "string"
        },
        {
          "internalType": "string",
          "name": "description",
          "type": "string"
        },
        {
          "internalType": "string",
          "name": "category",
          "type": "string"
        },
        {
          "internalType": "string",
          "name": "imgUrl",
          "type": "string"
        }
      ],
      "stateMutability": "view",
      "type": "function"
    },
    {
      "inputs": [
        {
          "internalType": "uint256",
          "name": "",
          "type": "uint256"
        }
      ],
      "name": "store",
      "outputs": [
        {
          "internalType": "string",
          "name": "name",
          "type": "string"
        },
        {
          "internalType": "string",
          "name": "description",
          "type": "string"
        },
        {
          "internalType": "uint256",
          "name": "id",
          "type": "uint256"
        },
        {
          "internalType": "address",
          "name": "creator",
          "type": "address"
        },
        {
          "internalType": "string",
          "name": "imageUrl",
          "type": "string"
        },
        {
          "internalType": "string",
          "name": "coverImage",
          "type": "string"
        }
      ],
      "stateMutability": "view",
      "type": "function"
    },
    {
      "inputs": [
        {
          "internalType": "uint256",
          "name": "",
          "type": "uint256"
        }
      ],
      "name": "stores",
      "outputs": [
        {
          "internalType": "string",
          "name": "name",
          "type": "string"
        },
        {
          "internalType": "string",
          "name": "description",
          "type": "string"
        },
        {
          "internalType": "uint256",
          "name": "id",
          "type": "uint256"
        },
        {
          "internalType": "address",
          "name": "creator",
          "type": "address"
        },
        {
          "internalType": "string",
          "name": "imageUrl",
          "type": "string"
        },
        {
          "internalType": "string",
          "name": "coverImage",
          "type": "string"
        }
      ],
      "stateMutability": "view",
      "type": "function"
    }
  ],
  "bytecode": "0x608060405234801561001057600080fd5b5060001515600260149054906101000a9050505061481b806100336000396000f3fe6080604052600436106101095760003560e01c8063780bd3f111610095578063ce43c03211610064578063ce43c032146103be578063d055a75f146103fb578063d121716014610426578063e8a59cd814610451578063ebe6ac421461049357610109565b8063780bd3f1146102e05780637acc0b201461032557806390de61141461036a578063af857e441461039557610109565b8063508b019e116100dc578063508b019e146101dc578063578dc2d1146102195780636057361d146102575780636592f99a146102995780636e7ea446146102c457610109565b806310d91cff1461010e578063133f50f51461014b578063298daf5b146101885780633ffd81fb146101b1575b600080fd5b34801561011a57600080fd5b5061013560048036038101906101309190613453565b6104d0565b60405161014291906136d4565b60405180910390f35b34801561015757600080fd5b50610172600480360381019061016d9190613453565b61090e565b60405161017f9190613711565b60405180910390f35b34801561019457600080fd5b506101af60048036038101906101aa9190613791565b610968565b005b3480156101bd57600080fd5b506101c6610b4c565b6040516101d391906137ed565b60405180910390f35b3480156101e857600080fd5b5061020360048036038101906101fe9190613938565b610b55565b6040516102109190613711565b60405180910390f35b34801561022557600080fd5b50610240600480360381019061023b9190613453565b610e4f565b60405161024e929190613b77565b60405180910390f35b34801561026357600080fd5b5061027e60048036038101906102799190613bda565b611679565b60405161029096959493929190613c60565b60405180910390f35b3480156102a557600080fd5b506102ae611905565b6040516102bb9190613cdd565b60405180910390f35b6102de60048036038101906102d99190613bda565b611c0c565b005b3480156102ec57600080fd5b5061030760048036038101906103029190613bda565b611e9d565b60405161031c99989796959493929190613cff565b60405180910390f35b34801561033157600080fd5b5061034c60048036038101906103479190613bda565b61214b565b60405161036199989796959493929190613cff565b60405180910390f35b34801561037657600080fd5b5061037f612409565b60405161038c9190613711565b60405180910390f35b3480156103a157600080fd5b506103bc60048036038101906103b79190613da8565b612420565b005b3480156103ca57600080fd5b506103e560048036038101906103e09190613453565b612817565b6040516103f29190613eba565b60405180910390f35b34801561040757600080fd5b50610410612933565b60405161041d91906136d4565b60405180910390f35b34801561043257600080fd5b5061043b612ca5565b60405161044891906137ed565b60405180910390f35b34801561045d57600080fd5b5061047860048036038101906104739190613bda565b612caf565b60405161048a96959493929190613c60565b60405180910390f35b34801561049f57600080fd5b506104ba60048036038101906104b59190613453565b612f2b565b6040516104c79190613cdd565b60405180910390f35b60606000805467ffffffffffffffff8111156104ef576104ee61380d565b5b60405190808252806020026020018201604052801561052857816020015b61051561331d565b81526020019060019003908161050d5790505b50905060005b600054811015610904578373ffffffffffffffffffffffffffffffffffffffff166007600083815260200190815260200160002060010160009054906101000a900473ffffffffffffffffffffffffffffffffffffffff1673ffffffffffffffffffffffffffffffffffffffff16036108f15760076000828152602001908152602001600020604051806101200160405290816000820160009054906101000a900473ffffffffffffffffffffffffffffffffffffffff1673ffffffffffffffffffffffffffffffffffffffff1673ffffffffffffffffffffffffffffffffffffffff1681526020016001820160009054906101000a900473ffffffffffffffffffffffffffffffffffffffff1673ffffffffffffffffffffffffffffffffffffffff1673ffffffffffffffffffffffffffffffffffffffff16815260200160028201548152602001600382015481526020016004820154815260200160058201805461069a90613f0b565b80601f01602080910402602001604051908101604052809291908181526020018280546106c690613f0b565b80156107135780601f106106e857610100808354040283529160200191610713565b820191906000526020600020905b8154815290600101906020018083116106f657829003601f168201915b5050505050815260200160068201805461072c90613f0b565b80601f016020809104026020016040519081016040528092919081815260200182805461075890613f0b565b80156107a55780601f1061077a576101008083540402835291602001916107a5565b820191906000526020600020905b81548152906001019060200180831161078857829003601f168201915b505050505081526020016007820180546107be90613f0b565b80601f01602080910402602001604051908101604052809291908181526020018280546107ea90613f0b565b80156108375780601f1061080c57610100808354040283529160200191610837565b820191906000526020600020905b81548152906001019060200180831161081a57829003601f168201915b5050505050815260200160088201805461085090613f0b565b80601f016020809104026020016040519081016040528092919081815260200182805461087c90613f0b565b80156108c95780601f1061089e576101008083540402835291602001916108c9565b820191906000526020600020905b8154815290600101906020018083116108ac57829003601f168201915b5050505050815250508282815181106108e5576108e4613f3c565b5b60200260200101819052505b80806108fc90613f9a565b91505061052e565b5080915050919050565b600080600660008473ffffffffffffffffffffffffffffffffffffffff1673ffffffffffffffffffffffffffffffffffffffff168152602001908152602001600020600001805461095e90613f0b565b9050119050919050565b600015156109753361090e565b1515146109b7576040517f08c379a00000000000000000000000000000000000000000000000000000000081526004016109ae9061402e565b60405180910390fd5b600082829050116109fd576040517f08c379a00000000000000000000000000000000000000000000000000000000081526004016109f49061409a565b60405180910390fd5b8181600660003373ffffffffffffffffffffffffffffffffffffffff1673ffffffffffffffffffffffffffffffffffffffff1681526020019081526020016000206000019182610a4e929190614271565b506003604051806040016040528084848080601f016020809104026020016040519081016040528093929190818152602001838380828437600081840152601f19601f8201169050808301925050505050505081526020013373ffffffffffffffffffffffffffffffffffffffff1681525090806001815401808255809150506001900390600052602060002090600202016000909190919091506000820151816000019081610afe9190614341565b5060208201518160010160006101000a81548173ffffffffffffffffffffffffffffffffffffffff021916908373ffffffffffffffffffffffffffffffffffffffff16021790555050505050565b60008054905090565b600060011515610b643361090e565b151514610ba6576040517f08c379a0000000000000000000000000000000000000000000000000000000008152600401610b9d9061445f565b60405180910390fd5b60006040518060c0016040528089898080601f016020809104026020016040519081016040528093929190818152602001838380828437600081840152601f19601f82011690508083019250505050505050815260200187878080601f016020809104026020016040519081016040528093929190818152602001838380828437600081840152601f19601f82011690508083019250505050505050815260200160015481526020013373ffffffffffffffffffffffffffffffffffffffff168152602001858152602001848152509050806008600060015481526020019081526020016000206000820151816000019081610ca29190614341565b506020820151816001019081610cb89190614341565b506040820151816002015560608201518160030160006101000a81548173ffffffffffffffffffffffffffffffffffffffff021916908373ffffffffffffffffffffffffffffffffffffffff1602179055506080820151816004019081610d1f9190614341565b5060a0820151816005019081610d359190614341565b5090505060016000815480929190610d4c90613f9a565b919050555060058190806001815401808255809150506001900390600052602060002090600602016000909190919091506000820151816000019081610d929190614341565b506020820151816001019081610da89190614341565b506040820151816002015560608201518160030160006101000a81548173ffffffffffffffffffffffffffffffffffffffff021916908373ffffffffffffffffffffffffffffffffffffffff1602179055506080820151816004019081610e0f9190614341565b5060a0820151816005019081610e259190614341565b5050506001600260146101000a81548160ff02191690831515021790559150509695505050505050565b6060806000805467ffffffffffffffff811115610e6f57610e6e61380d565b5b604051908082528060200260200182016040528015610ea857816020015b610e9561331d565b815260200190600190039081610e8d5790505b50905060005b600054811015611284578473ffffffffffffffffffffffffffffffffffffffff166007600083815260200190815260200160002060010160009054906101000a900473ffffffffffffffffffffffffffffffffffffffff1673ffffffffffffffffffffffffffffffffffffffff16036112715760076000828152602001908152602001600020604051806101200160405290816000820160009054906101000a900473ffffffffffffffffffffffffffffffffffffffff1673ffffffffffffffffffffffffffffffffffffffff1673ffffffffffffffffffffffffffffffffffffffff1681526020016001820160009054906101000a900473ffffffffffffffffffffffffffffffffffffffff1673ffffffffffffffffffffffffffffffffffffffff1673ffffffffffffffffffffffffffffffffffffffff16815260200160028201548152602001600382015481526020016004820154815260200160058201805461101a90613f0b565b80601f016020809104026020016040519081016040528092919081815260200182805461104690613f0b565b80156110935780601f1061106857610100808354040283529160200191611093565b820191906000526020600020905b81548152906001019060200180831161107657829003601f168201915b505050505081526020016006820180546110ac90613f0b565b80601f01602080910402602001604051908101604052809291908181526020018280546110d890613f0b565b80156111255780601f106110fa57610100808354040283529160200191611125565b820191906000526020600020905b81548152906001019060200180831161110857829003601f168201915b5050505050815260200160078201805461113e90613f0b565b80601f016020809104026020016040519081016040528092919081815260200182805461116a90613f0b565b80156111b75780601f1061118c576101008083540402835291602001916111b7565b820191906000526020600020905b81548152906001019060200180831161119a57829003601f168201915b505050505081526020016008820180546111d090613f0b565b80601f01602080910402602001604051908101604052809291908181526020018280546111fc90613f0b565b80156112495780601f1061121e57610100808354040283529160200191611249565b820191906000526020600020905b81548152906001019060200180831161122c57829003601f168201915b50505050508152505082828151811061126557611264613f3c565b5b60200260200101819052505b808061127c90613f9a565b915050610eae565b50600060015467ffffffffffffffff8111156112a3576112a261380d565b5b6040519080825280602002602001820160405280156112dc57816020015b6112c9613395565b8152602001906001900390816112c15790505b50905060005b60015481101561166b578573ffffffffffffffffffffffffffffffffffffffff166005828154811061131757611316613f3c565b5b906000526020600020906006020160030160009054906101000a900473ffffffffffffffffffffffffffffffffffffffff1673ffffffffffffffffffffffffffffffffffffffff1603611658576005818154811061137857611377613f3c565b5b90600052602060002090600602016040518060c00160405290816000820180546113a190613f0b565b80601f01602080910402602001604051908101604052809291908181526020018280546113cd90613f0b565b801561141a5780601f106113ef5761010080835404028352916020019161141a565b820191906000526020600020905b8154815290600101906020018083116113fd57829003601f168201915b5050505050815260200160018201805461143390613f0b565b80601f016020809104026020016040519081016040528092919081815260200182805461145f90613f0b565b80156114ac5780601f10611481576101008083540402835291602001916114ac565b820191906000526020600020905b81548152906001019060200180831161148f57829003601f168201915b50505050508152602001600282015481526020016003820160009054906101000a900473ffffffffffffffffffffffffffffffffffffffff1673ffffffffffffffffffffffffffffffffffffffff1673ffffffffffffffffffffffffffffffffffffffff16815260200160048201805461152590613f0b565b80601f016020809104026020016040519081016040528092919081815260200182805461155190613f0b565b801561159e5780601f106115735761010080835404028352916020019161159e565b820191906000526020600020905b81548152906001019060200180831161158157829003601f168201915b505050505081526020016005820180546115b790613f0b565b80601f01602080910402602001604051908101604052809291908181526020018280546115e390613f0b565b80156116305780601f1061160557610100808354040283529160200191611630565b820191906000526020600020905b81548152906001019060200180831161161357829003601f168201915b50505050508152505082828151811061164c5761164b613f3c565b5b60200260200101819052505b808061166390613f9a565b9150506112e2565b508181935093505050915091565b6005818154811061168957600080fd5b90600052602060002090600602016000915090508060000180546116ac90613f0b565b80601f01602080910402602001604051908101604052809291908181526020018280546116d890613f0b565b80156117255780601f106116fa57610100808354040283529160200191611725565b820191906000526020600020905b81548152906001019060200180831161170857829003601f168201915b50505050509080600101805461173a90613f0b565b80601f016020809104026020016040519081016040528092919081815260200182805461176690613f0b565b80156117b35780601f10611788576101008083540402835291602001916117b3565b820191906000526020600020905b81548152906001019060200180831161179657829003601f168201915b5050505050908060020154908060030160009054906101000a900473ffffffffffffffffffffffffffffffffffffffff16908060040180546117f490613f0b565b80601f016020809104026020016040519081016040528092919081815260200182805461182090613f0b565b801561186d5780601f106118425761010080835404028352916020019161186d565b820191906000526020600020905b81548152906001019060200180831161185057829003601f168201915b50505050509080600501805461188290613f0b565b80601f01602080910402602001604051908101604052809291908181526020018280546118ae90613f0b565b80156118fb5780601f106118d0576101008083540402835291602001916118fb565b820191906000526020600020905b8154815290600101906020018083116118de57829003601f168201915b5050505050905086565b60606005805480602002602001604051908101604052809291908181526020016000905b82821015611c0357838290600052602060002090600602016040518060c001604052908160008201805461195c90613f0b565b80601f016020809104026020016040519081016040528092919081815260200182805461198890613f0b565b80156119d55780601f106119aa576101008083540402835291602001916119d5565b820191906000526020600020905b8154815290600101906020018083116119b857829003601f168201915b505050505081526020016001820180546119ee90613f0b565b80601f0160208091040260200160405190810160405280929190818152602001828054611a1a90613f0b565b8015611a675780601f10611a3c57610100808354040283529160200191611a67565b820191906000526020600020905b815481529060010190602001808311611a4a57829003601f168201915b50505050508152602001600282015481526020016003820160009054906101000a900473ffffffffffffffffffffffffffffffffffffffff1673ffffffffffffffffffffffffffffffffffffffff1673ffffffffffffffffffffffffffffffffffffffff168152602001600482018054611ae090613f0b565b80601f0160208091040260200160405190810160405280929190818152602001828054611b0c90613f0b565b8015611b595780601f10611b2e57610100808354040283529160200191611b59565b820191906000526020600020905b815481529060010190602001808311611b3c57829003601f168201915b50505050508152602001600582018054611b7290613f0b565b80601f0160208091040260200160405190810160405280929190818152602001828054611b9e90613f0b565b8015611beb5780601f10611bc057610100808354040283529160200191611beb565b820191906000526020600020905b815481529060010190602001808311611bce57829003601f168201915b50505050508152505081526020019060010190611929565b50505050905090565b600060076000838152602001908152602001600020905080600301543414611c69576040517f08c379a0000000000000000000000000000000000000000000000000000000008152600401611c60906144f1565b60405180910390fd5b600073ffffffffffffffffffffffffffffffffffffffff168160010160009054906101000a900473ffffffffffffffffffffffffffffffffffffffff1673ffffffffffffffffffffffffffffffffffffffff1603611cc657600080fd5b600073ffffffffffffffffffffffffffffffffffffffff168160000160009054906101000a900473ffffffffffffffffffffffffffffffffffffffff1673ffffffffffffffffffffffffffffffffffffffff1614611d59576040517f08c379a0000000000000000000000000000000000000000000000000000000008152600401611d509061455d565b60405180910390fd5b8060010160009054906101000a900473ffffffffffffffffffffffffffffffffffffffff1673ffffffffffffffffffffffffffffffffffffffff163373ffffffffffffffffffffffffffffffffffffffff1603611deb576040517f08c379a0000000000000000000000000000000000000000000000000000000008152600401611de2906145ef565b60405180910390fd5b338160000160006101000a81548173ffffffffffffffffffffffffffffffffffffffff021916908373ffffffffffffffffffffffffffffffffffffffff1602179055508060010160009054906101000a900473ffffffffffffffffffffffffffffffffffffffff1673ffffffffffffffffffffffffffffffffffffffff166108fc349081150290604051600060405180830381858888f19350505050158015611e98573d6000803e3d6000fd5b505050565b60076020528060005260406000206000915090508060000160009054906101000a900473ffffffffffffffffffffffffffffffffffffffff16908060010160009054906101000a900473ffffffffffffffffffffffffffffffffffffffff1690806002015490806003015490806004015490806005018054611f1e90613f0b565b80601f0160208091040260200160405190810160405280929190818152602001828054611f4a90613f0b565b8015611f975780601f10611f6c57610100808354040283529160200191611f97565b820191906000526020600020905b815481529060010190602001808311611f7a57829003601f168201915b505050505090806006018054611fac90613f0b565b80601f0160208091040260200160405190810160405280929190818152602001828054611fd890613f0b565b80156120255780601f10611ffa57610100808354040283529160200191612025565b820191906000526020600020905b81548152906001019060200180831161200857829003601f168201915b50505050509080600701805461203a90613f0b565b80601f016020809104026020016040519081016040528092919081815260200182805461206690613f0b565b80156120b35780601f10612088576101008083540402835291602001916120b3565b820191906000526020600020905b81548152906001019060200180831161209657829003601f168201915b5050505050908060080180546120c890613f0b565b80601f01602080910402602001604051908101604052809291908181526020018280546120f490613f0b565b80156121415780601f1061211657610100808354040283529160200191612141565b820191906000526020600020905b81548152906001019060200180831161212457829003601f168201915b5050505050905089565b6004818154811061215b57600080fd5b90600052602060002090600902016000915090508060000160009054906101000a900473ffffffffffffffffffffffffffffffffffffffff16908060010160009054906101000a900473ffffffffffffffffffffffffffffffffffffffff16908060020154908060030154908060040154908060050180546121dc90613f0b565b80601f016020809104026020016040519081016040528092919081815260200182805461220890613f0b565b80156122555780601f1061222a57610100808354040283529160200191612255565b820191906000526020600020905b81548152906001019060200180831161223857829003601f168201915b50505050509080600601805461226a90613f0b565b80601f016020809104026020016040519081016040528092919081815260200182805461229690613f0b565b80156122e35780601f106122b8576101008083540402835291602001916122e3565b820191906000526020600020905b8154815290600101906020018083116122c657829003601f168201915b5050505050908060070180546122f890613f0b565b80601f016020809104026020016040519081016040528092919081815260200182805461232490613f0b565b80156123715780601f1061234657610100808354040283529160200191612371565b820191906000526020600020905b81548152906001019060200180831161235457829003601f168201915b50505050509080600801805461238690613f0b565b80601f01602080910402602001604051908101604052809291908181526020018280546123b290613f0b565b80156123ff5780601f106123d4576101008083540402835291602001916123ff565b820191906000526020600020905b8154815290600101906020018083116123e257829003601f168201915b5050505050905089565b6000600260149054906101000a900460ff16905090565b6001151561242d3361090e565b15151461246f576040517f08c379a00000000000000000000000000000000000000000000000000000000081526004016124669061465b565b60405180910390fd5b60011515600260149054906101000a900460ff161515146124c5576040517f08c379a00000000000000000000000000000000000000000000000000000000081526004016124bc906146ed565b60405180910390fd5b8673ffffffffffffffffffffffffffffffffffffffff163373ffffffffffffffffffffffffffffffffffffffff1614612533576040517f08c379a000000000000000000000000000000000000000000000000000000000815260040161252a90614759565b60405180910390fd5b6000604051806101200160405280600073ffffffffffffffffffffffffffffffffffffffff1681526020013373ffffffffffffffffffffffffffffffffffffffff168152602001600054815260200188815260200187815260200186815260200185815260200184815260200183815250905080600760008054815260200190815260200160002060008201518160000160006101000a81548173ffffffffffffffffffffffffffffffffffffffff021916908373ffffffffffffffffffffffffffffffffffffffff16021790555060208201518160010160006101000a81548173ffffffffffffffffffffffffffffffffffffffff021916908373ffffffffffffffffffffffffffffffffffffffff16021790555060408201518160020155606082015181600301556080820151816004015560a082015181600501908161267c9190614341565b5060c08201518160060190816126929190614341565b5060e08201518160070190816126a89190614341565b506101008201518160080190816126bf9190614341565b509050506000808154809291906126d590613f9a565b9190505550600481908060018154018082558091505060019003906000526020600020906009020160009091909190915060008201518160000160006101000a81548173ffffffffffffffffffffffffffffffffffffffff021916908373ffffffffffffffffffffffffffffffffffffffff16021790555060208201518160010160006101000a81548173ffffffffffffffffffffffffffffffffffffffff021916908373ffffffffffffffffffffffffffffffffffffffff16021790555060408201518160020155606082015181600301556080820151816004015560a08201518160050190816127c79190614341565b5060c08201518160060190816127dd9190614341565b5060e08201518160070190816127f39190614341565b5061010082015181600801908161280a9190614341565b5050505050505050505050565b60606128228261090e565b612861576040517f08c379a0000000000000000000000000000000000000000000000000000000008152600401612858906147c5565b60405180910390fd5b600660008373ffffffffffffffffffffffffffffffffffffffff1673ffffffffffffffffffffffffffffffffffffffff16815260200190815260200160002060000180546128ae90613f0b565b80601f01602080910402602001604051908101604052809291908181526020018280546128da90613f0b565b80156129275780601f106128fc57610100808354040283529160200191612927565b820191906000526020600020905b81548152906001019060200180831161290a57829003601f168201915b50505050509050919050565b60606004805480602002602001604051908101604052809291908181526020016000905b82821015612c9c5783829060005260206000209060090201604051806101200160405290816000820160009054906101000a900473ffffffffffffffffffffffffffffffffffffffff1673ffffffffffffffffffffffffffffffffffffffff1673ffffffffffffffffffffffffffffffffffffffff1681526020016001820160009054906101000a900473ffffffffffffffffffffffffffffffffffffffff1673ffffffffffffffffffffffffffffffffffffffff1673ffffffffffffffffffffffffffffffffffffffff168152602001600282015481526020016003820154815260200160048201548152602001600582018054612a5590613f0b565b80601f0160208091040260200160405190810160405280929190818152602001828054612a8190613f0b565b8015612ace5780601f10612aa357610100808354040283529160200191612ace565b820191906000526020600020905b815481529060010190602001808311612ab157829003601f168201915b50505050508152602001600682018054612ae790613f0b565b80601f0160208091040260200160405190810160405280929190818152602001828054612b1390613f0b565b8015612b605780601f10612b3557610100808354040283529160200191612b60565b820191906000526020600020905b815481529060010190602001808311612b4357829003601f168201915b50505050508152602001600782018054612b7990613f0b565b80601f0160208091040260200160405190810160405280929190818152602001828054612ba590613f0b565b8015612bf25780601f10612bc757610100808354040283529160200191612bf2565b820191906000526020600020905b815481529060010190602001808311612bd557829003601f168201915b50505050508152602001600882018054612c0b90613f0b565b80601f0160208091040260200160405190810160405280929190818152602001828054612c3790613f0b565b8015612c845780601f10612c5957610100808354040283529160200191612c84565b820191906000526020600020905b815481529060010190602001808311612c6757829003601f168201915b50505050508152505081526020019060010190612957565b50505050905090565b6000600154905090565b6008602052806000526040600020600091509050806000018054612cd290613f0b565b80601f0160208091040260200160405190810160405280929190818152602001828054612cfe90613f0b565b8015612d4b5780601f10612d2057610100808354040283529160200191612d4b565b820191906000526020600020905b815481529060010190602001808311612d2e57829003601f168201915b505050505090806001018054612d6090613f0b565b80601f0160208091040260200160405190810160405280929190818152602001828054612d8c90613f0b565b8015612dd95780601f10612dae57610100808354040283529160200191612dd9565b820191906000526020600020905b815481529060010190602001808311612dbc57829003601f168201915b5050505050908060020154908060030160009054906101000a900473ffffffffffffffffffffffffffffffffffffffff1690806004018054612e1a90613f0b565b80601f0160208091040260200160405190810160405280929190818152602001828054612e4690613f0b565b8015612e935780601f10612e6857610100808354040283529160200191612e93565b820191906000526020600020905b815481529060010190602001808311612e7657829003601f168201915b505050505090806005018054612ea890613f0b565b80601f0160208091040260200160405190810160405280929190818152602001828054612ed490613f0b565b8015612f215780601f10612ef657610100808354040283529160200191612f21565b820191906000526020600020905b815481529060010190602001808311612f0457829003601f168201915b5050505050905086565b6060600060015467ffffffffffffffff811115612f4b57612f4a61380d565b5b604051908082528060200260200182016040528015612f8457816020015b612f71613395565b815260200190600190039081612f695790505b50905060005b600154811015613313578373ffffffffffffffffffffffffffffffffffffffff1660058281548110612fbf57612fbe613f3c565b5b906000526020600020906006020160030160009054906101000a900473ffffffffffffffffffffffffffffffffffffffff1673ffffffffffffffffffffffffffffffffffffffff160361330057600581815481106130205761301f613f3c565b5b90600052602060002090600602016040518060c001604052908160008201805461304990613f0b565b80601f016020809104026020016040519081016040528092919081815260200182805461307590613f0b565b80156130c25780601f10613097576101008083540402835291602001916130c2565b820191906000526020600020905b8154815290600101906020018083116130a557829003601f168201915b505050505081526020016001820180546130db90613f0b565b80601f016020809104026020016040519081016040528092919081815260200182805461310790613f0b565b80156131545780601f1061312957610100808354040283529160200191613154565b820191906000526020600020905b81548152906001019060200180831161313757829003601f168201915b50505050508152602001600282015481526020016003820160009054906101000a900473ffffffffffffffffffffffffffffffffffffffff1673ffffffffffffffffffffffffffffffffffffffff1673ffffffffffffffffffffffffffffffffffffffff1681526020016004820180546131cd90613f0b565b80601f01602080910402602001604051908101604052809291908181526020018280546131f990613f0b565b80156132465780601f1061321b57610100808354040283529160200191613246565b820191906000526020600020905b81548152906001019060200180831161322957829003601f168201915b5050505050815260200160058201805461325f90613f0b565b80601f016020809104026020016040519081016040528092919081815260200182805461328b90613f0b565b80156132d85780601f106132ad576101008083540402835291602001916132d8565b820191906000526020600020905b8154815290600101906020018083116132bb57829003601f168201915b5050505050815250508282815181106132f4576132f3613f3c565b5b60200260200101819052505b808061330b90613f9a565b915050612f8a565b5080915050919050565b604051806101200160405280600073ffffffffffffffffffffffffffffffffffffffff168152602001600073ffffffffffffffffffffffffffffffffffffffff168152602001600081526020016000815260200160008152602001606081526020016060815260200160608152602001606081525090565b6040518060c00160405280606081526020016060815260200160008152602001600073ffffffffffffffffffffffffffffffffffffffff16815260200160608152602001606081525090565b6000604051905090565b600080fd5b600080fd5b600073ffffffffffffffffffffffffffffffffffffffff82169050919050565b6000613420826133f5565b9050919050565b61343081613415565b811461343b57600080fd5b50565b60008135905061344d81613427565b92915050565b600060208284031215613469576134686133eb565b5b60006134778482850161343e565b91505092915050565b600081519050919050565b600082825260208201905092915050565b6000819050602082019050919050565b6134b581613415565b82525050565b6000819050919050565b6134ce816134bb565b82525050565b600081519050919050565b600082825260208201905092915050565b60005b8381101561350e5780820151818401526020810190506134f3565b60008484015250505050565b6000601f19601f8301169050919050565b6000613536826134d4565b61354081856134df565b93506135508185602086016134f0565b6135598161351a565b840191505092915050565b60006101208301600083015161357d60008601826134ac565b50602083015161359060208601826134ac565b5060408301516135a360408601826134c5565b5060608301516135b660608601826134c5565b5060808301516135c960808601826134c5565b5060a083015184820360a08601526135e1828261352b565b91505060c083015184820360c08601526135fb828261352b565b91505060e083015184820360e0860152613615828261352b565b915050610100830151848203610100860152613631828261352b565b9150508091505092915050565b600061364a8383613564565b905092915050565b6000602082019050919050565b600061366a82613480565b613674818561348b565b9350836020820285016136868561349c565b8060005b858110156136c257848403895281516136a3858261363e565b94506136ae83613652565b925060208a0199505060018101905061368a565b50829750879550505050505092915050565b600060208201905081810360008301526136ee818461365f565b905092915050565b60008115159050919050565b61370b816136f6565b82525050565b60006020820190506137266000830184613702565b92915050565b600080fd5b600080fd5b600080fd5b60008083601f8401126137515761375061372c565b5b8235905067ffffffffffffffff81111561376e5761376d613731565b5b60208301915083600182028301111561378a57613789613736565b5b9250929050565b600080602083850312156137a8576137a76133eb565b5b600083013567ffffffffffffffff8111156137c6576137c56133f0565b5b6137d28582860161373b565b92509250509250929050565b6137e7816134bb565b82525050565b600060208201905061380260008301846137de565b92915050565b600080fd5b7f4e487b7100000000000000000000000000000000000000000000000000000000600052604160045260246000fd5b6138458261351a565b810181811067ffffffffffffffff821117156138645761386361380d565b5b80604052505050565b60006138776133e1565b9050613883828261383c565b919050565b600067ffffffffffffffff8211156138a3576138a261380d565b5b6138ac8261351a565b9050602081019050919050565b82818337600083830152505050565b60006138db6138d684613888565b61386d565b9050828152602081018484840111156138f7576138f6613808565b5b6139028482856138b9565b509392505050565b600082601f83011261391f5761391e61372c565b5b813561392f8482602086016138c8565b91505092915050565b60008060008060008060808789031215613955576139546133eb565b5b600087013567ffffffffffffffff811115613973576139726133f0565b5b61397f89828a0161373b565b9650965050602087013567ffffffffffffffff8111156139a2576139a16133f0565b5b6139ae89828a0161373b565b9450945050604087013567ffffffffffffffff8111156139d1576139d06133f0565b5b6139dd89828a0161390a565b925050606087013567ffffffffffffffff8111156139fe576139fd6133f0565b5b613a0a89828a0161390a565b9150509295509295509295565b600081519050919050565b600082825260208201905092915050565b6000819050602082019050919050565b600060c0830160008301518482036000860152613a60828261352b565b91505060208301518482036020860152613a7a828261352b565b9150506040830151613a8f60408601826134c5565b506060830151613aa260608601826134ac565b5060808301518482036080860152613aba828261352b565b91505060a083015184820360a0860152613ad4828261352b565b9150508091505092915050565b6000613aed8383613a43565b905092915050565b6000602082019050919050565b6000613b0d82613a17565b613b178185613a22565b935083602082028501613b2985613a33565b8060005b85811015613b655784840389528151613b468582613ae1565b9450613b5183613af5565b925060208a01995050600181019050613b2d565b50829750879550505050505092915050565b60006040820190508181036000830152613b91818561365f565b90508181036020830152613ba58184613b02565b90509392505050565b613bb7816134bb565b8114613bc257600080fd5b50565b600081359050613bd481613bae565b92915050565b600060208284031215613bf057613bef6133eb565b5b6000613bfe84828501613bc5565b91505092915050565b600082825260208201905092915050565b6000613c23826134d4565b613c2d8185613c07565b9350613c3d8185602086016134f0565b613c468161351a565b840191505092915050565b613c5a81613415565b82525050565b600060c0820190508181036000830152613c7a8189613c18565b90508181036020830152613c8e8188613c18565b9050613c9d60408301876137de565b613caa6060830186613c51565b8181036080830152613cbc8185613c18565b905081810360a0830152613cd08184613c18565b9050979650505050505050565b60006020820190508181036000830152613cf78184613b02565b905092915050565b600061012082019050613d15600083018c613c51565b613d22602083018b613c51565b613d2f604083018a6137de565b613d3c60608301896137de565b613d4960808301886137de565b81810360a0830152613d5b8187613c18565b905081810360c0830152613d6f8186613c18565b905081810360e0830152613d838185613c18565b9050818103610100830152613d988184613c18565b90509a9950505050505050505050565b600080600080600080600060e0888a031215613dc757613dc66133eb565b5b6000613dd58a828b0161343e565b9750506020613de68a828b01613bc5565b9650506040613df78a828b01613bc5565b955050606088013567ffffffffffffffff811115613e1857613e176133f0565b5b613e248a828b0161390a565b945050608088013567ffffffffffffffff811115613e4557613e446133f0565b5b613e518a828b0161390a565b93505060a088013567ffffffffffffffff811115613e7257613e716133f0565b5b613e7e8a828b0161390a565b92505060c088013567ffffffffffffffff811115613e9f57613e9e6133f0565b5b613eab8a828b0161390a565b91505092959891949750929550565b60006020820190508181036000830152613ed48184613c18565b905092915050565b7f4e487b7100000000000000000000000000000000000000000000000000000000600052602260045260246000fd5b60006002820490506001821680613f2357607f821691505b602082108103613f3657613f35613edc565b5b50919050565b7f4e487b7100000000000000000000000000000000000000000000000000000000600052603260045260246000fd5b7f4e487b7100000000000000000000000000000000000000000000000000000000600052601160045260246000fd5b6000613fa5826134bb565b91507fffffffffffffffffffffffffffffffffffffffffffffffffffffffffffffffff8203613fd757613fd6613f6b565b5b600182019050919050565b7f5573657220616c72656164792065786973747300000000000000000000000000600082015250565b6000614018601383613c07565b915061402382613fe2565b602082019050919050565b600060208201905081810360008301526140478161400b565b9050919050565b7f557365726e616d652063616e6e6f7420626520656d7074790000000000000000600082015250565b6000614084601883613c07565b915061408f8261404e565b602082019050919050565b600060208201905081810360008301526140b381614077565b9050919050565b600082905092915050565b60008190508160005260206000209050919050565b60006020601f8301049050919050565b600082821b905092915050565b6000600883026141277fffffffffffffffffffffffffffffffffffffffffffffffffffffffffffffffff826140ea565b61413186836140ea565b95508019841693508086168417925050509392505050565b6000819050919050565b600061416e614169614164846134bb565b614149565b6134bb565b9050919050565b6000819050919050565b61418883614153565b61419c61419482614175565b8484546140f7565b825550505050565b600090565b6141b16141a4565b6141bc81848461417f565b505050565b5b818110156141e0576141d56000826141a9565b6001810190506141c2565b5050565b601f821115614225576141f6816140c5565b6141ff846140da565b8101602085101561420e578190505b61422261421a856140da565b8301826141c1565b50505b505050565b600082821c905092915050565b60006142486000198460080261422a565b1980831691505092915050565b60006142618383614237565b9150826002028217905092915050565b61427b83836140ba565b67ffffffffffffffff8111156142945761429361380d565b5b61429e8254613f0b565b6142a98282856141e4565b6000601f8311600181146142d857600084156142c6578287013590505b6142d08582614255565b865550614338565b601f1984166142e6866140c5565b60005b8281101561430e578489013582556001820191506020850194506020810190506142e9565b8683101561432b5784890135614327601f891682614237565b8355505b6001600288020188555050505b50505050505050565b61434a826134d4565b67ffffffffffffffff8111156143635761436261380d565b5b61436d8254613f0b565b6143788282856141e4565b600060209050601f8311600181146143ab5760008415614399578287015190505b6143a38582614255565b86555061440b565b601f1984166143b9866140c5565b60005b828110156143e1578489015182556001820191506020850194506020810190506143bc565b868310156143fe57848901516143fa601f891682614237565b8355505b6001600288020188555050505b505050505050565b7f4163636f756e7473206e65656420746f20622063726561746564000000000000600082015250565b6000614449601a83613c07565b915061445482614413565b602082019050919050565b600060208201905081810360008301526144788161443c565b9050919050565b7f496e76616c696420616d6f756e742073656e7420666f722070726f647563746960008201527f6400000000000000000000000000000000000000000000000000000000000000602082015250565b60006144db602183613c07565b91506144e68261447f565b604082019050919050565b6000602082019050818103600083015261450a816144ce565b9050919050565b7f4974656d20686173206265656e20626f75676874000000000000000000000000600082015250565b6000614547601483613c07565b915061455282614511565b602082019050919050565b600060208201905081810360008301526145768161453a565b9050919050565b7f53656c6c65722063616e6e6f7420627579207468656972206f776e2070726f6460008201527f7563746964000000000000000000000000000000000000000000000000000000602082015250565b60006145d9602583613c07565b91506145e48261457d565b604082019050919050565b60006020820190508181036000830152614608816145cc565b9050919050565b7f4163636f756e7473206e65656420746f20626520637265617465640000000000600082015250565b6000614645601b83613c07565b91506146508261460f565b602082019050919050565b6000602082019050818103600083015261467481614638565b9050919050565b7f796f75206e65656420746f206f776e20612073746f726520746f206c6973742060008201527f70726f6475637473000000000000000000000000000000000000000000000000602082015250565b60006146d7602883613c07565b91506146e28261467b565b604082019050919050565b60006020820190508181036000830152614706816146ca565b9050919050565b7f796f75206e65656420746f20626520612073656c6c6572000000000000000000600082015250565b6000614743601783613c07565b915061474e8261470d565b602082019050919050565b6000602082019050818103600083015261477281614736565b9050919050565b7f55736572206973206e6f74207265676973746572656400000000000000000000600082015250565b60006147af601683613c07565b91506147ba82614779565b602082019050919050565b600060208201905081810360008301526147de816147a2565b905091905056fea264697066735822122071bfd9061979318c6dc1ba9245dc34794bd4d234d70618b18b1dcd4234942c9764736f6c63430008110033",
  "linkReferences": {},
  "deployedLinkReferences": {}
}