{
  "_format": "hh-sol-artifact-1",
  "contractName": "MarketPride",
  "sourceName": "contracts/MarketPride.sol",
  "abi": [
    {
      "inputs": [
        {
          "internalType": "address",
          "name": "pubkey",
          "type": "address"
        }
      ],
      "name": "checkUserExists",
      "outputs": [
        {
          "internalType": "bool",
          "name": "",
          "type": "bool"
        }
      ],
      "stateMutability": "view",
      "type": "function"
    },
    {
      "inputs": [
        {
          "internalType": "string",
          "name": "name",
          "type": "string"
        }
      ],
      "name": "createAccount",
      "outputs": [],
      "stateMutability": "nonpayable",
      "type": "function"
    },
    {
      "inputs": [
        {
          "internalType": "string",
          "name": "_name",
          "type": "string"
        },
        {
          "internalType": "string",
          "name": "_desc",
          "type": "string"
        },
        {
          "internalType": "string",
          "name": "_imageUrl",
          "type": "string"
        },
        {
          "internalType": "string",
          "name": "_coverImage",
          "type": "string"
        }
      ],
      "name": "createStore",
      "outputs": [],
      "stateMutability": "nonpayable",
      "type": "function"
    },
    {
      "inputs": [
        {
          "internalType": "address",
          "name": "_seller",
          "type": "address"
        }
      ],
      "name": "fetchSellerProducts",
      "outputs": [
        {
          "components": [
            {
              "internalType": "address",
              "name": "buyer",
              "type": "address"
            },
            {
              "internalType": "address",
              "name": "seller",
              "type": "address"
            },
            {
              "internalType": "uint256",
              "name": "id",
              "type": "uint256"
            },
            {
              "internalType": "uint256",
              "name": "price",
              "type": "uint256"
            },
            {
              "internalType": "uint256",
              "name": "rating",
              "type": "uint256"
            },
            {
              "internalType": "string",
              "name": "name",
              "type": "string"
            },
            {
              "internalType": "string",
              "name": "description",
              "type": "string"
            },
            {
              "internalType": "string",
              "name": "category",
              "type": "string"
            },
            {
              "internalType": "string",
              "name": "imgUrl",
              "type": "string"
            }
          ],
          "internalType": "struct MarketPride.Product[]",
          "name": "",
          "type": "tuple[]"
        }
      ],
      "stateMutability": "view",
      "type": "function"
    },
    {
      "inputs": [
        {
          "internalType": "address",
          "name": "_creator",
          "type": "address"
        }
      ],
      "name": "fetchSellerStore",
      "outputs": [
        {
          "components": [
            {
              "internalType": "string",
              "name": "name",
              "type": "string"
            },
            {
              "internalType": "string",
              "name": "description",
              "type": "string"
            },
            {
              "internalType": "uint256",
              "name": "id",
              "type": "uint256"
            },
            {
              "internalType": "address",
              "name": "creator",
              "type": "address"
            },
            {
              "internalType": "string",
              "name": "imageUrl",
              "type": "string"
            },
            {
              "internalType": "string",
              "name": "coverImage",
              "type": "string"
            }
          ],
          "internalType": "struct MarketPride.Store[]",
          "name": "",
          "type": "tuple[]"
        }
      ],
      "stateMutability": "view",
      "type": "function"
    },
    {
      "inputs": [],
      "name": "getAllProduct",
      "outputs": [
        {
          "components": [
            {
              "internalType": "address",
              "name": "buyer",
              "type": "address"
            },
            {
              "internalType": "address",
              "name": "seller",
              "type": "address"
            },
            {
              "internalType": "uint256",
              "name": "id",
              "type": "uint256"
            },
            {
              "internalType": "uint256",
              "name": "price",
              "type": "uint256"
            },
            {
              "internalType": "uint256",
              "name": "rating",
              "type": "uint256"
            },
            {
              "internalType": "string",
              "name": "name",
              "type": "string"
            },
            {
              "internalType": "string",
              "name": "description",
              "type": "string"
            },
            {
              "internalType": "string",
              "name": "category",
              "type": "string"
            },
            {
              "internalType": "string",
              "name": "imgUrl",
              "type": "string"
            }
          ],
          "internalType": "struct MarketPride.Product[]",
          "name": "",
          "type": "tuple[]"
        }
      ],
      "stateMutability": "view",
      "type": "function"
    },
    {
      "inputs": [],
      "name": "getAllStore",
      "outputs": [
        {
          "components": [
            {
              "internalType": "string",
              "name": "name",
              "type": "string"
            },
            {
              "internalType": "string",
              "name": "description",
              "type": "string"
            },
            {
              "internalType": "uint256",
              "name": "id",
              "type": "uint256"
            },
            {
              "internalType": "address",
              "name": "creator",
              "type": "address"
            },
            {
              "internalType": "string",
              "name": "imageUrl",
              "type": "string"
            },
            {
              "internalType": "string",
              "name": "coverImage",
              "type": "string"
            }
          ],
          "internalType": "struct MarketPride.Store[]",
          "name": "",
          "type": "tuple[]"
        }
      ],
      "stateMutability": "view",
      "type": "function"
    },
    {
      "inputs": [
        {
          "internalType": "address",
          "name": "_pubkey",
          "type": "address"
        }
      ],
      "name": "getAllUserStoreAndProducts",
      "outputs": [
        {
          "components": [
            {
              "internalType": "address",
              "name": "buyer",
              "type": "address"
            },
            {
              "internalType": "address",
              "name": "seller",
              "type": "address"
            },
            {
              "internalType": "uint256",
              "name": "id",
              "type": "uint256"
            },
            {
              "internalType": "uint256",
              "name": "price",
              "type": "uint256"
            },
            {
              "internalType": "uint256",
              "name": "rating",
              "type": "uint256"
            },
            {
              "internalType": "string",
              "name": "name",
              "type": "string"
            },
            {
              "internalType": "string",
              "name": "description",
              "type": "string"
            },
            {
              "internalType": "string",
              "name": "category",
              "type": "string"
            },
            {
              "internalType": "string",
              "name": "imgUrl",
              "type": "string"
            }
          ],
          "internalType": "struct MarketPride.Product[]",
          "name": "",
          "type": "tuple[]"
        },
        {
          "components": [
            {
              "internalType": "string",
              "name": "name",
              "type": "string"
            },
            {
              "internalType": "string",
              "name": "description",
              "type": "string"
            },
            {
              "internalType": "uint256",
              "name": "id",
              "type": "uint256"
            },
            {
              "internalType": "address",
              "name": "creator",
              "type": "address"
            },
            {
              "internalType": "string",
              "name": "imageUrl",
              "type": "string"
            },
            {
              "internalType": "string",
              "name": "coverImage",
              "type": "string"
            }
          ],
          "internalType": "struct MarketPride.Store[]",
          "name": "",
          "type": "tuple[]"
        }
      ],
      "stateMutability": "view",
      "type": "function"
    },
    {
      "inputs": [],
      "name": "getNumberOfProducts",
      "outputs": [
        {
          "internalType": "uint256",
          "name": "",
          "type": "uint256"
        }
      ],
      "stateMutability": "view",
      "type": "function"
    },
    {
      "inputs": [],
      "name": "getNumberOfStore",
      "outputs": [
        {
          "internalType": "uint256",
          "name": "",
          "type": "uint256"
        }
      ],
      "stateMutability": "view",
      "type": "function"
    },
    {
      "inputs": [
        {
          "internalType": "address",
          "name": "pubkey",
          "type": "address"
        }
      ],
      "name": "getUsername",
      "outputs": [
        {
          "internalType": "string",
          "name": "",
          "type": "string"
        }
      ],
      "stateMutability": "view",
      "type": "function"
    },
    {
      "inputs": [
        {
          "internalType": "uint256",
          "name": "_price",
          "type": "uint256"
        },
        {
          "internalType": "uint256",
          "name": "_rating",
          "type": "uint256"
        },
        {
          "internalType": "string",
          "name": "_name",
          "type": "string"
        },
        {
          "internalType": "string",
          "name": "_description",
          "type": "string"
        },
        {
          "internalType": "string",
          "name": "_category",
          "type": "string"
        },
        {
          "internalType": "string",
          "name": "_imgUrl",
          "type": "string"
        }
      ],
      "name": "listNewProduct",
      "outputs": [],
      "stateMutability": "nonpayable",
      "type": "function"
    },
    {
      "inputs": [
        {
          "internalType": "uint256",
          "name": "_id",
          "type": "uint256"
        }
      ],
      "name": "payForProducts",
      "outputs": [],
      "stateMutability": "payable",
      "type": "function"
    },
    {
      "inputs": [
        {
          "internalType": "uint256",
          "name": "",
          "type": "uint256"
        }
      ],
      "name": "product",
      "outputs": [
        {
          "internalType": "address",
          "name": "buyer",
          "type": "address"
        },
        {
          "internalType": "address",
          "name": "seller",
          "type": "address"
        },
        {
          "internalType": "uint256",
          "name": "id",
          "type": "uint256"
        },
        {
          "internalType": "uint256",
          "name": "price",
          "type": "uint256"
        },
        {
          "internalType": "uint256",
          "name": "rating",
          "type": "uint256"
        },
        {
          "internalType": "string",
          "name": "name",
          "type": "string"
        },
        {
          "internalType": "string",
          "name": "description",
          "type": "string"
        },
        {
          "internalType": "string",
          "name": "category",
          "type": "string"
        },
        {
          "internalType": "string",
          "name": "imgUrl",
          "type": "string"
        }
      ],
      "stateMutability": "view",
      "type": "function"
    },
    {
      "inputs": [
        {
          "internalType": "uint256",
          "name": "",
          "type": "uint256"
        }
      ],
      "name": "products",
      "outputs": [
        {
          "internalType": "address",
          "name": "buyer",
          "type": "address"
        },
        {
          "internalType": "address",
          "name": "seller",
          "type": "address"
        },
        {
          "internalType": "uint256",
          "name": "id",
          "type": "uint256"
        },
        {
          "internalType": "uint256",
          "name": "price",
          "type": "uint256"
        },
        {
          "internalType": "uint256",
          "name": "rating",
          "type": "uint256"
        },
        {
          "internalType": "string",
          "name": "name",
          "type": "string"
        },
        {
          "internalType": "string",
          "name": "description",
          "type": "string"
        },
        {
          "internalType": "string",
          "name": "category",
          "type": "string"
        },
        {
          "internalType": "string",
          "name": "imgUrl",
          "type": "string"
        }
      ],
      "stateMutability": "view",
      "type": "function"
    },
    {
      "inputs": [
        {
          "internalType": "uint256",
          "name": "",
          "type": "uint256"
        }
      ],
      "name": "store",
      "outputs": [
        {
          "internalType": "string",
          "name": "name",
          "type": "string"
        },
        {
          "internalType": "string",
          "name": "description",
          "type": "string"
        },
        {
          "internalType": "uint256",
          "name": "id",
          "type": "uint256"
        },
        {
          "internalType": "address",
          "name": "creator",
          "type": "address"
        },
        {
          "internalType": "string",
          "name": "imageUrl",
          "type": "string"
        },
        {
          "internalType": "string",
          "name": "coverImage",
          "type": "string"
        }
      ],
      "stateMutability": "view",
      "type": "function"
    },
    {
      "inputs": [
        {
          "internalType": "uint256",
          "name": "",
          "type": "uint256"
        }
      ],
      "name": "stores",
      "outputs": [
        {
          "internalType": "string",
          "name": "name",
          "type": "string"
        },
        {
          "internalType": "string",
          "name": "description",
          "type": "string"
        },
        {
          "internalType": "uint256",
          "name": "id",
          "type": "uint256"
        },
        {
          "internalType": "address",
          "name": "creator",
          "type": "address"
        },
        {
          "internalType": "string",
          "name": "imageUrl",
          "type": "string"
        },
        {
          "internalType": "string",
          "name": "coverImage",
          "type": "string"
        }
      ],
      "stateMutability": "view",
      "type": "function"
    }
  ],
  "bytecode": "0x608060405234801561001057600080fd5b506145c2806100206000396000f3fe6080604052600436106100fe5760003560e01c80636592f99a11610095578063ce43c03211610064578063ce43c03214610374578063d055a75f146103b1578063d1217160146103dc578063e8a59cd814610407578063ebe6ac4214610449576100fe565b80636592f99a146102a35780636e7ea446146102ce578063780bd3f1146102ea5780637acc0b201461032f576100fe565b80633ffd81fb116100d15780633ffd81fb146101cf578063508b019e146101fa578063578dc2d1146102235780636057361d14610261576100fe565b806310d91cff14610103578063133f50f514610140578063242bf6dd1461017d578063298daf5b146101a6575b600080fd5b34801561010f57600080fd5b5061012a6004803603810190610125919061330d565b610486565b604051610137919061358e565b60405180910390f35b34801561014c57600080fd5b506101676004803603810190610162919061330d565b6108c4565b60405161017491906135cb565b60405180910390f35b34801561018957600080fd5b506101a4600480360381019061019f9190613747565b61091e565b005b3480156101b257600080fd5b506101cd60048036038101906101c891906138a4565b610c50565b005b3480156101db57600080fd5b506101e4610e34565b6040516101f19190613900565b60405180910390f35b34801561020657600080fd5b50610221600480360381019061021c919061391b565b610e3d565b005b34801561022f57600080fd5b5061024a6004803603810190610245919061330d565b611117565b604051610258929190613b5a565b60405180910390f35b34801561026d57600080fd5b5061028860048036038101906102839190613b91565b611941565b60405161029a96959493929190613c17565b60405180910390f35b3480156102af57600080fd5b506102b8611bcd565b6040516102c59190613c94565b60405180910390f35b6102e860048036038101906102e39190613b91565b611ed4565b005b3480156102f657600080fd5b50610311600480360381019061030c9190613b91565b612165565b60405161032699989796959493929190613cb6565b60405180910390f35b34801561033b57600080fd5b5061035660048036038101906103519190613b91565b612413565b60405161036b99989796959493929190613cb6565b60405180910390f35b34801561038057600080fd5b5061039b6004803603810190610396919061330d565b6126d1565b6040516103a89190613d5f565b60405180910390f35b3480156103bd57600080fd5b506103c66127ed565b6040516103d3919061358e565b60405180910390f35b3480156103e857600080fd5b506103f1612b5f565b6040516103fe9190613900565b60405180910390f35b34801561041357600080fd5b5061042e60048036038101906104299190613b91565b612b69565b60405161044096959493929190613c17565b60405180910390f35b34801561045557600080fd5b50610470600480360381019061046b919061330d565b612de5565b60405161047d9190613c94565b60405180910390f35b60606000805467ffffffffffffffff8111156104a5576104a461361c565b5b6040519080825280602002602001820160405280156104de57816020015b6104cb6131d7565b8152602001906001900390816104c35790505b50905060005b6000548110156108ba578373ffffffffffffffffffffffffffffffffffffffff166007600083815260200190815260200160002060010160009054906101000a900473ffffffffffffffffffffffffffffffffffffffff1673ffffffffffffffffffffffffffffffffffffffff16036108a75760076000828152602001908152602001600020604051806101200160405290816000820160009054906101000a900473ffffffffffffffffffffffffffffffffffffffff1673ffffffffffffffffffffffffffffffffffffffff1673ffffffffffffffffffffffffffffffffffffffff1681526020016001820160009054906101000a900473ffffffffffffffffffffffffffffffffffffffff1673ffffffffffffffffffffffffffffffffffffffff1673ffffffffffffffffffffffffffffffffffffffff16815260200160028201548152602001600382015481526020016004820154815260200160058201805461065090613db0565b80601f016020809104026020016040519081016040528092919081815260200182805461067c90613db0565b80156106c95780601f1061069e576101008083540402835291602001916106c9565b820191906000526020600020905b8154815290600101906020018083116106ac57829003601f168201915b505050505081526020016006820180546106e290613db0565b80601f016020809104026020016040519081016040528092919081815260200182805461070e90613db0565b801561075b5780601f106107305761010080835404028352916020019161075b565b820191906000526020600020905b81548152906001019060200180831161073e57829003601f168201915b5050505050815260200160078201805461077490613db0565b80601f01602080910402602001604051908101604052809291908181526020018280546107a090613db0565b80156107ed5780601f106107c2576101008083540402835291602001916107ed565b820191906000526020600020905b8154815290600101906020018083116107d057829003601f168201915b5050505050815260200160088201805461080690613db0565b80601f016020809104026020016040519081016040528092919081815260200182805461083290613db0565b801561087f5780601f106108545761010080835404028352916020019161087f565b820191906000526020600020905b81548152906001019060200180831161086257829003601f168201915b50505050508152505082828151811061089b5761089a613de1565b5b60200260200101819052505b80806108b290613e3f565b9150506104e4565b5080915050919050565b600080600660008473ffffffffffffffffffffffffffffffffffffffff1673ffffffffffffffffffffffffffffffffffffffff168152602001908152602001600020600001805461091490613db0565b9050119050919050565b6001151561092b336108c4565b15151461096d576040517f08c379a000000000000000000000000000000000000000000000000000000000815260040161096490613ed3565b60405180910390fd5b6000604051806101200160405280600073ffffffffffffffffffffffffffffffffffffffff1681526020013373ffffffffffffffffffffffffffffffffffffffff168152602001600054815260200188815260200187815260200186815260200185815260200184815260200183815250905080600760008054815260200190815260200160002060008201518160000160006101000a81548173ffffffffffffffffffffffffffffffffffffffff021916908373ffffffffffffffffffffffffffffffffffffffff16021790555060208201518160010160006101000a81548173ffffffffffffffffffffffffffffffffffffffff021916908373ffffffffffffffffffffffffffffffffffffffff16021790555060408201518160020155606082015181600301556080820151816004015560a0820151816005019081610ab6919061409f565b5060c0820151816006019081610acc919061409f565b5060e0820151816007019081610ae2919061409f565b50610100820151816008019081610af9919061409f565b50905050600080815480929190610b0f90613e3f565b9190505550600481908060018154018082558091505060019003906000526020600020906009020160009091909190915060008201518160000160006101000a81548173ffffffffffffffffffffffffffffffffffffffff021916908373ffffffffffffffffffffffffffffffffffffffff16021790555060208201518160010160006101000a81548173ffffffffffffffffffffffffffffffffffffffff021916908373ffffffffffffffffffffffffffffffffffffffff16021790555060408201518160020155606082015181600301556080820151816004015560a0820151816005019081610c01919061409f565b5060c0820151816006019081610c17919061409f565b5060e0820151816007019081610c2d919061409f565b50610100820151816008019081610c44919061409f565b50505050505050505050565b60001515610c5d336108c4565b151514610c9f576040517f08c379a0000000000000000000000000000000000000000000000000000000008152600401610c96906141bd565b60405180910390fd5b60008282905011610ce5576040517f08c379a0000000000000000000000000000000000000000000000000000000008152600401610cdc90614229565b60405180910390fd5b8181600660003373ffffffffffffffffffffffffffffffffffffffff1673ffffffffffffffffffffffffffffffffffffffff1681526020019081526020016000206000019182610d36929190614254565b506003604051806040016040528084848080601f016020809104026020016040519081016040528093929190818152602001838380828437600081840152601f19601f8201169050808301925050505050505081526020013373ffffffffffffffffffffffffffffffffffffffff1681525090806001815401808255809150506001900390600052602060002090600202016000909190919091506000820151816000019081610de6919061409f565b5060208201518160010160006101000a81548173ffffffffffffffffffffffffffffffffffffffff021916908373ffffffffffffffffffffffffffffffffffffffff16021790555050505050565b60008054905090565b60011515610e4a336108c4565b151514610e8c576040517f08c379a0000000000000000000000000000000000000000000000000000000008152600401610e8390614370565b60405180910390fd5b60006040518060c0016040528088888080601f016020809104026020016040519081016040528093929190818152602001838380828437600081840152601f19601f82011690508083019250505050505050815260200186868080601f016020809104026020016040519081016040528093929190818152602001838380828437600081840152601f19601f82011690508083019250505050505050815260200160015481526020013373ffffffffffffffffffffffffffffffffffffffff168152602001848152602001838152509050806008600060015481526020019081526020016000206000820151816000019081610f88919061409f565b506020820151816001019081610f9e919061409f565b506040820151816002015560608201518160030160006101000a81548173ffffffffffffffffffffffffffffffffffffffff021916908373ffffffffffffffffffffffffffffffffffffffff1602179055506080820151816004019081611005919061409f565b5060a082015181600501908161101b919061409f565b509050506001600081548092919061103290613e3f565b919050555060058190806001815401808255809150506001900390600052602060002090600602016000909190919091506000820151816000019081611078919061409f565b50602082015181600101908161108e919061409f565b506040820151816002015560608201518160030160006101000a81548173ffffffffffffffffffffffffffffffffffffffff021916908373ffffffffffffffffffffffffffffffffffffffff16021790555060808201518160040190816110f5919061409f565b5060a082015181600501908161110b919061409f565b50505050505050505050565b6060806000805467ffffffffffffffff8111156111375761113661361c565b5b60405190808252806020026020018201604052801561117057816020015b61115d6131d7565b8152602001906001900390816111555790505b50905060005b60005481101561154c578473ffffffffffffffffffffffffffffffffffffffff166007600083815260200190815260200160002060010160009054906101000a900473ffffffffffffffffffffffffffffffffffffffff1673ffffffffffffffffffffffffffffffffffffffff16036115395760076000828152602001908152602001600020604051806101200160405290816000820160009054906101000a900473ffffffffffffffffffffffffffffffffffffffff1673ffffffffffffffffffffffffffffffffffffffff1673ffffffffffffffffffffffffffffffffffffffff1681526020016001820160009054906101000a900473ffffffffffffffffffffffffffffffffffffffff1673ffffffffffffffffffffffffffffffffffffffff1673ffffffffffffffffffffffffffffffffffffffff1681526020016002820154815260200160038201548152602001600482015481526020016005820180546112e290613db0565b80601f016020809104026020016040519081016040528092919081815260200182805461130e90613db0565b801561135b5780601f106113305761010080835404028352916020019161135b565b820191906000526020600020905b81548152906001019060200180831161133e57829003601f168201915b5050505050815260200160068201805461137490613db0565b80601f01602080910402602001604051908101604052809291908181526020018280546113a090613db0565b80156113ed5780601f106113c2576101008083540402835291602001916113ed565b820191906000526020600020905b8154815290600101906020018083116113d057829003601f168201915b5050505050815260200160078201805461140690613db0565b80601f016020809104026020016040519081016040528092919081815260200182805461143290613db0565b801561147f5780601f106114545761010080835404028352916020019161147f565b820191906000526020600020905b81548152906001019060200180831161146257829003601f168201915b5050505050815260200160088201805461149890613db0565b80601f01602080910402602001604051908101604052809291908181526020018280546114c490613db0565b80156115115780601f106114e657610100808354040283529160200191611511565b820191906000526020600020905b8154815290600101906020018083116114f457829003601f168201915b50505050508152505082828151811061152d5761152c613de1565b5b60200260200101819052505b808061154490613e3f565b915050611176565b50600060015467ffffffffffffffff81111561156b5761156a61361c565b5b6040519080825280602002602001820160405280156115a457816020015b61159161324f565b8152602001906001900390816115895790505b50905060005b600154811015611933578573ffffffffffffffffffffffffffffffffffffffff16600582815481106115df576115de613de1565b5b906000526020600020906006020160030160009054906101000a900473ffffffffffffffffffffffffffffffffffffffff1673ffffffffffffffffffffffffffffffffffffffff160361192057600581815481106116405761163f613de1565b5b90600052602060002090600602016040518060c001604052908160008201805461166990613db0565b80601f016020809104026020016040519081016040528092919081815260200182805461169590613db0565b80156116e25780601f106116b7576101008083540402835291602001916116e2565b820191906000526020600020905b8154815290600101906020018083116116c557829003601f168201915b505050505081526020016001820180546116fb90613db0565b80601f016020809104026020016040519081016040528092919081815260200182805461172790613db0565b80156117745780601f1061174957610100808354040283529160200191611774565b820191906000526020600020905b81548152906001019060200180831161175757829003601f168201915b50505050508152602001600282015481526020016003820160009054906101000a900473ffffffffffffffffffffffffffffffffffffffff1673ffffffffffffffffffffffffffffffffffffffff1673ffffffffffffffffffffffffffffffffffffffff1681526020016004820180546117ed90613db0565b80601f016020809104026020016040519081016040528092919081815260200182805461181990613db0565b80156118665780601f1061183b57610100808354040283529160200191611866565b820191906000526020600020905b81548152906001019060200180831161184957829003601f168201915b5050505050815260200160058201805461187f90613db0565b80601f01602080910402602001604051908101604052809291908181526020018280546118ab90613db0565b80156118f85780601f106118cd576101008083540402835291602001916118f8565b820191906000526020600020905b8154815290600101906020018083116118db57829003601f168201915b50505050508152505082828151811061191457611913613de1565b5b60200260200101819052505b808061192b90613e3f565b9150506115aa565b508181935093505050915091565b6005818154811061195157600080fd5b906000526020600020906006020160009150905080600001805461197490613db0565b80601f01602080910402602001604051908101604052809291908181526020018280546119a090613db0565b80156119ed5780601f106119c2576101008083540402835291602001916119ed565b820191906000526020600020905b8154815290600101906020018083116119d057829003601f168201915b505050505090806001018054611a0290613db0565b80601f0160208091040260200160405190810160405280929190818152602001828054611a2e90613db0565b8015611a7b5780601f10611a5057610100808354040283529160200191611a7b565b820191906000526020600020905b815481529060010190602001808311611a5e57829003601f168201915b5050505050908060020154908060030160009054906101000a900473ffffffffffffffffffffffffffffffffffffffff1690806004018054611abc90613db0565b80601f0160208091040260200160405190810160405280929190818152602001828054611ae890613db0565b8015611b355780601f10611b0a57610100808354040283529160200191611b35565b820191906000526020600020905b815481529060010190602001808311611b1857829003601f168201915b505050505090806005018054611b4a90613db0565b80601f0160208091040260200160405190810160405280929190818152602001828054611b7690613db0565b8015611bc35780601f10611b9857610100808354040283529160200191611bc3565b820191906000526020600020905b815481529060010190602001808311611ba657829003601f168201915b5050505050905086565b60606005805480602002602001604051908101604052809291908181526020016000905b82821015611ecb57838290600052602060002090600602016040518060c0016040529081600082018054611c2490613db0565b80601f0160208091040260200160405190810160405280929190818152602001828054611c5090613db0565b8015611c9d5780601f10611c7257610100808354040283529160200191611c9d565b820191906000526020600020905b815481529060010190602001808311611c8057829003601f168201915b50505050508152602001600182018054611cb690613db0565b80601f0160208091040260200160405190810160405280929190818152602001828054611ce290613db0565b8015611d2f5780601f10611d0457610100808354040283529160200191611d2f565b820191906000526020600020905b815481529060010190602001808311611d1257829003601f168201915b50505050508152602001600282015481526020016003820160009054906101000a900473ffffffffffffffffffffffffffffffffffffffff1673ffffffffffffffffffffffffffffffffffffffff1673ffffffffffffffffffffffffffffffffffffffff168152602001600482018054611da890613db0565b80601f0160208091040260200160405190810160405280929190818152602001828054611dd490613db0565b8015611e215780601f10611df657610100808354040283529160200191611e21565b820191906000526020600020905b815481529060010190602001808311611e0457829003601f168201915b50505050508152602001600582018054611e3a90613db0565b80601f0160208091040260200160405190810160405280929190818152602001828054611e6690613db0565b8015611eb35780601f10611e8857610100808354040283529160200191611eb3565b820191906000526020600020905b815481529060010190602001808311611e9657829003601f168201915b50505050508152505081526020019060010190611bf1565b50505050905090565b600060076000838152602001908152602001600020905080600301543414611f31576040517f08c379a0000000000000000000000000000000000000000000000000000000008152600401611f2890614402565b60405180910390fd5b600073ffffffffffffffffffffffffffffffffffffffff168160010160009054906101000a900473ffffffffffffffffffffffffffffffffffffffff1673ffffffffffffffffffffffffffffffffffffffff1603611f8e57600080fd5b600073ffffffffffffffffffffffffffffffffffffffff168160000160009054906101000a900473ffffffffffffffffffffffffffffffffffffffff1673ffffffffffffffffffffffffffffffffffffffff1614612021576040517f08c379a00000000000000000000000000000000000000000000000000000000081526004016120189061446e565b60405180910390fd5b8060010160009054906101000a900473ffffffffffffffffffffffffffffffffffffffff1673ffffffffffffffffffffffffffffffffffffffff163373ffffffffffffffffffffffffffffffffffffffff16036120b3576040517f08c379a00000000000000000000000000000000000000000000000000000000081526004016120aa90614500565b60405180910390fd5b338160000160006101000a81548173ffffffffffffffffffffffffffffffffffffffff021916908373ffffffffffffffffffffffffffffffffffffffff1602179055508060010160009054906101000a900473ffffffffffffffffffffffffffffffffffffffff1673ffffffffffffffffffffffffffffffffffffffff166108fc349081150290604051600060405180830381858888f19350505050158015612160573d6000803e3d6000fd5b505050565b60076020528060005260406000206000915090508060000160009054906101000a900473ffffffffffffffffffffffffffffffffffffffff16908060010160009054906101000a900473ffffffffffffffffffffffffffffffffffffffff16908060020154908060030154908060040154908060050180546121e690613db0565b80601f016020809104026020016040519081016040528092919081815260200182805461221290613db0565b801561225f5780601f106122345761010080835404028352916020019161225f565b820191906000526020600020905b81548152906001019060200180831161224257829003601f168201915b50505050509080600601805461227490613db0565b80601f01602080910402602001604051908101604052809291908181526020018280546122a090613db0565b80156122ed5780601f106122c2576101008083540402835291602001916122ed565b820191906000526020600020905b8154815290600101906020018083116122d057829003601f168201915b50505050509080600701805461230290613db0565b80601f016020809104026020016040519081016040528092919081815260200182805461232e90613db0565b801561237b5780601f106123505761010080835404028352916020019161237b565b820191906000526020600020905b81548152906001019060200180831161235e57829003601f168201915b50505050509080600801805461239090613db0565b80601f01602080910402602001604051908101604052809291908181526020018280546123bc90613db0565b80156124095780601f106123de57610100808354040283529160200191612409565b820191906000526020600020905b8154815290600101906020018083116123ec57829003601f168201915b5050505050905089565b6004818154811061242357600080fd5b90600052602060002090600902016000915090508060000160009054906101000a900473ffffffffffffffffffffffffffffffffffffffff16908060010160009054906101000a900473ffffffffffffffffffffffffffffffffffffffff16908060020154908060030154908060040154908060050180546124a490613db0565b80601f01602080910402602001604051908101604052809291908181526020018280546124d090613db0565b801561251d5780601f106124f25761010080835404028352916020019161251d565b820191906000526020600020905b81548152906001019060200180831161250057829003601f168201915b50505050509080600601805461253290613db0565b80601f016020809104026020016040519081016040528092919081815260200182805461255e90613db0565b80156125ab5780601f10612580576101008083540402835291602001916125ab565b820191906000526020600020905b81548152906001019060200180831161258e57829003601f168201915b5050505050908060070180546125c090613db0565b80601f01602080910402602001604051908101604052809291908181526020018280546125ec90613db0565b80156126395780601f1061260e57610100808354040283529160200191612639565b820191906000526020600020905b81548152906001019060200180831161261c57829003601f168201915b50505050509080600801805461264e90613db0565b80601f016020809104026020016040519081016040528092919081815260200182805461267a90613db0565b80156126c75780601f1061269c576101008083540402835291602001916126c7565b820191906000526020600020905b8154815290600101906020018083116126aa57829003601f168201915b5050505050905089565b60606126dc826108c4565b61271b576040517f08c379a00000000000000000000000000000000000000000000000000000000081526004016127129061456c565b60405180910390fd5b600660008373ffffffffffffffffffffffffffffffffffffffff1673ffffffffffffffffffffffffffffffffffffffff168152602001908152602001600020600001805461276890613db0565b80601f016020809104026020016040519081016040528092919081815260200182805461279490613db0565b80156127e15780601f106127b6576101008083540402835291602001916127e1565b820191906000526020600020905b8154815290600101906020018083116127c457829003601f168201915b50505050509050919050565b60606004805480602002602001604051908101604052809291908181526020016000905b82821015612b565783829060005260206000209060090201604051806101200160405290816000820160009054906101000a900473ffffffffffffffffffffffffffffffffffffffff1673ffffffffffffffffffffffffffffffffffffffff1673ffffffffffffffffffffffffffffffffffffffff1681526020016001820160009054906101000a900473ffffffffffffffffffffffffffffffffffffffff1673ffffffffffffffffffffffffffffffffffffffff1673ffffffffffffffffffffffffffffffffffffffff16815260200160028201548152602001600382015481526020016004820154815260200160058201805461290f90613db0565b80601f016020809104026020016040519081016040528092919081815260200182805461293b90613db0565b80156129885780601f1061295d57610100808354040283529160200191612988565b820191906000526020600020905b81548152906001019060200180831161296b57829003601f168201915b505050505081526020016006820180546129a190613db0565b80601f01602080910402602001604051908101604052809291908181526020018280546129cd90613db0565b8015612a1a5780601f106129ef57610100808354040283529160200191612a1a565b820191906000526020600020905b8154815290600101906020018083116129fd57829003601f168201915b50505050508152602001600782018054612a3390613db0565b80601f0160208091040260200160405190810160405280929190818152602001828054612a5f90613db0565b8015612aac5780601f10612a8157610100808354040283529160200191612aac565b820191906000526020600020905b815481529060010190602001808311612a8f57829003601f168201915b50505050508152602001600882018054612ac590613db0565b80601f0160208091040260200160405190810160405280929190818152602001828054612af190613db0565b8015612b3e5780601f10612b1357610100808354040283529160200191612b3e565b820191906000526020600020905b815481529060010190602001808311612b2157829003601f168201915b50505050508152505081526020019060010190612811565b50505050905090565b6000600154905090565b6008602052806000526040600020600091509050806000018054612b8c90613db0565b80601f0160208091040260200160405190810160405280929190818152602001828054612bb890613db0565b8015612c055780601f10612bda57610100808354040283529160200191612c05565b820191906000526020600020905b815481529060010190602001808311612be857829003601f168201915b505050505090806001018054612c1a90613db0565b80601f0160208091040260200160405190810160405280929190818152602001828054612c4690613db0565b8015612c935780601f10612c6857610100808354040283529160200191612c93565b820191906000526020600020905b815481529060010190602001808311612c7657829003601f168201915b5050505050908060020154908060030160009054906101000a900473ffffffffffffffffffffffffffffffffffffffff1690806004018054612cd490613db0565b80601f0160208091040260200160405190810160405280929190818152602001828054612d0090613db0565b8015612d4d5780601f10612d2257610100808354040283529160200191612d4d565b820191906000526020600020905b815481529060010190602001808311612d3057829003601f168201915b505050505090806005018054612d6290613db0565b80601f0160208091040260200160405190810160405280929190818152602001828054612d8e90613db0565b8015612ddb5780601f10612db057610100808354040283529160200191612ddb565b820191906000526020600020905b815481529060010190602001808311612dbe57829003601f168201915b5050505050905086565b6060600060015467ffffffffffffffff811115612e0557612e0461361c565b5b604051908082528060200260200182016040528015612e3e57816020015b612e2b61324f565b815260200190600190039081612e235790505b50905060005b6001548110156131cd578373ffffffffffffffffffffffffffffffffffffffff1660058281548110612e7957612e78613de1565b5b906000526020600020906006020160030160009054906101000a900473ffffffffffffffffffffffffffffffffffffffff1673ffffffffffffffffffffffffffffffffffffffff16036131ba5760058181548110612eda57612ed9613de1565b5b90600052602060002090600602016040518060c0016040529081600082018054612f0390613db0565b80601f0160208091040260200160405190810160405280929190818152602001828054612f2f90613db0565b8015612f7c5780601f10612f5157610100808354040283529160200191612f7c565b820191906000526020600020905b815481529060010190602001808311612f5f57829003601f168201915b50505050508152602001600182018054612f9590613db0565b80601f0160208091040260200160405190810160405280929190818152602001828054612fc190613db0565b801561300e5780601f10612fe35761010080835404028352916020019161300e565b820191906000526020600020905b815481529060010190602001808311612ff157829003601f168201915b50505050508152602001600282015481526020016003820160009054906101000a900473ffffffffffffffffffffffffffffffffffffffff1673ffffffffffffffffffffffffffffffffffffffff1673ffffffffffffffffffffffffffffffffffffffff16815260200160048201805461308790613db0565b80601f01602080910402602001604051908101604052809291908181526020018280546130b390613db0565b80156131005780601f106130d557610100808354040283529160200191613100565b820191906000526020600020905b8154815290600101906020018083116130e357829003601f168201915b5050505050815260200160058201805461311990613db0565b80601f016020809104026020016040519081016040528092919081815260200182805461314590613db0565b80156131925780601f1061316757610100808354040283529160200191613192565b820191906000526020600020905b81548152906001019060200180831161317557829003601f168201915b5050505050815250508282815181106131ae576131ad613de1565b5b60200260200101819052505b80806131c590613e3f565b915050612e44565b5080915050919050565b604051806101200160405280600073ffffffffffffffffffffffffffffffffffffffff168152602001600073ffffffffffffffffffffffffffffffffffffffff168152602001600081526020016000815260200160008152602001606081526020016060815260200160608152602001606081525090565b6040518060c00160405280606081526020016060815260200160008152602001600073ffffffffffffffffffffffffffffffffffffffff16815260200160608152602001606081525090565b6000604051905090565b600080fd5b600080fd5b600073ffffffffffffffffffffffffffffffffffffffff82169050919050565b60006132da826132af565b9050919050565b6132ea816132cf565b81146132f557600080fd5b50565b600081359050613307816132e1565b92915050565b600060208284031215613323576133226132a5565b5b6000613331848285016132f8565b91505092915050565b600081519050919050565b600082825260208201905092915050565b6000819050602082019050919050565b61336f816132cf565b82525050565b6000819050919050565b61338881613375565b82525050565b600081519050919050565b600082825260208201905092915050565b60005b838110156133c85780820151818401526020810190506133ad565b60008484015250505050565b6000601f19601f8301169050919050565b60006133f08261338e565b6133fa8185613399565b935061340a8185602086016133aa565b613413816133d4565b840191505092915050565b6000610120830160008301516134376000860182613366565b50602083015161344a6020860182613366565b50604083015161345d604086018261337f565b506060830151613470606086018261337f565b506080830151613483608086018261337f565b5060a083015184820360a086015261349b82826133e5565b91505060c083015184820360c08601526134b582826133e5565b91505060e083015184820360e08601526134cf82826133e5565b9150506101008301518482036101008601526134eb82826133e5565b9150508091505092915050565b6000613504838361341e565b905092915050565b6000602082019050919050565b60006135248261333a565b61352e8185613345565b93508360208202850161354085613356565b8060005b8581101561357c578484038952815161355d85826134f8565b94506135688361350c565b925060208a01995050600181019050613544565b50829750879550505050505092915050565b600060208201905081810360008301526135a88184613519565b905092915050565b60008115159050919050565b6135c5816135b0565b82525050565b60006020820190506135e060008301846135bc565b92915050565b6135ef81613375565b81146135fa57600080fd5b50565b60008135905061360c816135e6565b92915050565b600080fd5b600080fd5b7f4e487b7100000000000000000000000000000000000000000000000000000000600052604160045260246000fd5b613654826133d4565b810181811067ffffffffffffffff821117156136735761367261361c565b5b80604052505050565b600061368661329b565b9050613692828261364b565b919050565b600067ffffffffffffffff8211156136b2576136b161361c565b5b6136bb826133d4565b9050602081019050919050565b82818337600083830152505050565b60006136ea6136e584613697565b61367c565b90508281526020810184848401111561370657613705613617565b5b6137118482856136c8565b509392505050565b600082601f83011261372e5761372d613612565b5b813561373e8482602086016136d7565b91505092915050565b60008060008060008060c08789031215613764576137636132a5565b5b600061377289828a016135fd565b965050602061378389828a016135fd565b955050604087013567ffffffffffffffff8111156137a4576137a36132aa565b5b6137b089828a01613719565b945050606087013567ffffffffffffffff8111156137d1576137d06132aa565b5b6137dd89828a01613719565b935050608087013567ffffffffffffffff8111156137fe576137fd6132aa565b5b61380a89828a01613719565b92505060a087013567ffffffffffffffff81111561382b5761382a6132aa565b5b61383789828a01613719565b9150509295509295509295565b600080fd5b600080fd5b60008083601f84011261386457613863613612565b5b8235905067ffffffffffffffff81111561388157613880613844565b5b60208301915083600182028301111561389d5761389c613849565b5b9250929050565b600080602083850312156138bb576138ba6132a5565b5b600083013567ffffffffffffffff8111156138d9576138d86132aa565b5b6138e58582860161384e565b92509250509250929050565b6138fa81613375565b82525050565b600060208201905061391560008301846138f1565b92915050565b60008060008060008060808789031215613938576139376132a5565b5b600087013567ffffffffffffffff811115613956576139556132aa565b5b61396289828a0161384e565b9650965050602087013567ffffffffffffffff811115613985576139846132aa565b5b61399189828a0161384e565b9450945050604087013567ffffffffffffffff8111156139b4576139b36132aa565b5b6139c089828a01613719565b925050606087013567ffffffffffffffff8111156139e1576139e06132aa565b5b6139ed89828a01613719565b9150509295509295509295565b600081519050919050565b600082825260208201905092915050565b6000819050602082019050919050565b600060c0830160008301518482036000860152613a4382826133e5565b91505060208301518482036020860152613a5d82826133e5565b9150506040830151613a72604086018261337f565b506060830151613a856060860182613366565b5060808301518482036080860152613a9d82826133e5565b91505060a083015184820360a0860152613ab782826133e5565b9150508091505092915050565b6000613ad08383613a26565b905092915050565b6000602082019050919050565b6000613af0826139fa565b613afa8185613a05565b935083602082028501613b0c85613a16565b8060005b85811015613b485784840389528151613b298582613ac4565b9450613b3483613ad8565b925060208a01995050600181019050613b10565b50829750879550505050505092915050565b60006040820190508181036000830152613b748185613519565b90508181036020830152613b888184613ae5565b90509392505050565b600060208284031215613ba757613ba66132a5565b5b6000613bb5848285016135fd565b91505092915050565b600082825260208201905092915050565b6000613bda8261338e565b613be48185613bbe565b9350613bf48185602086016133aa565b613bfd816133d4565b840191505092915050565b613c11816132cf565b82525050565b600060c0820190508181036000830152613c318189613bcf565b90508181036020830152613c458188613bcf565b9050613c5460408301876138f1565b613c616060830186613c08565b8181036080830152613c738185613bcf565b905081810360a0830152613c878184613bcf565b9050979650505050505050565b60006020820190508181036000830152613cae8184613ae5565b905092915050565b600061012082019050613ccc600083018c613c08565b613cd9602083018b613c08565b613ce6604083018a6138f1565b613cf360608301896138f1565b613d0060808301886138f1565b81810360a0830152613d128187613bcf565b905081810360c0830152613d268186613bcf565b905081810360e0830152613d3a8185613bcf565b9050818103610100830152613d4f8184613bcf565b90509a9950505050505050505050565b60006020820190508181036000830152613d798184613bcf565b905092915050565b7f4e487b7100000000000000000000000000000000000000000000000000000000600052602260045260246000fd5b60006002820490506001821680613dc857607f821691505b602082108103613ddb57613dda613d81565b5b50919050565b7f4e487b7100000000000000000000000000000000000000000000000000000000600052603260045260246000fd5b7f4e487b7100000000000000000000000000000000000000000000000000000000600052601160045260246000fd5b6000613e4a82613375565b91507fffffffffffffffffffffffffffffffffffffffffffffffffffffffffffffffff8203613e7c57613e7b613e10565b5b600182019050919050565b7f4163636f756e7473206e65656420746f20626520637265617465640000000000600082015250565b6000613ebd601b83613bbe565b9150613ec882613e87565b602082019050919050565b60006020820190508181036000830152613eec81613eb0565b9050919050565b60008190508160005260206000209050919050565b60006020601f8301049050919050565b600082821b905092915050565b600060088302613f557fffffffffffffffffffffffffffffffffffffffffffffffffffffffffffffffff82613f18565b613f5f8683613f18565b95508019841693508086168417925050509392505050565b6000819050919050565b6000613f9c613f97613f9284613375565b613f77565b613375565b9050919050565b6000819050919050565b613fb683613f81565b613fca613fc282613fa3565b848454613f25565b825550505050565b600090565b613fdf613fd2565b613fea818484613fad565b505050565b5b8181101561400e57614003600082613fd7565b600181019050613ff0565b5050565b601f8211156140535761402481613ef3565b61402d84613f08565b8101602085101561403c578190505b61405061404885613f08565b830182613fef565b50505b505050565b600082821c905092915050565b600061407660001984600802614058565b1980831691505092915050565b600061408f8383614065565b9150826002028217905092915050565b6140a88261338e565b67ffffffffffffffff8111156140c1576140c061361c565b5b6140cb8254613db0565b6140d6828285614012565b600060209050601f83116001811461410957600084156140f7578287015190505b6141018582614083565b865550614169565b601f19841661411786613ef3565b60005b8281101561413f5784890151825560018201915060208501945060208101905061411a565b8683101561415c5784890151614158601f891682614065565b8355505b6001600288020188555050505b505050505050565b7f5573657220616c72656164792065786973747300000000000000000000000000600082015250565b60006141a7601383613bbe565b91506141b282614171565b602082019050919050565b600060208201905081810360008301526141d68161419a565b9050919050565b7f557365726e616d652063616e6e6f7420626520656d7074790000000000000000600082015250565b6000614213601883613bbe565b915061421e826141dd565b602082019050919050565b6000602082019050818103600083015261424281614206565b9050919050565b600082905092915050565b61425e8383614249565b67ffffffffffffffff8111156142775761427661361c565b5b6142818254613db0565b61428c828285614012565b6000601f8311600181146142bb57600084156142a9578287013590505b6142b38582614083565b86555061431b565b601f1984166142c986613ef3565b60005b828110156142f1578489013582556001820191506020850194506020810190506142cc565b8683101561430e578489013561430a601f891682614065565b8355505b6001600288020188555050505b50505050505050565b7f4163636f756e7473206e65656420746f20622063726561746564000000000000600082015250565b600061435a601a83613bbe565b915061436582614324565b602082019050919050565b600060208201905081810360008301526143898161434d565b9050919050565b7f496e76616c696420616d6f756e742073656e7420666f722070726f647563746960008201527f6400000000000000000000000000000000000000000000000000000000000000602082015250565b60006143ec602183613bbe565b91506143f782614390565b604082019050919050565b6000602082019050818103600083015261441b816143df565b9050919050565b7f4974656d20686173206265656e20626f75676874000000000000000000000000600082015250565b6000614458601483613bbe565b915061446382614422565b602082019050919050565b600060208201905081810360008301526144878161444b565b9050919050565b7f53656c6c65722063616e6e6f7420627579207468656972206f776e2070726f6460008201527f7563746964000000000000000000000000000000000000000000000000000000602082015250565b60006144ea602583613bbe565b91506144f58261448e565b604082019050919050565b60006020820190508181036000830152614519816144dd565b9050919050565b7f55736572206973206e6f74207265676973746572656400000000000000000000600082015250565b6000614556601683613bbe565b915061456182614520565b602082019050919050565b6000602082019050818103600083015261458581614549565b905091905056fea26469706673582212207be3e30d859b9261d9ce43eb2a51461855e9fef13686630f0de78d6289b67ddc64736f6c63430008110033",
  "linkReferences": {},
  "deployedLinkReferences": {}
}