{
  "_format": "hh-sol-artifact-1",
  "contractName": "MarketPride",
  "sourceName": "contracts/MarketPride.sol",
  "abi": [
    {
      "inputs": [
        {
          "internalType": "address",
          "name": "_seller",
          "type": "address"
        },
        {
          "internalType": "uint256",
          "name": "_productId",
          "type": "uint256"
        },
        {
          "internalType": "uint256",
          "name": "_productAmount",
          "type": "uint256"
        }
      ],
      "name": "addToBlockchain",
      "outputs": [],
      "stateMutability": "nonpayable",
      "type": "function"
    },
    {
      "inputs": [
        {
          "internalType": "address",
          "name": "pubkey",
          "type": "address"
        }
      ],
      "name": "checkUserExists",
      "outputs": [
        {
          "internalType": "bool",
          "name": "",
          "type": "bool"
        }
      ],
      "stateMutability": "view",
      "type": "function"
    },
    {
      "inputs": [
        {
          "internalType": "string",
          "name": "name",
          "type": "string"
        }
      ],
      "name": "createAccount",
      "outputs": [],
      "stateMutability": "nonpayable",
      "type": "function"
    },
    {
      "inputs": [
        {
          "internalType": "string",
          "name": "_name",
          "type": "string"
        },
        {
          "internalType": "string",
          "name": "_desc",
          "type": "string"
        },
        {
          "internalType": "string",
          "name": "_imageUrl",
          "type": "string"
        },
        {
          "internalType": "string",
          "name": "_coverImage",
          "type": "string"
        }
      ],
      "name": "createStore",
      "outputs": [],
      "stateMutability": "nonpayable",
      "type": "function"
    },
    {
      "inputs": [
        {
          "internalType": "address",
          "name": "_seller",
          "type": "address"
        }
      ],
      "name": "fetchSellerProducts",
      "outputs": [
        {
          "components": [
            {
              "internalType": "address",
              "name": "buyer",
              "type": "address"
            },
            {
              "internalType": "address",
              "name": "seller",
              "type": "address"
            },
            {
              "internalType": "uint256",
              "name": "id",
              "type": "uint256"
            },
            {
              "internalType": "uint256",
              "name": "price",
              "type": "uint256"
            },
            {
              "internalType": "uint256",
              "name": "rating",
              "type": "uint256"
            },
            {
              "internalType": "string",
              "name": "name",
              "type": "string"
            },
            {
              "internalType": "string",
              "name": "description",
              "type": "string"
            },
            {
              "internalType": "string",
              "name": "category",
              "type": "string"
            },
            {
              "internalType": "string",
              "name": "imgUrl",
              "type": "string"
            }
          ],
          "internalType": "struct MarketPride.Product[]",
          "name": "",
          "type": "tuple[]"
        }
      ],
      "stateMutability": "view",
      "type": "function"
    },
    {
      "inputs": [
        {
          "internalType": "address",
          "name": "_creator",
          "type": "address"
        }
      ],
      "name": "fetchSellerStore",
      "outputs": [
        {
          "components": [
            {
              "internalType": "string",
              "name": "name",
              "type": "string"
            },
            {
              "internalType": "string",
              "name": "description",
              "type": "string"
            },
            {
              "internalType": "uint256",
              "name": "id",
              "type": "uint256"
            },
            {
              "internalType": "address",
              "name": "creator",
              "type": "address"
            },
            {
              "internalType": "string",
              "name": "imageUrl",
              "type": "string"
            },
            {
              "internalType": "string",
              "name": "coverImage",
              "type": "string"
            }
          ],
          "internalType": "struct MarketPride.Store[]",
          "name": "",
          "type": "tuple[]"
        }
      ],
      "stateMutability": "view",
      "type": "function"
    },
    {
      "inputs": [],
      "name": "getAllProduct",
      "outputs": [
        {
          "components": [
            {
              "internalType": "address",
              "name": "buyer",
              "type": "address"
            },
            {
              "internalType": "address",
              "name": "seller",
              "type": "address"
            },
            {
              "internalType": "uint256",
              "name": "id",
              "type": "uint256"
            },
            {
              "internalType": "uint256",
              "name": "price",
              "type": "uint256"
            },
            {
              "internalType": "uint256",
              "name": "rating",
              "type": "uint256"
            },
            {
              "internalType": "string",
              "name": "name",
              "type": "string"
            },
            {
              "internalType": "string",
              "name": "description",
              "type": "string"
            },
            {
              "internalType": "string",
              "name": "category",
              "type": "string"
            },
            {
              "internalType": "string",
              "name": "imgUrl",
              "type": "string"
            }
          ],
          "internalType": "struct MarketPride.Product[]",
          "name": "",
          "type": "tuple[]"
        }
      ],
      "stateMutability": "view",
      "type": "function"
    },
    {
      "inputs": [],
      "name": "getAllStore",
      "outputs": [
        {
          "components": [
            {
              "internalType": "string",
              "name": "name",
              "type": "string"
            },
            {
              "internalType": "string",
              "name": "description",
              "type": "string"
            },
            {
              "internalType": "uint256",
              "name": "id",
              "type": "uint256"
            },
            {
              "internalType": "address",
              "name": "creator",
              "type": "address"
            },
            {
              "internalType": "string",
              "name": "imageUrl",
              "type": "string"
            },
            {
              "internalType": "string",
              "name": "coverImage",
              "type": "string"
            }
          ],
          "internalType": "struct MarketPride.Store[]",
          "name": "",
          "type": "tuple[]"
        }
      ],
      "stateMutability": "view",
      "type": "function"
    },
    {
      "inputs": [],
      "name": "getAllTransaction",
      "outputs": [
        {
          "components": [
            {
              "internalType": "address",
              "name": "buyer",
              "type": "address"
            },
            {
              "internalType": "address",
              "name": "seller",
              "type": "address"
            },
            {
              "internalType": "uint256",
              "name": "productId",
              "type": "uint256"
            },
            {
              "internalType": "uint256",
              "name": "productAmount",
              "type": "uint256"
            }
          ],
          "internalType": "struct MarketPride.Purchased[]",
          "name": "",
          "type": "tuple[]"
        }
      ],
      "stateMutability": "view",
      "type": "function"
    },
    {
      "inputs": [],
      "name": "getAllTransactionCount",
      "outputs": [
        {
          "internalType": "uint256",
          "name": "",
          "type": "uint256"
        }
      ],
      "stateMutability": "view",
      "type": "function"
    },
    {
      "inputs": [
        {
          "internalType": "address",
          "name": "_pubkey",
          "type": "address"
        }
      ],
      "name": "getAllUserStoreAndProducts",
      "outputs": [
        {
          "components": [
            {
              "internalType": "address",
              "name": "buyer",
              "type": "address"
            },
            {
              "internalType": "address",
              "name": "seller",
              "type": "address"
            },
            {
              "internalType": "uint256",
              "name": "id",
              "type": "uint256"
            },
            {
              "internalType": "uint256",
              "name": "price",
              "type": "uint256"
            },
            {
              "internalType": "uint256",
              "name": "rating",
              "type": "uint256"
            },
            {
              "internalType": "string",
              "name": "name",
              "type": "string"
            },
            {
              "internalType": "string",
              "name": "description",
              "type": "string"
            },
            {
              "internalType": "string",
              "name": "category",
              "type": "string"
            },
            {
              "internalType": "string",
              "name": "imgUrl",
              "type": "string"
            }
          ],
          "internalType": "struct MarketPride.Product[]",
          "name": "",
          "type": "tuple[]"
        },
        {
          "components": [
            {
              "internalType": "string",
              "name": "name",
              "type": "string"
            },
            {
              "internalType": "string",
              "name": "description",
              "type": "string"
            },
            {
              "internalType": "uint256",
              "name": "id",
              "type": "uint256"
            },
            {
              "internalType": "address",
              "name": "creator",
              "type": "address"
            },
            {
              "internalType": "string",
              "name": "imageUrl",
              "type": "string"
            },
            {
              "internalType": "string",
              "name": "coverImage",
              "type": "string"
            }
          ],
          "internalType": "struct MarketPride.Store[]",
          "name": "",
          "type": "tuple[]"
        }
      ],
      "stateMutability": "view",
      "type": "function"
    },
    {
      "inputs": [],
      "name": "getNumberOfProducts",
      "outputs": [
        {
          "internalType": "uint256",
          "name": "",
          "type": "uint256"
        }
      ],
      "stateMutability": "view",
      "type": "function"
    },
    {
      "inputs": [],
      "name": "getNumberOfStore",
      "outputs": [
        {
          "internalType": "uint256",
          "name": "",
          "type": "uint256"
        }
      ],
      "stateMutability": "view",
      "type": "function"
    },
    {
      "inputs": [
        {
          "internalType": "address",
          "name": "pubkey",
          "type": "address"
        }
      ],
      "name": "getUsername",
      "outputs": [
        {
          "internalType": "string",
          "name": "",
          "type": "string"
        }
      ],
      "stateMutability": "view",
      "type": "function"
    },
    {
      "inputs": [
        {
          "internalType": "uint256",
          "name": "_price",
          "type": "uint256"
        },
        {
          "internalType": "uint256",
          "name": "_rating",
          "type": "uint256"
        },
        {
          "internalType": "string",
          "name": "_name",
          "type": "string"
        },
        {
          "internalType": "string",
          "name": "_description",
          "type": "string"
        },
        {
          "internalType": "string",
          "name": "_category",
          "type": "string"
        },
        {
          "internalType": "string",
          "name": "_imgUrl",
          "type": "string"
        }
      ],
      "name": "listNewProduct",
      "outputs": [],
      "stateMutability": "nonpayable",
      "type": "function"
    },
    {
      "inputs": [
        {
          "internalType": "uint256",
          "name": "_id",
          "type": "uint256"
        }
      ],
      "name": "payForProducts",
      "outputs": [],
      "stateMutability": "payable",
      "type": "function"
    },
    {
      "inputs": [
        {
          "internalType": "uint256",
          "name": "",
          "type": "uint256"
        }
      ],
      "name": "product",
      "outputs": [
        {
          "internalType": "address",
          "name": "buyer",
          "type": "address"
        },
        {
          "internalType": "address",
          "name": "seller",
          "type": "address"
        },
        {
          "internalType": "uint256",
          "name": "id",
          "type": "uint256"
        },
        {
          "internalType": "uint256",
          "name": "price",
          "type": "uint256"
        },
        {
          "internalType": "uint256",
          "name": "rating",
          "type": "uint256"
        },
        {
          "internalType": "string",
          "name": "name",
          "type": "string"
        },
        {
          "internalType": "string",
          "name": "description",
          "type": "string"
        },
        {
          "internalType": "string",
          "name": "category",
          "type": "string"
        },
        {
          "internalType": "string",
          "name": "imgUrl",
          "type": "string"
        }
      ],
      "stateMutability": "view",
      "type": "function"
    },
    {
      "inputs": [
        {
          "internalType": "uint256",
          "name": "",
          "type": "uint256"
        }
      ],
      "name": "products",
      "outputs": [
        {
          "internalType": "address",
          "name": "buyer",
          "type": "address"
        },
        {
          "internalType": "address",
          "name": "seller",
          "type": "address"
        },
        {
          "internalType": "uint256",
          "name": "id",
          "type": "uint256"
        },
        {
          "internalType": "uint256",
          "name": "price",
          "type": "uint256"
        },
        {
          "internalType": "uint256",
          "name": "rating",
          "type": "uint256"
        },
        {
          "internalType": "string",
          "name": "name",
          "type": "string"
        },
        {
          "internalType": "string",
          "name": "description",
          "type": "string"
        },
        {
          "internalType": "string",
          "name": "category",
          "type": "string"
        },
        {
          "internalType": "string",
          "name": "imgUrl",
          "type": "string"
        }
      ],
      "stateMutability": "view",
      "type": "function"
    },
    {
      "inputs": [
        {
          "internalType": "uint256",
          "name": "",
          "type": "uint256"
        }
      ],
      "name": "store",
      "outputs": [
        {
          "internalType": "string",
          "name": "name",
          "type": "string"
        },
        {
          "internalType": "string",
          "name": "description",
          "type": "string"
        },
        {
          "internalType": "uint256",
          "name": "id",
          "type": "uint256"
        },
        {
          "internalType": "address",
          "name": "creator",
          "type": "address"
        },
        {
          "internalType": "string",
          "name": "imageUrl",
          "type": "string"
        },
        {
          "internalType": "string",
          "name": "coverImage",
          "type": "string"
        }
      ],
      "stateMutability": "view",
      "type": "function"
    },
    {
      "inputs": [
        {
          "internalType": "uint256",
          "name": "",
          "type": "uint256"
        }
      ],
      "name": "stores",
      "outputs": [
        {
          "internalType": "string",
          "name": "name",
          "type": "string"
        },
        {
          "internalType": "string",
          "name": "description",
          "type": "string"
        },
        {
          "internalType": "uint256",
          "name": "id",
          "type": "uint256"
        },
        {
          "internalType": "address",
          "name": "creator",
          "type": "address"
        },
        {
          "internalType": "string",
          "name": "imageUrl",
          "type": "string"
        },
        {
          "internalType": "string",
          "name": "coverImage",
          "type": "string"
        }
      ],
      "stateMutability": "view",
      "type": "function"
    }
  ],
  "bytecode": "0x608060405234801561001057600080fd5b5061491a806100206000396000f3fe60806040526004361061011f5760003560e01c80636592f99a116100a0578063ce43c03211610064578063ce43c03214610414578063d055a75f14610451578063d12171601461047c578063e8a59cd8146104a7578063ebe6ac42146104e95761011f565b80636592f99a146103185780636e7ea44614610343578063780bd3f11461035f5780637acc0b20146103a4578063add6415d146103e95761011f565b80633ffd81fb116100e75780633ffd81fb14610219578063508b019e14610244578063578dc2d11461026d5780635e4e2520146102ab5780636057361d146102d65761011f565b806310d91cff14610124578063115493e114610161578063133f50f51461018a578063242bf6dd146101c7578063298daf5b146101f0575b600080fd5b34801561013057600080fd5b5061014b60048036038101906101469190613524565b610526565b60405161015891906137a5565b60405180910390f35b34801561016d57600080fd5b50610188600480360381019061018391906137f3565b610965565b005b34801561019657600080fd5b506101b160048036038101906101ac9190613524565b610a9f565b6040516101be9190613861565b60405180910390f35b3480156101d357600080fd5b506101ee60048036038101906101e991906139b1565b610af9565b005b3480156101fc57600080fd5b5061021760048036038101906102129190613b0e565b610e2d565b005b34801561022557600080fd5b5061022e611011565b60405161023b9190613b6a565b60405180910390f35b34801561025057600080fd5b5061026b60048036038101906102669190613b85565b61101b565b005b34801561027957600080fd5b50610294600480360381019061028f9190613524565b6112f5565b6040516102a2929190613dc4565b60405180910390f35b3480156102b757600080fd5b506102c0611b20565b6040516102cd9190613b6a565b60405180910390f35b3480156102e257600080fd5b506102fd60048036038101906102f89190613dfb565b611b29565b60405161030f96959493929190613e81565b60405180910390f35b34801561032457600080fd5b5061032d611db5565b60405161033a9190613efe565b60405180910390f35b61035d60048036038101906103589190613dfb565b6120bc565b005b34801561036b57600080fd5b5061038660048036038101906103819190613dfb565b61225d565b60405161039b99989796959493929190613f20565b60405180910390f35b3480156103b057600080fd5b506103cb60048036038101906103c69190613dfb565b61250b565b6040516103e099989796959493929190613f20565b60405180910390f35b3480156103f557600080fd5b506103fe6127c9565b60405161040b91906140cd565b60405180910390f35b34801561042057600080fd5b5061043b60048036038101906104369190613524565b6128e8565b60405161044891906140ef565b60405180910390f35b34801561045d57600080fd5b50610466612a04565b60405161047391906137a5565b60405180910390f35b34801561048857600080fd5b50610491612d76565b60405161049e9190613b6a565b60405180910390f35b3480156104b357600080fd5b506104ce60048036038101906104c99190613dfb565b612d80565b6040516104e096959493929190613e81565b60405180910390f35b3480156104f557600080fd5b50610510600480360381019061050b9190613524565b612ffc565b60405161051d9190613efe565b60405180910390f35b6060600060015467ffffffffffffffff81111561054657610545613886565b5b60405190808252806020026020018201604052801561057f57816020015b61056c6133ee565b8152602001906001900390816105645790505b50905060005b60015481101561095b578373ffffffffffffffffffffffffffffffffffffffff166008600083815260200190815260200160002060010160009054906101000a900473ffffffffffffffffffffffffffffffffffffffff1673ffffffffffffffffffffffffffffffffffffffff16036109485760086000828152602001908152602001600020604051806101200160405290816000820160009054906101000a900473ffffffffffffffffffffffffffffffffffffffff1673ffffffffffffffffffffffffffffffffffffffff1673ffffffffffffffffffffffffffffffffffffffff1681526020016001820160009054906101000a900473ffffffffffffffffffffffffffffffffffffffff1673ffffffffffffffffffffffffffffffffffffffff1673ffffffffffffffffffffffffffffffffffffffff1681526020016002820154815260200160038201548152602001600482015481526020016005820180546106f190614140565b80601f016020809104026020016040519081016040528092919081815260200182805461071d90614140565b801561076a5780601f1061073f5761010080835404028352916020019161076a565b820191906000526020600020905b81548152906001019060200180831161074d57829003601f168201915b5050505050815260200160068201805461078390614140565b80601f01602080910402602001604051908101604052809291908181526020018280546107af90614140565b80156107fc5780601f106107d1576101008083540402835291602001916107fc565b820191906000526020600020905b8154815290600101906020018083116107df57829003601f168201915b5050505050815260200160078201805461081590614140565b80601f016020809104026020016040519081016040528092919081815260200182805461084190614140565b801561088e5780601f106108635761010080835404028352916020019161088e565b820191906000526020600020905b81548152906001019060200180831161087157829003601f168201915b505050505081526020016008820180546108a790614140565b80601f01602080910402602001604051908101604052809291908181526020018280546108d390614140565b80156109205780601f106108f557610100808354040283529160200191610920565b820191906000526020600020905b81548152906001019060200180831161090357829003601f168201915b50505050508152505082828151811061093c5761093b614171565b5b60200260200101819052505b8080610953906141cf565b915050610585565b5080915050919050565b60016000808282546109779190614217565b92505081905550600a60405180608001604052803373ffffffffffffffffffffffffffffffffffffffff1681526020018573ffffffffffffffffffffffffffffffffffffffff16815260200184815260200183815250908060018154018082558091505060019003906000526020600020906004020160009091909190915060008201518160000160006101000a81548173ffffffffffffffffffffffffffffffffffffffff021916908373ffffffffffffffffffffffffffffffffffffffff16021790555060208201518160010160006101000a81548173ffffffffffffffffffffffffffffffffffffffff021916908373ffffffffffffffffffffffffffffffffffffffff16021790555060408201518160020155606082015181600301555050505050565b600080600760008473ffffffffffffffffffffffffffffffffffffffff1673ffffffffffffffffffffffffffffffffffffffff1681526020019081526020016000206000018054610aef90614140565b9050119050919050565b60011515610b0633610a9f565b151514610b48576040517f08c379a0000000000000000000000000000000000000000000000000000000008152600401610b3f90614297565b60405180910390fd5b6000604051806101200160405280600073ffffffffffffffffffffffffffffffffffffffff1681526020013373ffffffffffffffffffffffffffffffffffffffff16815260200160015481526020018881526020018781526020018681526020018581526020018481526020018381525090508060086000600154815260200190815260200160002060008201518160000160006101000a81548173ffffffffffffffffffffffffffffffffffffffff021916908373ffffffffffffffffffffffffffffffffffffffff16021790555060208201518160010160006101000a81548173ffffffffffffffffffffffffffffffffffffffff021916908373ffffffffffffffffffffffffffffffffffffffff16021790555060408201518160020155606082015181600301556080820151816004015560a0820151816005019081610c929190614463565b5060c0820151816006019081610ca89190614463565b5060e0820151816007019081610cbe9190614463565b50610100820151816008019081610cd59190614463565b5090505060016000815480929190610cec906141cf565b9190505550600581908060018154018082558091505060019003906000526020600020906009020160009091909190915060008201518160000160006101000a81548173ffffffffffffffffffffffffffffffffffffffff021916908373ffffffffffffffffffffffffffffffffffffffff16021790555060208201518160010160006101000a81548173ffffffffffffffffffffffffffffffffffffffff021916908373ffffffffffffffffffffffffffffffffffffffff16021790555060408201518160020155606082015181600301556080820151816004015560a0820151816005019081610dde9190614463565b5060c0820151816006019081610df49190614463565b5060e0820151816007019081610e0a9190614463565b50610100820151816008019081610e219190614463565b50505050505050505050565b60001515610e3a33610a9f565b151514610e7c576040517f08c379a0000000000000000000000000000000000000000000000000000000008152600401610e7390614581565b60405180910390fd5b60008282905011610ec2576040517f08c379a0000000000000000000000000000000000000000000000000000000008152600401610eb9906145ed565b60405180910390fd5b8181600760003373ffffffffffffffffffffffffffffffffffffffff1673ffffffffffffffffffffffffffffffffffffffff1681526020019081526020016000206000019182610f13929190614618565b506004604051806040016040528084848080601f016020809104026020016040519081016040528093929190818152602001838380828437600081840152601f19601f8201169050808301925050505050505081526020013373ffffffffffffffffffffffffffffffffffffffff1681525090806001815401808255809150506001900390600052602060002090600202016000909190919091506000820151816000019081610fc39190614463565b5060208201518160010160006101000a81548173ffffffffffffffffffffffffffffffffffffffff021916908373ffffffffffffffffffffffffffffffffffffffff16021790555050505050565b6000600154905090565b6001151561102833610a9f565b15151461106a576040517f08c379a000000000000000000000000000000000000000000000000000000000815260040161106190614734565b60405180910390fd5b60006040518060c0016040528088888080601f016020809104026020016040519081016040528093929190818152602001838380828437600081840152601f19601f82011690508083019250505050505050815260200186868080601f016020809104026020016040519081016040528093929190818152602001838380828437600081840152601f19601f82011690508083019250505050505050815260200160025481526020013373ffffffffffffffffffffffffffffffffffffffff1681526020018481526020018381525090508060096000600254815260200190815260200160002060008201518160000190816111669190614463565b50602082015181600101908161117c9190614463565b506040820151816002015560608201518160030160006101000a81548173ffffffffffffffffffffffffffffffffffffffff021916908373ffffffffffffffffffffffffffffffffffffffff16021790555060808201518160040190816111e39190614463565b5060a08201518160050190816111f99190614463565b5090505060026000815480929190611210906141cf565b9190505550600681908060018154018082558091505060019003906000526020600020906006020160009091909190915060008201518160000190816112569190614463565b50602082015181600101908161126c9190614463565b506040820151816002015560608201518160030160006101000a81548173ffffffffffffffffffffffffffffffffffffffff021916908373ffffffffffffffffffffffffffffffffffffffff16021790555060808201518160040190816112d39190614463565b5060a08201518160050190816112e99190614463565b50505050505050505050565b606080600060015467ffffffffffffffff81111561131657611315613886565b5b60405190808252806020026020018201604052801561134f57816020015b61133c6133ee565b8152602001906001900390816113345790505b50905060005b60015481101561172b578473ffffffffffffffffffffffffffffffffffffffff166008600083815260200190815260200160002060010160009054906101000a900473ffffffffffffffffffffffffffffffffffffffff1673ffffffffffffffffffffffffffffffffffffffff16036117185760086000828152602001908152602001600020604051806101200160405290816000820160009054906101000a900473ffffffffffffffffffffffffffffffffffffffff1673ffffffffffffffffffffffffffffffffffffffff1673ffffffffffffffffffffffffffffffffffffffff1681526020016001820160009054906101000a900473ffffffffffffffffffffffffffffffffffffffff1673ffffffffffffffffffffffffffffffffffffffff1673ffffffffffffffffffffffffffffffffffffffff1681526020016002820154815260200160038201548152602001600482015481526020016005820180546114c190614140565b80601f01602080910402602001604051908101604052809291908181526020018280546114ed90614140565b801561153a5780601f1061150f5761010080835404028352916020019161153a565b820191906000526020600020905b81548152906001019060200180831161151d57829003601f168201915b5050505050815260200160068201805461155390614140565b80601f016020809104026020016040519081016040528092919081815260200182805461157f90614140565b80156115cc5780601f106115a1576101008083540402835291602001916115cc565b820191906000526020600020905b8154815290600101906020018083116115af57829003601f168201915b505050505081526020016007820180546115e590614140565b80601f016020809104026020016040519081016040528092919081815260200182805461161190614140565b801561165e5780601f106116335761010080835404028352916020019161165e565b820191906000526020600020905b81548152906001019060200180831161164157829003601f168201915b5050505050815260200160088201805461167790614140565b80601f01602080910402602001604051908101604052809291908181526020018280546116a390614140565b80156116f05780601f106116c5576101008083540402835291602001916116f0565b820191906000526020600020905b8154815290600101906020018083116116d357829003601f168201915b50505050508152505082828151811061170c5761170b614171565b5b60200260200101819052505b8080611723906141cf565b915050611355565b50600060025467ffffffffffffffff81111561174a57611749613886565b5b60405190808252806020026020018201604052801561178357816020015b611770613466565b8152602001906001900390816117685790505b50905060005b600254811015611b12578573ffffffffffffffffffffffffffffffffffffffff16600682815481106117be576117bd614171565b5b906000526020600020906006020160030160009054906101000a900473ffffffffffffffffffffffffffffffffffffffff1673ffffffffffffffffffffffffffffffffffffffff1603611aff576006818154811061181f5761181e614171565b5b90600052602060002090600602016040518060c001604052908160008201805461184890614140565b80601f016020809104026020016040519081016040528092919081815260200182805461187490614140565b80156118c15780601f10611896576101008083540402835291602001916118c1565b820191906000526020600020905b8154815290600101906020018083116118a457829003601f168201915b505050505081526020016001820180546118da90614140565b80601f016020809104026020016040519081016040528092919081815260200182805461190690614140565b80156119535780601f1061192857610100808354040283529160200191611953565b820191906000526020600020905b81548152906001019060200180831161193657829003601f168201915b50505050508152602001600282015481526020016003820160009054906101000a900473ffffffffffffffffffffffffffffffffffffffff1673ffffffffffffffffffffffffffffffffffffffff1673ffffffffffffffffffffffffffffffffffffffff1681526020016004820180546119cc90614140565b80601f01602080910402602001604051908101604052809291908181526020018280546119f890614140565b8015611a455780601f10611a1a57610100808354040283529160200191611a45565b820191906000526020600020905b815481529060010190602001808311611a2857829003601f168201915b50505050508152602001600582018054611a5e90614140565b80601f0160208091040260200160405190810160405280929190818152602001828054611a8a90614140565b8015611ad75780601f10611aac57610100808354040283529160200191611ad7565b820191906000526020600020905b815481529060010190602001808311611aba57829003601f168201915b505050505081525050828281518110611af357611af2614171565b5b60200260200101819052505b8080611b0a906141cf565b915050611789565b508181935093505050915091565b60008054905090565b60068181548110611b3957600080fd5b9060005260206000209060060201600091509050806000018054611b5c90614140565b80601f0160208091040260200160405190810160405280929190818152602001828054611b8890614140565b8015611bd55780601f10611baa57610100808354040283529160200191611bd5565b820191906000526020600020905b815481529060010190602001808311611bb857829003601f168201915b505050505090806001018054611bea90614140565b80601f0160208091040260200160405190810160405280929190818152602001828054611c1690614140565b8015611c635780601f10611c3857610100808354040283529160200191611c63565b820191906000526020600020905b815481529060010190602001808311611c4657829003601f168201915b5050505050908060020154908060030160009054906101000a900473ffffffffffffffffffffffffffffffffffffffff1690806004018054611ca490614140565b80601f0160208091040260200160405190810160405280929190818152602001828054611cd090614140565b8015611d1d5780601f10611cf257610100808354040283529160200191611d1d565b820191906000526020600020905b815481529060010190602001808311611d0057829003601f168201915b505050505090806005018054611d3290614140565b80601f0160208091040260200160405190810160405280929190818152602001828054611d5e90614140565b8015611dab5780601f10611d8057610100808354040283529160200191611dab565b820191906000526020600020905b815481529060010190602001808311611d8e57829003601f168201915b5050505050905086565b60606006805480602002602001604051908101604052809291908181526020016000905b828210156120b357838290600052602060002090600602016040518060c0016040529081600082018054611e0c90614140565b80601f0160208091040260200160405190810160405280929190818152602001828054611e3890614140565b8015611e855780601f10611e5a57610100808354040283529160200191611e85565b820191906000526020600020905b815481529060010190602001808311611e6857829003601f168201915b50505050508152602001600182018054611e9e90614140565b80601f0160208091040260200160405190810160405280929190818152602001828054611eca90614140565b8015611f175780601f10611eec57610100808354040283529160200191611f17565b820191906000526020600020905b815481529060010190602001808311611efa57829003601f168201915b50505050508152602001600282015481526020016003820160009054906101000a900473ffffffffffffffffffffffffffffffffffffffff1673ffffffffffffffffffffffffffffffffffffffff1673ffffffffffffffffffffffffffffffffffffffff168152602001600482018054611f9090614140565b80601f0160208091040260200160405190810160405280929190818152602001828054611fbc90614140565b80156120095780601f10611fde57610100808354040283529160200191612009565b820191906000526020600020905b815481529060010190602001808311611fec57829003601f168201915b5050505050815260200160058201805461202290614140565b80601f016020809104026020016040519081016040528092919081815260200182805461204e90614140565b801561209b5780601f106120705761010080835404028352916020019161209b565b820191906000526020600020905b81548152906001019060200180831161207e57829003601f168201915b50505050508152505081526020019060010190611dd9565b50505050905090565b600060086000838152602001908152602001600020905080600301543414612119576040517f08c379a0000000000000000000000000000000000000000000000000000000008152600401612110906147c6565b60405180910390fd5b8060010160009054906101000a900473ffffffffffffffffffffffffffffffffffffffff1673ffffffffffffffffffffffffffffffffffffffff163373ffffffffffffffffffffffffffffffffffffffff16036121ab576040517f08c379a00000000000000000000000000000000000000000000000000000000081526004016121a290614858565b60405180910390fd5b338160000160006101000a81548173ffffffffffffffffffffffffffffffffffffffff021916908373ffffffffffffffffffffffffffffffffffffffff1602179055508060010160009054906101000a900473ffffffffffffffffffffffffffffffffffffffff1673ffffffffffffffffffffffffffffffffffffffff166108fc349081150290604051600060405180830381858888f19350505050158015612258573d6000803e3d6000fd5b505050565b60086020528060005260406000206000915090508060000160009054906101000a900473ffffffffffffffffffffffffffffffffffffffff16908060010160009054906101000a900473ffffffffffffffffffffffffffffffffffffffff16908060020154908060030154908060040154908060050180546122de90614140565b80601f016020809104026020016040519081016040528092919081815260200182805461230a90614140565b80156123575780601f1061232c57610100808354040283529160200191612357565b820191906000526020600020905b81548152906001019060200180831161233a57829003601f168201915b50505050509080600601805461236c90614140565b80601f016020809104026020016040519081016040528092919081815260200182805461239890614140565b80156123e55780601f106123ba576101008083540402835291602001916123e5565b820191906000526020600020905b8154815290600101906020018083116123c857829003601f168201915b5050505050908060070180546123fa90614140565b80601f016020809104026020016040519081016040528092919081815260200182805461242690614140565b80156124735780601f1061244857610100808354040283529160200191612473565b820191906000526020600020905b81548152906001019060200180831161245657829003601f168201915b50505050509080600801805461248890614140565b80601f01602080910402602001604051908101604052809291908181526020018280546124b490614140565b80156125015780601f106124d657610100808354040283529160200191612501565b820191906000526020600020905b8154815290600101906020018083116124e457829003601f168201915b5050505050905089565b6005818154811061251b57600080fd5b90600052602060002090600902016000915090508060000160009054906101000a900473ffffffffffffffffffffffffffffffffffffffff16908060010160009054906101000a900473ffffffffffffffffffffffffffffffffffffffff169080600201549080600301549080600401549080600501805461259c90614140565b80601f01602080910402602001604051908101604052809291908181526020018280546125c890614140565b80156126155780601f106125ea57610100808354040283529160200191612615565b820191906000526020600020905b8154815290600101906020018083116125f857829003601f168201915b50505050509080600601805461262a90614140565b80601f016020809104026020016040519081016040528092919081815260200182805461265690614140565b80156126a35780601f10612678576101008083540402835291602001916126a3565b820191906000526020600020905b81548152906001019060200180831161268657829003601f168201915b5050505050908060070180546126b890614140565b80601f01602080910402602001604051908101604052809291908181526020018280546126e490614140565b80156127315780601f1061270657610100808354040283529160200191612731565b820191906000526020600020905b81548152906001019060200180831161271457829003601f168201915b50505050509080600801805461274690614140565b80601f016020809104026020016040519081016040528092919081815260200182805461277290614140565b80156127bf5780601f10612794576101008083540402835291602001916127bf565b820191906000526020600020905b8154815290600101906020018083116127a257829003601f168201915b5050505050905089565b6060600a805480602002602001604051908101604052809291908181526020016000905b828210156128df57838290600052602060002090600402016040518060800160405290816000820160009054906101000a900473ffffffffffffffffffffffffffffffffffffffff1673ffffffffffffffffffffffffffffffffffffffff1673ffffffffffffffffffffffffffffffffffffffff1681526020016001820160009054906101000a900473ffffffffffffffffffffffffffffffffffffffff1673ffffffffffffffffffffffffffffffffffffffff1673ffffffffffffffffffffffffffffffffffffffff16815260200160028201548152602001600382015481525050815260200190600101906127ed565b50505050905090565b60606128f382610a9f565b612932576040517f08c379a0000000000000000000000000000000000000000000000000000000008152600401612929906148c4565b60405180910390fd5b600760008373ffffffffffffffffffffffffffffffffffffffff1673ffffffffffffffffffffffffffffffffffffffff168152602001908152602001600020600001805461297f90614140565b80601f01602080910402602001604051908101604052809291908181526020018280546129ab90614140565b80156129f85780601f106129cd576101008083540402835291602001916129f8565b820191906000526020600020905b8154815290600101906020018083116129db57829003601f168201915b50505050509050919050565b60606005805480602002602001604051908101604052809291908181526020016000905b82821015612d6d5783829060005260206000209060090201604051806101200160405290816000820160009054906101000a900473ffffffffffffffffffffffffffffffffffffffff1673ffffffffffffffffffffffffffffffffffffffff1673ffffffffffffffffffffffffffffffffffffffff1681526020016001820160009054906101000a900473ffffffffffffffffffffffffffffffffffffffff1673ffffffffffffffffffffffffffffffffffffffff1673ffffffffffffffffffffffffffffffffffffffff168152602001600282015481526020016003820154815260200160048201548152602001600582018054612b2690614140565b80601f0160208091040260200160405190810160405280929190818152602001828054612b5290614140565b8015612b9f5780601f10612b7457610100808354040283529160200191612b9f565b820191906000526020600020905b815481529060010190602001808311612b8257829003601f168201915b50505050508152602001600682018054612bb890614140565b80601f0160208091040260200160405190810160405280929190818152602001828054612be490614140565b8015612c315780601f10612c0657610100808354040283529160200191612c31565b820191906000526020600020905b815481529060010190602001808311612c1457829003601f168201915b50505050508152602001600782018054612c4a90614140565b80601f0160208091040260200160405190810160405280929190818152602001828054612c7690614140565b8015612cc35780601f10612c9857610100808354040283529160200191612cc3565b820191906000526020600020905b815481529060010190602001808311612ca657829003601f168201915b50505050508152602001600882018054612cdc90614140565b80601f0160208091040260200160405190810160405280929190818152602001828054612d0890614140565b8015612d555780601f10612d2a57610100808354040283529160200191612d55565b820191906000526020600020905b815481529060010190602001808311612d3857829003601f168201915b50505050508152505081526020019060010190612a28565b50505050905090565b6000600254905090565b6009602052806000526040600020600091509050806000018054612da390614140565b80601f0160208091040260200160405190810160405280929190818152602001828054612dcf90614140565b8015612e1c5780601f10612df157610100808354040283529160200191612e1c565b820191906000526020600020905b815481529060010190602001808311612dff57829003601f168201915b505050505090806001018054612e3190614140565b80601f0160208091040260200160405190810160405280929190818152602001828054612e5d90614140565b8015612eaa5780601f10612e7f57610100808354040283529160200191612eaa565b820191906000526020600020905b815481529060010190602001808311612e8d57829003601f168201915b5050505050908060020154908060030160009054906101000a900473ffffffffffffffffffffffffffffffffffffffff1690806004018054612eeb90614140565b80601f0160208091040260200160405190810160405280929190818152602001828054612f1790614140565b8015612f645780601f10612f3957610100808354040283529160200191612f64565b820191906000526020600020905b815481529060010190602001808311612f4757829003601f168201915b505050505090806005018054612f7990614140565b80601f0160208091040260200160405190810160405280929190818152602001828054612fa590614140565b8015612ff25780601f10612fc757610100808354040283529160200191612ff2565b820191906000526020600020905b815481529060010190602001808311612fd557829003601f168201915b5050505050905086565b6060600060025467ffffffffffffffff81111561301c5761301b613886565b5b60405190808252806020026020018201604052801561305557816020015b613042613466565b81526020019060019003908161303a5790505b50905060005b6002548110156133e4578373ffffffffffffffffffffffffffffffffffffffff16600682815481106130905761308f614171565b5b906000526020600020906006020160030160009054906101000a900473ffffffffffffffffffffffffffffffffffffffff1673ffffffffffffffffffffffffffffffffffffffff16036133d157600681815481106130f1576130f0614171565b5b90600052602060002090600602016040518060c001604052908160008201805461311a90614140565b80601f016020809104026020016040519081016040528092919081815260200182805461314690614140565b80156131935780601f1061316857610100808354040283529160200191613193565b820191906000526020600020905b81548152906001019060200180831161317657829003601f168201915b505050505081526020016001820180546131ac90614140565b80601f01602080910402602001604051908101604052809291908181526020018280546131d890614140565b80156132255780601f106131fa57610100808354040283529160200191613225565b820191906000526020600020905b81548152906001019060200180831161320857829003601f168201915b50505050508152602001600282015481526020016003820160009054906101000a900473ffffffffffffffffffffffffffffffffffffffff1673ffffffffffffffffffffffffffffffffffffffff1673ffffffffffffffffffffffffffffffffffffffff16815260200160048201805461329e90614140565b80601f01602080910402602001604051908101604052809291908181526020018280546132ca90614140565b80156133175780601f106132ec57610100808354040283529160200191613317565b820191906000526020600020905b8154815290600101906020018083116132fa57829003601f168201915b5050505050815260200160058201805461333090614140565b80601f016020809104026020016040519081016040528092919081815260200182805461335c90614140565b80156133a95780601f1061337e576101008083540402835291602001916133a9565b820191906000526020600020905b81548152906001019060200180831161338c57829003601f168201915b5050505050815250508282815181106133c5576133c4614171565b5b60200260200101819052505b80806133dc906141cf565b91505061305b565b5080915050919050565b604051806101200160405280600073ffffffffffffffffffffffffffffffffffffffff168152602001600073ffffffffffffffffffffffffffffffffffffffff168152602001600081526020016000815260200160008152602001606081526020016060815260200160608152602001606081525090565b6040518060c00160405280606081526020016060815260200160008152602001600073ffffffffffffffffffffffffffffffffffffffff16815260200160608152602001606081525090565b6000604051905090565b600080fd5b600080fd5b600073ffffffffffffffffffffffffffffffffffffffff82169050919050565b60006134f1826134c6565b9050919050565b613501816134e6565b811461350c57600080fd5b50565b60008135905061351e816134f8565b92915050565b60006020828403121561353a576135396134bc565b5b60006135488482850161350f565b91505092915050565b600081519050919050565b600082825260208201905092915050565b6000819050602082019050919050565b613586816134e6565b82525050565b6000819050919050565b61359f8161358c565b82525050565b600081519050919050565b600082825260208201905092915050565b60005b838110156135df5780820151818401526020810190506135c4565b60008484015250505050565b6000601f19601f8301169050919050565b6000613607826135a5565b61361181856135b0565b93506136218185602086016135c1565b61362a816135eb565b840191505092915050565b60006101208301600083015161364e600086018261357d565b506020830151613661602086018261357d565b5060408301516136746040860182613596565b5060608301516136876060860182613596565b50608083015161369a6080860182613596565b5060a083015184820360a08601526136b282826135fc565b91505060c083015184820360c08601526136cc82826135fc565b91505060e083015184820360e08601526136e682826135fc565b91505061010083015184820361010086015261370282826135fc565b9150508091505092915050565b600061371b8383613635565b905092915050565b6000602082019050919050565b600061373b82613551565b613745818561355c565b9350836020820285016137578561356d565b8060005b858110156137935784840389528151613774858261370f565b945061377f83613723565b925060208a0199505060018101905061375b565b50829750879550505050505092915050565b600060208201905081810360008301526137bf8184613730565b905092915050565b6137d08161358c565b81146137db57600080fd5b50565b6000813590506137ed816137c7565b92915050565b60008060006060848603121561380c5761380b6134bc565b5b600061381a8682870161350f565b935050602061382b868287016137de565b925050604061383c868287016137de565b9150509250925092565b60008115159050919050565b61385b81613846565b82525050565b60006020820190506138766000830184613852565b92915050565b600080fd5b600080fd5b7f4e487b7100000000000000000000000000000000000000000000000000000000600052604160045260246000fd5b6138be826135eb565b810181811067ffffffffffffffff821117156138dd576138dc613886565b5b80604052505050565b60006138f06134b2565b90506138fc82826138b5565b919050565b600067ffffffffffffffff82111561391c5761391b613886565b5b613925826135eb565b9050602081019050919050565b82818337600083830152505050565b600061395461394f84613901565b6138e6565b9050828152602081018484840111156139705761396f613881565b5b61397b848285613932565b509392505050565b600082601f8301126139985761399761387c565b5b81356139a8848260208601613941565b91505092915050565b60008060008060008060c087890312156139ce576139cd6134bc565b5b60006139dc89828a016137de565b96505060206139ed89828a016137de565b955050604087013567ffffffffffffffff811115613a0e57613a0d6134c1565b5b613a1a89828a01613983565b945050606087013567ffffffffffffffff811115613a3b57613a3a6134c1565b5b613a4789828a01613983565b935050608087013567ffffffffffffffff811115613a6857613a676134c1565b5b613a7489828a01613983565b92505060a087013567ffffffffffffffff811115613a9557613a946134c1565b5b613aa189828a01613983565b9150509295509295509295565b600080fd5b600080fd5b60008083601f840112613ace57613acd61387c565b5b8235905067ffffffffffffffff811115613aeb57613aea613aae565b5b602083019150836001820283011115613b0757613b06613ab3565b5b9250929050565b60008060208385031215613b2557613b246134bc565b5b600083013567ffffffffffffffff811115613b4357613b426134c1565b5b613b4f85828601613ab8565b92509250509250929050565b613b648161358c565b82525050565b6000602082019050613b7f6000830184613b5b565b92915050565b60008060008060008060808789031215613ba257613ba16134bc565b5b600087013567ffffffffffffffff811115613bc057613bbf6134c1565b5b613bcc89828a01613ab8565b9650965050602087013567ffffffffffffffff811115613bef57613bee6134c1565b5b613bfb89828a01613ab8565b9450945050604087013567ffffffffffffffff811115613c1e57613c1d6134c1565b5b613c2a89828a01613983565b925050606087013567ffffffffffffffff811115613c4b57613c4a6134c1565b5b613c5789828a01613983565b9150509295509295509295565b600081519050919050565b600082825260208201905092915050565b6000819050602082019050919050565b600060c0830160008301518482036000860152613cad82826135fc565b91505060208301518482036020860152613cc782826135fc565b9150506040830151613cdc6040860182613596565b506060830151613cef606086018261357d565b5060808301518482036080860152613d0782826135fc565b91505060a083015184820360a0860152613d2182826135fc565b9150508091505092915050565b6000613d3a8383613c90565b905092915050565b6000602082019050919050565b6000613d5a82613c64565b613d648185613c6f565b935083602082028501613d7685613c80565b8060005b85811015613db25784840389528151613d938582613d2e565b9450613d9e83613d42565b925060208a01995050600181019050613d7a565b50829750879550505050505092915050565b60006040820190508181036000830152613dde8185613730565b90508181036020830152613df28184613d4f565b90509392505050565b600060208284031215613e1157613e106134bc565b5b6000613e1f848285016137de565b91505092915050565b600082825260208201905092915050565b6000613e44826135a5565b613e4e8185613e28565b9350613e5e8185602086016135c1565b613e67816135eb565b840191505092915050565b613e7b816134e6565b82525050565b600060c0820190508181036000830152613e9b8189613e39565b90508181036020830152613eaf8188613e39565b9050613ebe6040830187613b5b565b613ecb6060830186613e72565b8181036080830152613edd8185613e39565b905081810360a0830152613ef18184613e39565b9050979650505050505050565b60006020820190508181036000830152613f188184613d4f565b905092915050565b600061012082019050613f36600083018c613e72565b613f43602083018b613e72565b613f50604083018a613b5b565b613f5d6060830189613b5b565b613f6a6080830188613b5b565b81810360a0830152613f7c8187613e39565b905081810360c0830152613f908186613e39565b905081810360e0830152613fa48185613e39565b9050818103610100830152613fb98184613e39565b90509a9950505050505050505050565b600081519050919050565b600082825260208201905092915050565b6000819050602082019050919050565b60808201600082015161400b600085018261357d565b50602082015161401e602085018261357d565b5060408201516140316040850182613596565b5060608201516140446060850182613596565b50505050565b60006140568383613ff5565b60808301905092915050565b6000602082019050919050565b600061407a82613fc9565b6140848185613fd4565b935061408f83613fe5565b8060005b838110156140c05781516140a7888261404a565b97506140b283614062565b925050600181019050614093565b5085935050505092915050565b600060208201905081810360008301526140e7818461406f565b905092915050565b600060208201905081810360008301526141098184613e39565b905092915050565b7f4e487b7100000000000000000000000000000000000000000000000000000000600052602260045260246000fd5b6000600282049050600182168061415857607f821691505b60208210810361416b5761416a614111565b5b50919050565b7f4e487b7100000000000000000000000000000000000000000000000000000000600052603260045260246000fd5b7f4e487b7100000000000000000000000000000000000000000000000000000000600052601160045260246000fd5b60006141da8261358c565b91507fffffffffffffffffffffffffffffffffffffffffffffffffffffffffffffffff820361420c5761420b6141a0565b5b600182019050919050565b60006142228261358c565b915061422d8361358c565b9250828201905080821115614245576142446141a0565b5b92915050565b7f4163636f756e7473206e65656420746f20626520637265617465640000000000600082015250565b6000614281601b83613e28565b915061428c8261424b565b602082019050919050565b600060208201905081810360008301526142b081614274565b9050919050565b60008190508160005260206000209050919050565b60006020601f8301049050919050565b600082821b905092915050565b6000600883026143197fffffffffffffffffffffffffffffffffffffffffffffffffffffffffffffffff826142dc565b61432386836142dc565b95508019841693508086168417925050509392505050565b6000819050919050565b600061436061435b6143568461358c565b61433b565b61358c565b9050919050565b6000819050919050565b61437a83614345565b61438e61438682614367565b8484546142e9565b825550505050565b600090565b6143a3614396565b6143ae818484614371565b505050565b5b818110156143d2576143c760008261439b565b6001810190506143b4565b5050565b601f821115614417576143e8816142b7565b6143f1846142cc565b81016020851015614400578190505b61441461440c856142cc565b8301826143b3565b50505b505050565b600082821c905092915050565b600061443a6000198460080261441c565b1980831691505092915050565b60006144538383614429565b9150826002028217905092915050565b61446c826135a5565b67ffffffffffffffff81111561448557614484613886565b5b61448f8254614140565b61449a8282856143d6565b600060209050601f8311600181146144cd57600084156144bb578287015190505b6144c58582614447565b86555061452d565b601f1984166144db866142b7565b60005b82811015614503578489015182556001820191506020850194506020810190506144de565b86831015614520578489015161451c601f891682614429565b8355505b6001600288020188555050505b505050505050565b7f5573657220616c72656164792065786973747300000000000000000000000000600082015250565b600061456b601383613e28565b915061457682614535565b602082019050919050565b6000602082019050818103600083015261459a8161455e565b9050919050565b7f557365726e616d652063616e6e6f7420626520656d7074790000000000000000600082015250565b60006145d7601883613e28565b91506145e2826145a1565b602082019050919050565b60006020820190508181036000830152614606816145ca565b9050919050565b600082905092915050565b614622838361460d565b67ffffffffffffffff81111561463b5761463a613886565b5b6146458254614140565b6146508282856143d6565b6000601f83116001811461467f576000841561466d578287013590505b6146778582614447565b8655506146df565b601f19841661468d866142b7565b60005b828110156146b557848901358255600182019150602085019450602081019050614690565b868310156146d257848901356146ce601f891682614429565b8355505b6001600288020188555050505b50505050505050565b7f4163636f756e7473206e65656420746f20622063726561746564000000000000600082015250565b600061471e601a83613e28565b9150614729826146e8565b602082019050919050565b6000602082019050818103600083015261474d81614711565b9050919050565b7f496e76616c696420616d6f756e742073656e7420666f722070726f647563746960008201527f6400000000000000000000000000000000000000000000000000000000000000602082015250565b60006147b0602183613e28565b91506147bb82614754565b604082019050919050565b600060208201905081810360008301526147df816147a3565b9050919050565b7f53656c6c65722063616e6e6f7420627579207468656972206f776e2070726f6460008201527f7563746964000000000000000000000000000000000000000000000000000000602082015250565b6000614842602583613e28565b915061484d826147e6565b604082019050919050565b6000602082019050818103600083015261487181614835565b9050919050565b7f55736572206973206e6f74207265676973746572656400000000000000000000600082015250565b60006148ae601683613e28565b91506148b982614878565b602082019050919050565b600060208201905081810360008301526148dd816148a1565b905091905056fea26469706673582212202e574b3fa8466aa0a3a2cfd7f4af6386250f57370338b8556c9bb846c235e3d364736f6c63430008110033",
  "linkReferences": {},
  "deployedLinkReferences": {}
}